{"abi":[{"type":"constructor","inputs":[{"name":"_memeNames","type":"string[]","internalType":"string[]"},{"name":"_creator","type":"address","internalType":"address"},{"name":"_userContractAddress","type":"address","internalType":"address"}],"stateMutability":"nonpayable"},{"type":"receive","stateMutability":"payable"},{"type":"function","name":"battleEnded","inputs":[],"outputs":[{"name":"","type":"bool","internalType":"bool"}],"stateMutability":"view"},{"type":"function","name":"creator","inputs":[],"outputs":[{"name":"","type":"address","internalType":"address"}],"stateMutability":"view"},{"type":"function","name":"didReceiveAttestation","inputs":[{"name":"attester","type":"address","internalType":"address"},{"name":"schemaId","type":"uint64","internalType":"uint64"},{"name":"attestationId","type":"uint64","internalType":"uint64"},{"name":"extraData","type":"bytes","internalType":"bytes"}],"outputs":[],"stateMutability":"payable"},{"type":"function","name":"didReceiveAttestation","inputs":[{"name":"attester","type":"address","internalType":"address"},{"name":"","type":"uint64","internalType":"uint64"},{"name":"","type":"uint64","internalType":"uint64"},{"name":"","type":"address","internalType":"contract IERC20"},{"name":"","type":"uint256","internalType":"uint256"},{"name":"","type":"bytes","internalType":"bytes"}],"outputs":[],"stateMutability":"view"},{"type":"function","name":"didReceiveRevocation","inputs":[{"name":"attester","type":"address","internalType":"address"},{"name":"schemaId","type":"uint64","internalType":"uint64"},{"name":"attestationId","type":"uint64","internalType":"uint64"},{"name":"extraData","type":"bytes","internalType":"bytes"}],"outputs":[],"stateMutability":"payable"},{"type":"function","name":"didReceiveRevocation","inputs":[{"name":"attester","type":"address","internalType":"address"},{"name":"","type":"uint64","internalType":"uint64"},{"name":"","type":"uint64","internalType":"uint64"},{"name":"","type":"address","internalType":"contract IERC20"},{"name":"","type":"uint256","internalType":"uint256"},{"name":"","type":"bytes","internalType":"bytes"}],"outputs":[],"stateMutability":"view"},{"type":"function","name":"endBattle","inputs":[{"name":"_winningMemeToken","type":"address","internalType":"address"}],"outputs":[],"stateMutability":"nonpayable"},{"type":"function","name":"getUserScore","inputs":[{"name":"user","type":"address","internalType":"address"}],"outputs":[{"name":"","type":"uint256","internalType":"uint256"}],"stateMutability":"view"},{"type":"function","name":"getUserStats","inputs":[{"name":"user","type":"address","internalType":"address"}],"outputs":[{"name":"","type":"tuple","internalType":"struct User.UserStats","components":[{"name":"numberOfBets","type":"uint256","internalType":"uint256"},{"name":"totalAmountBet","type":"uint256","internalType":"uint256"},{"name":"totalWins","type":"uint256","internalType":"uint256"},{"name":"totalLosses","type":"uint256","internalType":"uint256"},{"name":"score","type":"uint256","internalType":"uint256"}]}],"stateMutability":"view"},{"type":"function","name":"memeNames","inputs":[{"name":"","type":"uint256","internalType":"uint256"}],"outputs":[{"name":"","type":"string","internalType":"string"}],"stateMutability":"view"},{"type":"function","name":"memeTokenAddresses","inputs":[{"name":"","type":"uint256","internalType":"uint256"}],"outputs":[{"name":"","type":"address","internalType":"address"}],"stateMutability":"view"},{"type":"function","name":"stakers","inputs":[{"name":"","type":"address","internalType":"address"},{"name":"","type":"address","internalType":"address"}],"outputs":[{"name":"amount","type":"uint256","internalType":"uint256"},{"name":"hasStaked","type":"bool","internalType":"bool"}],"stateMutability":"view"},{"type":"function","name":"totalStakedPerMeme","inputs":[{"name":"","type":"address","internalType":"address"}],"outputs":[{"name":"","type":"uint256","internalType":"uint256"}],"stateMutability":"view"},{"type":"function","name":"unstake","inputs":[{"name":"memeToken","type":"address","internalType":"address"}],"outputs":[],"stateMutability":"nonpayable"},{"type":"function","name":"userContract","inputs":[],"outputs":[{"name":"","type":"address","internalType":"contract User"}],"stateMutability":"view"},{"type":"function","name":"winningMemeToken","inputs":[],"outputs":[{"name":"","type":"address","internalType":"address"}],"stateMutability":"view"},{"type":"event","name":"MemeBattleEnded","inputs":[{"name":"winningMemeToken","type":"address","indexed":true,"internalType":"address"}],"anonymous":false},{"type":"event","name":"MessageSent","inputs":[{"name":"user","type":"address","indexed":true,"internalType":"address"},{"name":"message","type":"string","indexed":false,"internalType":"string"}],"anonymous":false},{"type":"event","name":"RewardDistributed","inputs":[{"name":"user","type":"address","indexed":true,"internalType":"address"},{"name":"memeToken","type":"address","indexed":true,"internalType":"address"},{"name":"reward","type":"uint256","indexed":false,"internalType":"uint256"}],"anonymous":false},{"type":"event","name":"Staked","inputs":[{"name":"user","type":"address","indexed":true,"internalType":"address"},{"name":"memeToken","type":"address","indexed":true,"internalType":"address"},{"name":"amount","type":"uint256","indexed":false,"internalType":"uint256"}],"anonymous":false},{"type":"event","name":"Unstaked","inputs":[{"name":"user","type":"address","indexed":true,"internalType":"address"},{"name":"memeToken","type":"address","indexed":true,"internalType":"address"},{"name":"amount","type":"uint256","indexed":false,"internalType":"uint256"}],"anonymous":false},{"type":"event","name":"UserScoreUpdated","inputs":[{"name":"user","type":"address","indexed":false,"internalType":"address"},{"name":"scoreBefore","type":"uint256","indexed":false,"internalType":"uint256"},{"name":"scoreAfter","type":"uint256","indexed":false,"internalType":"uint256"}],"anonymous":false}],"bytecode":{"object":"0x608060405234801561001057600080fd5b5060405161204f38038061204f83398101604081905261002f916101a9565b8251610042906001906020860190610082565b50600380546001600160a01b039384166001600160a01b03199182161790915560008054929093169116179055506006805460ff60a01b1916905561045a565b8280548282559060005260206000209081019282156100c8579160200282015b828111156100c857825182906100b8908261039c565b50916020019190600101906100a2565b506100d49291506100d8565b5090565b808211156100d45760006100ec82826100f5565b506001016100d8565b50805461010190610313565b6000825580601f10610111575050565b601f01602090049060005260206000209081019061012f9190610132565b50565b5b808211156100d45760008155600101610133565b634e487b7160e01b600052604160045260246000fd5b604051601f8201601f191681016001600160401b038111828210171561018557610185610147565b604052919050565b80516001600160a01b03811681146101a457600080fd5b919050565b6000806000606084860312156101be57600080fd5b83516001600160401b038111156101d457600080fd5b8401601f810186136101e557600080fd5b80516001600160401b038111156101fe576101fe610147565b8060051b61020e6020820161015d565b9182526020818401810192908101908984111561022a57600080fd5b6020850192505b838310156102e85782516001600160401b0381111561024f57600080fd5b8501603f81018b1361026057600080fd5b60208101516001600160401b0381111561027c5761027c610147565b61028f601f8201601f191660200161015d565b8181526040838301018d10156102a457600080fd5b60005b828110156102c757808401604001516020838301810191909152016102a7565b50600060208383010152808552505050602082019150602083019250610231565b80975050505050506102fc6020850161018d565b915061030a6040850161018d565b90509250925092565b600181811c9082168061032757607f821691505b60208210810361034757634e487b7160e01b600052602260045260246000fd5b50919050565b601f82111561039757806000526020600020601f840160051c810160208510156103745750805b601f840160051c820191505b818110156103945760008155600101610380565b50505b505050565b81516001600160401b038111156103b5576103b5610147565b6103c9816103c38454610313565b8461034d565b6020601f8211600181146103fd57600083156103e55750848201515b600019600385901b1c1916600184901b178455610394565b600084815260208120601f198516915b8281101561042d578785015182556020948501946001909201910161040d565b508482101561044b5786840151600019600387901b60f8161c191681555b50505050600190811b01905550565b611be6806104696000396000f3fe6080604052600436106100f75760003560e01c8063644729a11161008a578063e33361f411610059578063e33361f414610314578063e830b5c7146101c6578063e8f5063314610329578063f2888dbb1461038057600080fd5b8063644729a11461026c578063b34e0c47146102a7578063b7572ec4146102c7578063c4e2b34e146102e757600080fd5b80633f52cee6116100c65780633f52cee6146101955780634466507a146101c65780634e43603a146101ea5780635000596b1461024c57600080fd5b806302d05d3f1461010357806313cb5ad6146101405780632ee02718146101605780633398b4ed1461018257600080fd5b366100fe57005b600080fd5b34801561010f57600080fd5b50600354610123906001600160a01b031681565b6040516001600160a01b0390911681526020015b60405180910390f35b34801561014c57600080fd5b5061012361015b3660046117ac565b6103a0565b34801561016c57600080fd5b5061018061017b3660046117da565b6103ca565b005b610180610190366004611864565b610533565b3480156101a157600080fd5b506006546101b690600160a01b900460ff1681565b6040519015158152602001610137565b3480156101d257600080fd5b506101806101e13660046118dc565b50505050505050565b3480156101f657600080fd5b5061020a6102053660046117da565b610e82565b6040516101379190600060a082019050825182526020830151602083015260408301516040830152606083015160608301526080830151608083015292915050565b34801561025857600080fd5b50600054610123906001600160a01b031681565b34801561027857600080fd5b506102996102873660046117da565b60056020526000908152604090205481565b604051908152602001610137565b3480156102b357600080fd5b506102996102c23660046117da565b610f28565b3480156102d357600080fd5b50600654610123906001600160a01b031681565b3480156102f357600080fd5b506103076103023660046117ac565b610f97565b6040516101379190611970565b610180610322366004611864565b5050505050565b34801561033557600080fd5b5061036b6103443660046119be565b60046020908152600092835260408084209091529082529020805460019091015460ff1682565b60408051928352901515602083015201610137565b34801561038c57600080fd5b5061018061039b3660046117da565b611043565b600281815481106103b057600080fd5b6000918252602090912001546001600160a01b0316905081565b6003546001600160a01b031633146104355760405162461bcd60e51b815260206004820152602360248201527f4f6e6c79207468652063726561746f722063616e20656e642074686520626174604482015262746c6560e81b60648201526084015b60405180910390fd5b61043e8161126b565b61048a5760405162461bcd60e51b815260206004820152601a60248201527f496e76616c69642077696e6e696e67206d656d6520746f6b656e000000000000604482015260640161042c565b600654600160a01b900460ff16156104db5760405162461bcd60e51b815260206004820152601460248201527310985d1d1b1948185b1c9958591e48195b99195960621b604482015260640161042c565b600680546001600160a81b0319166001600160a01b038316908117600160a01b179091556040517f73a3eb719dd7f8906596de2344f14302dea1dc656e0e6f21de39a65a8cdcb75690600090a26105306112ca565b50565b600654600160a01b900460ff16156105805760405162461bcd60e51b815260206004820152601060248201526f10985d1d1b19481a185cc8195b99195960821b604482015260640161042c565b60008080610590848601866119f7565b92509250925061059f8261126b565b6105e05760405162461bcd60e51b815260206004820152601260248201527124b73b30b634b21036b2b6b2903a37b5b2b760711b604482015260640161042c565b60008360018111156105f4576105f4611a3c565b036108a857803410156106405760405162461bcd60e51b8152602060048201526014602482015273125b9cdd59999a58da595b9d081c185e5b595b9d60621b604482015260640161042c565b6001600160a01b038083166000908152600460209081526040808320938c16835292905290812080549091839183919061067b908490611a68565b90915550506001818101805460ff191690911790556001600160a01b038316600090815260056020526040812080548492906106b8908490611a68565b92505081905550826001600160a01b0316896001600160a01b03167f5dac0c1b1112564a045ba943c9d50270893e8e826c49be8e7073adc713ab7bd78460405161070491815260200190565b60405180910390a36000805460405163b34e0c4760e01b81526001600160a01b038c811660048301529091169063b34e0c4790602401602060405180830381865afa158015610757573d6000803e3d6000fd5b505050506040513d601f19601f8201168201806040525081019061077b9190611a7b565b600054604051633b253f5f60e01b81526001600160a01b038d8116600483015260248201879052929350911690633b253f5f90604401600060405180830381600087803b1580156107cb57600080fd5b505af11580156107df573d6000803e3d6000fd5b50506000805460405163b34e0c4760e01b81526001600160a01b038f811660048301529294509116915063b34e0c4790602401602060405180830381865afa15801561082f573d6000803e3d6000fd5b505050506040513d601f19601f820116820180604052508101906108539190611a7b565b604080516001600160a01b038e168152602081018590529081018290529091507f6b1c32e994893b1cd55314ec36319f13af990a8d79b4db09f57714aa6ef4f26b9060600160405180910390a1505050610e78565b60018360018111156108bc576108bc611a3c565b03610e78576003546001600160a01b0389811691161461092c5760405162461bcd60e51b815260206004820152602560248201527f4f6e6c79207468652063726561746f722063616e206465636c6172652061207760448201526434b73732b960d91b606482015260840161042c565b600654600160a01b900460ff161561097d5760405162461bcd60e51b815260206004820152601460248201527310985d1d1b1948185b1c9958591e48195b99195960621b604482015260640161042c565b600680546001600160a81b0319166001600160a01b0380851691909117600160a01b17918290556040519116907f73a3eb719dd7f8906596de2344f14302dea1dc656e0e6f21de39a65a8cdcb75690600090a26000805b600254811015610a2e5760056000600283815481106109f5576109f5611a94565b60009182526020808320909101546001600160a01b03168352820192909252604001902054610a249083611a68565b91506001016109d4565b506006546001600160a01b031660009081526005602052604090205480610a975760405162461bcd60e51b815260206004820152601960248201527f4e6f207374616b6573206f6e2077696e6e696e67206d656d6500000000000000604482015260640161042c565b60005b600254811015610e2657600060028281548110610ab957610ab9611a94565b60009182526020822001546006546001600160a01b039182169350168214905b600254811015610e04576001600160a01b03808416600090815260046020908152604080832093851683529290522054819015610dfb576001600160a01b0384811660009081526004602081815260408084208686168086529252808420548454915163b34e0c4760e01b8152938401929092529093169063b34e0c4790602401602060405180830381865afa158015610b77573d6000803e3d6000fd5b505050506040513d601f19601f82011682018060405250810190610b9b9190611a7b565b90508415610ca657600088610bb08b85611aaa565b610bba9190611ac1565b6040519091506001600160a01b0385169082156108fc029083906000818181858888f19350505050158015610bf3573d6000803e3d6000fd5b50866001600160a01b0316846001600160a01b03167f5303cb8fc2ab504b092b4799d2c00f2209ee4eee6b03a168171dc140ed7403ee83604051610c3991815260200190565b60405180910390a3600054604051631c7b451b60e21b81526001600160a01b038681166004830152909116906371ed146c90602401600060405180830381600087803b158015610c8857600080fd5b505af1158015610c9c573d6000803e3d6000fd5b5050505050610d06565b600054604051636f0a7d7760e01b81526001600160a01b03858116600483015290911690636f0a7d7790602401600060405180830381600087803b158015610ced57600080fd5b505af1158015610d01573d6000803e3d6000fd5b505050505b6000805460405163b34e0c4760e01b81526001600160a01b0386811660048301529091169063b34e0c4790602401602060405180830381865afa158015610d51573d6000803e3d6000fd5b505050506040513d601f19601f82011682018060405250810190610d759190611a7b565b604080516001600160a01b0387168152602081018590529081018290529091507f6b1c32e994893b1cd55314ec36319f13af990a8d79b4db09f57714aa6ef4f26b9060600160405180910390a15050506001600160a01b0380851660009081526004602090815260408083209385168352929052908120908155600101805460ff191690555b50600101610ad9565b50506001600160a01b0316600090815260056020526040812055600101610a9a565b504715610e755760405162461bcd60e51b815260206004820152601960248201527f4e6f7420616c6c2066756e647320646973747269627574656400000000000000604482015260640161042c565b50505b5050505050505050565b610eb46040518060a0016040528060008152602001600081526020016000815260200160008152602001600081525090565b600054604051632721b01d60e11b81526001600160a01b03848116600483015290911690634e43603a9060240160a060405180830381865afa158015610efe573d6000803e3d6000fd5b505050506040513d601f19601f82011682018060405250810190610f229190611ae3565b92915050565b6000805460405163b34e0c4760e01b81526001600160a01b0384811660048301529091169063b34e0c4790602401602060405180830381865afa158015610f73573d6000803e3d6000fd5b505050506040513d601f19601f82011682018060405250810190610f229190611a7b565b60018181548110610fa757600080fd5b906000526020600020016000915090508054610fc290611b63565b80601f0160208091040260200160405190810160405280929190818152602001828054610fee90611b63565b801561103b5780601f106110105761010080835404028352916020019161103b565b820191906000526020600020905b81548152906001019060200180831161101e57829003601f168201915b505050505081565b6001600160a01b038116600090815260046020908152604080832033845290915290206001015460ff166110b25760405162461bcd60e51b8152602060048201526016602482015275139bc81cdd185ad959081d1bdad95b9cc8199bdd5b9960521b604482015260640161042c565b6001600160a01b03811660009081526004602090815260408083203384529091529020546111225760405162461bcd60e51b815260206004820152601b60248201527f4e6f207374616b656420746f6b656e7320746f20756e7374616b650000000000604482015260640161042c565b6001600160a01b0381166000908152600460209081526040808320338085529252808320549051909283156108fc02918491818181858888f19350505050158015611171573d6000803e3d6000fd5b506001600160a01b0382166000908152600560205260408120805483929061119a908490611b9d565b90915550506001600160a01b0382166000818152600460209081526040808320338085529083528184209384556001909301805460ff19169055518481527fd8654fcc8cf5b36d30b3f5e4688fc78118e6d68de60b9994e09902268b57c3e3910160405180910390a360008054604051633b253f5f60e01b815233600482015260248101929092526001600160a01b031690633b253f5f90604401600060405180830381600087803b15801561124f57600080fd5b505af1158015611263573d6000803e3d6000fd5b505050505050565b6000805b6002548110156112c157826001600160a01b03166002828154811061129657611296611a94565b6000918252602090912001546001600160a01b0316036112b95750600192915050565b60010161126f565b50600092915050565b6000805b60025481101561136657600654600280546001600160a01b0390921691839081106112fb576112fb611a94565b6000918252602090912001546001600160a01b03161461135e57600560006002838154811061132c5761132c611a94565b60009182526020808320909101546001600160a01b0316835282019290925260400190205461135b9083611a68565b91505b6001016112ce565b506006546001600160a01b031660009081526005602052604081205461138d908390611a68565b905060005b6002548110156117a757600654600280546001600160a01b0390921691839081106113bf576113bf611a94565b6000918252602090912001546001600160a01b0316036115c05760005b6002548110156115ba5760008190506000600460006002868154811061140457611404611a94565b60009182526020808320909101546001600160a01b039081168452838201949094526040928301822093861682529290925290205411156115b1576000600460006002868154811061145857611458611a94565b60009182526020808320909101546001600160a01b0390811684528382019490945260409283018220868516835281528282205460065490941682526005905290812054919250906114aa8784611aaa565b6114b49190611ac1565b6040519091506001600160a01b0384169082156108fc029083906000818181858888f193505050501580156114ed573d6000803e3d6000fd5b506002858154811061150157611501611a94565b600091825260209182902001546040518381526001600160a01b0391821692918616917f5303cb8fc2ab504b092b4799d2c00f2209ee4eee6b03a168171dc140ed7403ee910160405180910390a3600054604051631c7b451b60e21b81526001600160a01b038581166004830152909116906371ed146c90602401600060405180830381600087803b15801561159657600080fd5b505af11580156115aa573d6000803e3d6000fd5b5050505050505b506001016113dc565b5061179f565b60005b60025481101561168f576000819050600060046000600286815481106115eb576115eb611a94565b60009182526020808320909101546001600160a01b0390811684528382019490945260409283018220938616825292909252902054111561168657600054604051636f0a7d7760e01b81526001600160a01b03838116600483015290911690636f0a7d7790602401600060405180830381600087803b15801561166d57600080fd5b505af1158015611681573d6000803e3d6000fd5b505050505b506001016115c3565b506000606460056000600285815481106116ab576116ab611a94565b60009182526020808320909101546001600160a01b031683528201929092526040019020546116db906014611aaa565b6116e59190611ac1565b9050600081600560006002868154811061170157611701611a94565b60009182526020808320909101546001600160a01b031683528201929092526040019020546117309190611b9d565b604051909150309083156108fc029084906000818181858888f19350505050158015611760573d6000803e3d6000fd5b506006546040516001600160a01b039091169082156108fc029083906000818181858888f1935050505015801561179b573d6000803e3d6000fd5b5050505b600101611392565b505050565b6000602082840312156117be57600080fd5b5035919050565b6001600160a01b038116811461053057600080fd5b6000602082840312156117ec57600080fd5b81356117f7816117c5565b9392505050565b803567ffffffffffffffff8116811461181657600080fd5b919050565b60008083601f84011261182d57600080fd5b50813567ffffffffffffffff81111561184557600080fd5b60208301915083602082850101111561185d57600080fd5b9250929050565b60008060008060006080868803121561187c57600080fd5b8535611887816117c5565b9450611895602087016117fe565b93506118a3604087016117fe565b9250606086013567ffffffffffffffff8111156118bf57600080fd5b6118cb8882890161181b565b969995985093965092949392505050565b600080600080600080600060c0888a0312156118f757600080fd5b8735611902816117c5565b9650611910602089016117fe565b955061191e604089016117fe565b9450606088013561192e816117c5565b93506080880135925060a088013567ffffffffffffffff81111561195157600080fd5b61195d8a828b0161181b565b989b979a50959850939692959293505050565b602081526000825180602084015260005b8181101561199e5760208186018101516040868401015201611981565b506000604082850101526040601f19601f83011684010191505092915050565b600080604083850312156119d157600080fd5b82356119dc816117c5565b915060208301356119ec816117c5565b809150509250929050565b600080600060608486031215611a0c57600080fd5b833560028110611a1b57600080fd5b92506020840135611a2b816117c5565b929592945050506040919091013590565b634e487b7160e01b600052602160045260246000fd5b634e487b7160e01b600052601160045260246000fd5b80820180821115610f2257610f22611a52565b600060208284031215611a8d57600080fd5b5051919050565b634e487b7160e01b600052603260045260246000fd5b8082028115828204841417610f2257610f22611a52565b600082611ade57634e487b7160e01b600052601260045260246000fd5b500490565b600060a0828403128015611af657600080fd5b6000905060405160a0810181811067ffffffffffffffff82111715611b2957634e487b7160e01b83526041600452602483fd5b6040908152845182526020808601519083015284810151908201526060808501519082015260809384015193810193909352509092915050565b600181811c90821680611b7757607f821691505b602082108103611b9757634e487b7160e01b600052602260045260246000fd5b50919050565b81810381811115610f2257610f22611a5256fea2646970667358221220a31f66dcf2f0b5d9c0dca89adc596b6339e07f7377a2f8bbc45a7e53fb69d1bc64736f6c634300081a0033","linkReferences":{}},"methodIdentifiers":{"battleEnded()":"3f52cee6","creator()":"02d05d3f","didReceiveAttestation(address,uint64,uint64,address,uint256,bytes)":"4466507a","didReceiveAttestation(address,uint64,uint64,bytes)":"3398b4ed","didReceiveRevocation(address,uint64,uint64,address,uint256,bytes)":"e830b5c7","didReceiveRevocation(address,uint64,uint64,bytes)":"e33361f4","endBattle(address)":"2ee02718","getUserScore(address)":"b34e0c47","getUserStats(address)":"4e43603a","memeNames(uint256)":"c4e2b34e","memeTokenAddresses(uint256)":"13cb5ad6","stakers(address,address)":"e8f50633","totalStakedPerMeme(address)":"644729a1","unstake(address)":"f2888dbb","userContract()":"5000596b","winningMemeToken()":"b7572ec4"},"id":7}