{"abi":[{"type":"constructor","inputs":[{"name":"_memeNames","type":"string[]","internalType":"string[]"},{"name":"_memeTokenAddresses","type":"address[]","internalType":"address[]"},{"name":"_creator","type":"address","internalType":"address"}],"stateMutability":"nonpayable"},{"type":"function","name":"battleEnded","inputs":[],"outputs":[{"name":"","type":"bool","internalType":"bool"}],"stateMutability":"view"},{"type":"function","name":"creator","inputs":[],"outputs":[{"name":"","type":"address","internalType":"address"}],"stateMutability":"view"},{"type":"function","name":"endBattle","inputs":[{"name":"_winningMemeToken","type":"address","internalType":"address"}],"outputs":[],"stateMutability":"nonpayable"},{"type":"function","name":"memeNames","inputs":[{"name":"","type":"uint256","internalType":"uint256"}],"outputs":[{"name":"","type":"string","internalType":"string"}],"stateMutability":"view"},{"type":"function","name":"memeTokenAddresses","inputs":[{"name":"","type":"uint256","internalType":"uint256"}],"outputs":[{"name":"","type":"address","internalType":"address"}],"stateMutability":"view"},{"type":"function","name":"sendMessage","inputs":[{"name":"message","type":"string","internalType":"string"}],"outputs":[],"stateMutability":"nonpayable"},{"type":"function","name":"stake","inputs":[{"name":"memeToken","type":"address","internalType":"address"},{"name":"amount","type":"uint256","internalType":"uint256"}],"outputs":[],"stateMutability":"nonpayable"},{"type":"function","name":"stakers","inputs":[{"name":"","type":"address","internalType":"address"},{"name":"","type":"address","internalType":"address"}],"outputs":[{"name":"amount","type":"uint256","internalType":"uint256"},{"name":"hasStaked","type":"bool","internalType":"bool"}],"stateMutability":"view"},{"type":"function","name":"totalStakedPerMeme","inputs":[{"name":"","type":"address","internalType":"address"}],"outputs":[{"name":"","type":"uint256","internalType":"uint256"}],"stateMutability":"view"},{"type":"function","name":"unstake","inputs":[{"name":"memeToken","type":"address","internalType":"address"}],"outputs":[],"stateMutability":"nonpayable"},{"type":"function","name":"winningMemeToken","inputs":[],"outputs":[{"name":"","type":"address","internalType":"address"}],"stateMutability":"view"},{"type":"event","name":"MemeBattleEnded","inputs":[{"name":"winningMemeToken","type":"address","indexed":true,"internalType":"address"}],"anonymous":false},{"type":"event","name":"MessageSent","inputs":[{"name":"user","type":"address","indexed":true,"internalType":"address"},{"name":"message","type":"string","indexed":false,"internalType":"string"}],"anonymous":false},{"type":"event","name":"RewardDistributed","inputs":[{"name":"user","type":"address","indexed":true,"internalType":"address"},{"name":"memeToken","type":"address","indexed":true,"internalType":"address"},{"name":"reward","type":"uint256","indexed":false,"internalType":"uint256"}],"anonymous":false},{"type":"event","name":"Staked","inputs":[{"name":"user","type":"address","indexed":true,"internalType":"address"},{"name":"memeToken","type":"address","indexed":true,"internalType":"address"},{"name":"amount","type":"uint256","indexed":false,"internalType":"uint256"}],"anonymous":false},{"type":"event","name":"Unstaked","inputs":[{"name":"user","type":"address","indexed":true,"internalType":"address"},{"name":"memeToken","type":"address","indexed":true,"internalType":"address"},{"name":"amount","type":"uint256","indexed":false,"internalType":"uint256"}],"anonymous":false}],"bytecode":{"object":"0x608060405234801561001057600080fd5b5060405161166838038061166883398101604081905261002f9161030d565b81518351146100925760405162461bcd60e51b815260206004820152602560248201527f4d656d65206e616d657320616e6420746f6b656e73206c656e677468206d69736044820152640dac2e8c6d60db1b606482015260840160405180910390fd5b82516100a59060009060208601906100ee565b5081516100b9906001906020850190610144565b50600280546001600160a01b0319166001600160a01b039290921691909117905550506005805460ff60a01b191690556105c1565b828054828255906000526020600020908101928215610134579160200282015b8281111561013457825182906101249082610503565b509160200191906001019061010e565b506101409291506101a5565b5090565b828054828255906000526020600020908101928215610199579160200282015b8281111561019957825182546001600160a01b0319166001600160a01b03909116178255602090920191600190910190610164565b506101409291506101c2565b808211156101405760006101b982826101d7565b506001016101a5565b5b8082111561014057600081556001016101c3565b5080546101e39061047a565b6000825580601f106101f3575050565b601f01602090049060005260206000209081019061021191906101c2565b50565b634e487b7160e01b600052604160045260246000fd5b604051601f8201601f191681016001600160401b038111828210171561025257610252610214565b604052919050565b60006001600160401b0382111561027357610273610214565b5060051b60200190565b80516001600160a01b038116811461029457600080fd5b919050565b600082601f8301126102aa57600080fd5b81516102bd6102b88261025a565b61022a565b8082825260208201915060208360051b8601019250858311156102df57600080fd5b602085015b83811015610303576102f58161027d565b8352602092830192016102e4565b5095945050505050565b60008060006060848603121561032257600080fd5b83516001600160401b0381111561033857600080fd5b8401601f8101861361034957600080fd5b80516103576102b88261025a565b8082825260208201915060208360051b85010192508883111561037957600080fd5b602084015b838110156104355780516001600160401b0381111561039c57600080fd5b8501603f81018b136103ad57600080fd5b60208101516001600160401b038111156103c9576103c9610214565b6103dc601f8201601f191660200161022a565b8181526040838301018d10156103f157600080fd5b60005b8281101561041457808401604001516020838301810191909152016103f4565b5060006020838301015280865250505060208301925060208101905061037e565b506020880151909650925050506001600160401b0381111561045657600080fd5b61046286828701610299565b9250506104716040850161027d565b90509250925092565b600181811c9082168061048e57607f821691505b6020821081036104ae57634e487b7160e01b600052602260045260246000fd5b50919050565b601f8211156104fe57806000526020600020601f840160051c810160208510156104db5750805b601f840160051c820191505b818110156104fb57600081556001016104e7565b50505b505050565b81516001600160401b0381111561051c5761051c610214565b6105308161052a845461047a565b846104b4565b6020601f821160018114610564576000831561054c5750848201515b600019600385901b1c1916600184901b1784556104fb565b600084815260208120601f198516915b828110156105945787850151825560209485019460019092019101610574565b50848210156105b25786840151600019600387901b60f8161c191681555b50505050600190811b01905550565b611098806105d06000396000f3fe608060405234801561001057600080fd5b50600436106100a95760003560e01c8063644729a111610071578063644729a11461013d578063adc9772e1461016b578063b7572ec41461017e578063c4e2b34e14610191578063e8f50633146101b1578063f2888dbb146101fb57600080fd5b806302d05d3f146100ae57806313cb5ad6146100de5780632ee02718146100f15780633f52cee614610106578063469c81101461012a575b600080fd5b6002546100c1906001600160a01b031681565b6040516001600160a01b0390911681526020015b60405180910390f35b6100c16100ec366004610dd0565b61020e565b6101046100ff366004610e05565b610238565b005b60055461011a90600160a01b900460ff1681565b60405190151581526020016100d5565b610104610138366004610e27565b6103a1565b61015d61014b366004610e05565b60046020526000908152604090205481565b6040519081526020016100d5565b610104610179366004610e9b565b6103e8565b6005546100c1906001600160a01b031681565b6101a461019f366004610dd0565b610605565b6040516100d59190610ec5565b6101e66101bf366004610f13565b60036020908152600092835260408084209091529082529020805460019091015460ff1682565b604080519283529015156020830152016100d5565b610104610209366004610e05565b6106b1565b6001818154811061021e57600080fd5b6000918252602090912001546001600160a01b0316905081565b6002546001600160a01b031633146102a35760405162461bcd60e51b815260206004820152602360248201527f4f6e6c79207468652063726561746f722063616e20656e642074686520626174604482015262746c6560e81b60648201526084015b60405180910390fd5b6102ac816108b6565b6102f85760405162461bcd60e51b815260206004820152601a60248201527f496e76616c69642077696e6e696e67206d656d6520746f6b656e000000000000604482015260640161029a565b600554600160a01b900460ff16156103495760405162461bcd60e51b815260206004820152601460248201527310985d1d1b1948185b1c9958591e48195b99195960621b604482015260640161029a565b600580546001600160a81b0319166001600160a01b038316908117600160a01b179091556040517f73a3eb719dd7f8906596de2344f14302dea1dc656e0e6f21de39a65a8cdcb75690600090a261039e610915565b50565b336001600160a01b03167f0d7fccda06d6eb51c23cbd16d49b9b3f3ebafb002dba1b074895cbb35d0e813083836040516103dc929190610f46565b60405180910390a25050565b600554600160a01b900460ff16156104355760405162461bcd60e51b815260206004820152601060248201526f10985d1d1b19481a185cc8195b99195960821b604482015260640161029a565b61043e826108b6565b61047f5760405162461bcd60e51b815260206004820152601260248201527124b73b30b634b21036b2b6b2903a37b5b2b760711b604482015260640161029a565b600081116104cf5760405162461bcd60e51b815260206004820152601d60248201527f416d6f756e74206d7573742062652067726561746572207468616e2030000000604482015260640161029a565b6040516323b872dd60e01b8152336004820152306024820152604481018290526001600160a01b038316906323b872dd906064016020604051808303816000875af1158015610522573d6000803e3d6000fd5b505050506040513d601f19601f820116820180604052508101906105469190610f75565b506001600160a01b0382166000908152600360209081526040808320338452909152812080549091839183919061057e908490610fad565b90915550506001818101805460ff191690911790556001600160a01b038316600090815260046020526040812080548492906105bb908490610fad565b90915550506040518281526001600160a01b0384169033907f5dac0c1b1112564a045ba943c9d50270893e8e826c49be8e7073adc713ab7bd79060200160405180910390a3505050565b6000818154811061061557600080fd5b90600052602060002001600091509050805461063090610fc6565b80601f016020809104026020016040519081016040528092919081815260200182805461065c90610fc6565b80156106a95780601f1061067e576101008083540402835291602001916106a9565b820191906000526020600020905b81548152906001019060200180831161068c57829003601f168201915b505050505081565b6001600160a01b038116600090815260036020908152604080832033845290915290206001015460ff166107205760405162461bcd60e51b8152602060048201526016602482015275139bc81cdd185ad959081d1bdad95b9cc8199bdd5b9960521b604482015260640161029a565b6001600160a01b03811660009081526003602090815260408083203384529091529020546107905760405162461bcd60e51b815260206004820152601b60248201527f4e6f207374616b656420746f6b656e7320746f20756e7374616b650000000000604482015260640161029a565b6001600160a01b03811660008181526003602090815260408083203380855292529182902054915163a9059cbb60e01b815260048101919091526024810182905290919063a9059cbb906044016020604051808303816000875af11580156107fc573d6000803e3d6000fd5b505050506040513d601f19601f820116820180604052508101906108209190610f75565b506001600160a01b03821660009081526004602052604081208054839290610849908490611000565b90915550506001600160a01b0382166000818152600360209081526040808320338085529083528184209384556001909301805460ff19169055518481527fd8654fcc8cf5b36d30b3f5e4688fc78118e6d68de60b9994e09902268b57c3e3910160405180910390a35050565b6000805b60015481101561090c57826001600160a01b0316600182815481106108e1576108e1611013565b6000918252602090912001546001600160a01b0316036109045750600192915050565b6001016108ba565b50600092915050565b6000805b6001548110156109b157600554600180546001600160a01b03909216918390811061094657610946611013565b6000918252602090912001546001600160a01b0316146109a957600460006001838154811061097757610977611013565b60009182526020808320909101546001600160a01b031683528201929092526040019020546109a69083610fad565b91505b600101610919565b506005546001600160a01b03166000908152600460205260408120546109d8908390610fad565b905060005b600154811015610dcb57600554600180546001600160a01b039092169183908110610a0a57610a0a611013565b6000918252602090912001546001600160a01b031603610bf75760005b600154811015610bf15760006003600060018581548110610a4a57610a4a611013565b60009182526020808320909101546001600160a01b0316835282810193909352604091820181203382529092529020541115610be95760006003600060018581548110610a9957610a99611013565b60009182526020808320909101546001600160a01b03908116845283820194909452604092830182203383528152828220546005549094168252600490529081205491925090610ae98684611029565b610af39190611040565b905060018481548110610b0857610b08611013565b60009182526020909120015460405163a9059cbb60e01b8152336004820152602481018390526001600160a01b039091169063a9059cbb906044016020604051808303816000875af1158015610b62573d6000803e3d6000fd5b505050506040513d601f19601f82011682018060405250810190610b869190610f75565b5060018481548110610b9a57610b9a611013565b600091825260209182902001546040518381526001600160a01b039091169133917f5303cb8fc2ab504b092b4799d2c00f2209ee4eee6b03a168171dc140ed7403ee910160405180910390a350505b600101610a27565b50610dc3565b600060646004600060018581548110610c1257610c12611013565b60009182526020808320909101546001600160a01b03168352820192909252604001902054610c42906014611029565b610c4c9190611040565b90506000816004600060018681548110610c6857610c68611013565b60009182526020808320909101546001600160a01b03168352820192909252604001902054610c979190611000565b905060018381548110610cac57610cac611013565b600091825260208220015460405163a9059cbb60e01b81526004810192909252602482018490526001600160a01b03169063a9059cbb906044016020604051808303816000875af1158015610d05573d6000803e3d6000fd5b505050506040513d601f19601f82011682018060405250810190610d299190610f75565b5060018381548110610d3d57610d3d611013565b60009182526020909120015460055460405163a9059cbb60e01b81526001600160a01b0391821660048201526024810184905291169063a9059cbb906044016020604051808303816000875af1158015610d9b573d6000803e3d6000fd5b505050506040513d601f19601f82011682018060405250810190610dbf9190610f75565b5050505b6001016109dd565b505050565b600060208284031215610de257600080fd5b5035919050565b80356001600160a01b0381168114610e0057600080fd5b919050565b600060208284031215610e1757600080fd5b610e2082610de9565b9392505050565b60008060208385031215610e3a57600080fd5b823567ffffffffffffffff811115610e5157600080fd5b8301601f81018513610e6257600080fd5b803567ffffffffffffffff811115610e7957600080fd5b856020828401011115610e8b57600080fd5b6020919091019590945092505050565b60008060408385031215610eae57600080fd5b610eb783610de9565b946020939093013593505050565b602081526000825180602084015260005b81811015610ef35760208186018101516040868401015201610ed6565b506000604082850101526040601f19601f83011684010191505092915050565b60008060408385031215610f2657600080fd5b610f2f83610de9565b9150610f3d60208401610de9565b90509250929050565b60208152816020820152818360408301376000818301604090810191909152601f909201601f19160101919050565b600060208284031215610f8757600080fd5b81518015158114610e2057600080fd5b634e487b7160e01b600052601160045260246000fd5b80820180821115610fc057610fc0610f97565b92915050565b600181811c90821680610fda57607f821691505b602082108103610ffa57634e487b7160e01b600052602260045260246000fd5b50919050565b81810381811115610fc057610fc0610f97565b634e487b7160e01b600052603260045260246000fd5b8082028115828204841417610fc057610fc0610f97565b60008261105d57634e487b7160e01b600052601260045260246000fd5b50049056fea2646970667358221220cc17ae712a49353aa75b292882ccebaa98a777735320a030c78a372db419faac64736f6c634300081a0033","linkReferences":{}},"methodIdentifiers":{"battleEnded()":"3f52cee6","creator()":"02d05d3f","endBattle(address)":"2ee02718","memeNames(uint256)":"c4e2b34e","memeTokenAddresses(uint256)":"13cb5ad6","sendMessage(string)":"469c8110","stake(address,uint256)":"adc9772e","stakers(address,address)":"e8f50633","totalStakedPerMeme(address)":"644729a1","unstake(address)":"f2888dbb","winningMemeToken()":"b7572ec4"},"id":7}