{"abi":[{"type":"constructor","inputs":[{"name":"_userContractAddress","type":"address","internalType":"address"}],"stateMutability":"nonpayable"},{"type":"receive","stateMutability":"payable"},{"type":"function","name":"battles","inputs":[{"name":"","type":"string","internalType":"string"}],"outputs":[{"name":"winningMemeId","type":"uint256","internalType":"uint256"},{"name":"startTime","type":"uint256","internalType":"uint256"},{"name":"deadline","type":"uint256","internalType":"uint256"},{"name":"ended","type":"bool","internalType":"bool"}],"stateMutability":"view"},{"type":"function","name":"createBattle","inputs":[{"name":"battleId","type":"string","internalType":"string"},{"name":"memeNames","type":"string[]","internalType":"string[]"},{"name":"duration","type":"uint256","internalType":"uint256"}],"outputs":[],"stateMutability":"nonpayable"},{"type":"function","name":"declareWinner","inputs":[{"name":"battleId","type":"string","internalType":"string"},{"name":"winningMemeId","type":"uint256","internalType":"uint256"}],"outputs":[],"stateMutability":"nonpayable"},{"type":"function","name":"didReceiveAttestation","inputs":[{"name":"attester","type":"address","internalType":"address"},{"name":"","type":"uint64","internalType":"uint64"},{"name":"attestationId","type":"uint64","internalType":"uint64"},{"name":"","type":"bytes","internalType":"bytes"}],"outputs":[],"stateMutability":"payable"},{"type":"function","name":"didReceiveAttestation","inputs":[{"name":"","type":"address","internalType":"address"},{"name":"","type":"uint64","internalType":"uint64"},{"name":"","type":"uint64","internalType":"uint64"},{"name":"","type":"address","internalType":"contract IERC20"},{"name":"","type":"uint256","internalType":"uint256"},{"name":"","type":"bytes","internalType":"bytes"}],"outputs":[],"stateMutability":"pure"},{"type":"function","name":"didReceiveRevocation","inputs":[{"name":"","type":"address","internalType":"address"},{"name":"","type":"uint64","internalType":"uint64"},{"name":"","type":"uint64","internalType":"uint64"},{"name":"","type":"bytes","internalType":"bytes"}],"outputs":[],"stateMutability":"payable"},{"type":"function","name":"didReceiveRevocation","inputs":[{"name":"","type":"address","internalType":"address"},{"name":"","type":"uint64","internalType":"uint64"},{"name":"","type":"uint64","internalType":"uint64"},{"name":"","type":"address","internalType":"contract IERC20"},{"name":"","type":"uint256","internalType":"uint256"},{"name":"","type":"bytes","internalType":"bytes"}],"outputs":[],"stateMutability":"pure"},{"type":"function","name":"getWinnings","inputs":[{"name":"battleId","type":"string","internalType":"string"},{"name":"user","type":"address","internalType":"address"}],"outputs":[{"name":"","type":"uint256","internalType":"uint256"}],"stateMutability":"view"},{"type":"function","name":"owner","inputs":[],"outputs":[{"name":"","type":"address","internalType":"address"}],"stateMutability":"view"},{"type":"function","name":"renounceOwnership","inputs":[],"outputs":[],"stateMutability":"nonpayable"},{"type":"function","name":"transferOwnership","inputs":[{"name":"newOwner","type":"address","internalType":"address"}],"outputs":[],"stateMutability":"nonpayable"},{"type":"function","name":"userContract","inputs":[],"outputs":[{"name":"","type":"address","internalType":"contract User"}],"stateMutability":"view"},{"type":"function","name":"winnings","inputs":[{"name":"","type":"string","internalType":"string"},{"name":"","type":"address","internalType":"address"}],"outputs":[{"name":"","type":"uint256","internalType":"uint256"}],"stateMutability":"view"},{"type":"event","name":"BattleCreated","inputs":[{"name":"battleId","type":"string","indexed":false,"internalType":"string"},{"name":"memes","type":"string[]","indexed":false,"internalType":"string[]"},{"name":"startTime","type":"uint256","indexed":false,"internalType":"uint256"},{"name":"deadline","type":"uint256","indexed":false,"internalType":"uint256"}],"anonymous":false},{"type":"event","name":"BetPlaced","inputs":[{"name":"battleId","type":"string","indexed":false,"internalType":"string"},{"name":"user","type":"address","indexed":true,"internalType":"address"},{"name":"memeId","type":"uint256","indexed":true,"internalType":"uint256"},{"name":"amount","type":"uint256","indexed":false,"internalType":"uint256"}],"anonymous":false},{"type":"event","name":"OwnershipTransferred","inputs":[{"name":"previousOwner","type":"address","indexed":true,"internalType":"address"},{"name":"newOwner","type":"address","indexed":true,"internalType":"address"}],"anonymous":false},{"type":"event","name":"RewardClaimed","inputs":[{"name":"battleId","type":"string","indexed":false,"internalType":"string"},{"name":"user","type":"address","indexed":true,"internalType":"address"},{"name":"reward","type":"uint256","indexed":false,"internalType":"uint256"}],"anonymous":false},{"type":"event","name":"UserScoreUpdated","inputs":[{"name":"user","type":"address","indexed":true,"internalType":"address"},{"name":"oldScore","type":"uint256","indexed":false,"internalType":"uint256"},{"name":"newScore","type":"uint256","indexed":false,"internalType":"uint256"}],"anonymous":false},{"type":"event","name":"WinnerDeclared","inputs":[{"name":"battleId","type":"string","indexed":false,"internalType":"string"},{"name":"memeId","type":"uint256","indexed":true,"internalType":"uint256"}],"anonymous":false},{"type":"error","name":"OwnableInvalidOwner","inputs":[{"name":"owner","type":"address","internalType":"address"}]},{"type":"error","name":"OwnableUnauthorizedAccount","inputs":[{"name":"account","type":"address","internalType":"address"}]},{"type":"error","name":"ReentrancyGuardReentrantCall","inputs":[]}],"bytecode":{"object":"0x608060405234801561001057600080fd5b5060405161229038038061229083398101604081905261002f916100fa565b338061005557604051631e4fbdf760e01b81526000600482015260240160405180910390fd5b61005e816100aa565b506001805560028054734e4af2a21ebf62850fd99eb6253e1efbb56098cd6001600160a01b031991821617909155600380549091166001600160a01b039290921691909117905561012a565b600080546001600160a01b038381166001600160a01b0319831681178455604051919092169283917f8be0079c531659141344cd1fd0a4f28419497f9722a3daafe3b4186f6b6457e09190a35050565b60006020828403121561010c57600080fd5b81516001600160a01b038116811461012357600080fd5b9392505050565b612157806101396000396000f3fe6080604052600436106100c65760003560e01c806377bb7b781161007f578063be7cb2a611610059578063be7cb2a614610285578063e33361f4146102a5578063e830b5c714610142578063f2fde38b146102b857600080fd5b806377bb7b78146101cf5780638da5cb5b14610247578063b308edef1461026557600080fd5b806321cfa9da146100d25780633398b4ed1461012d5780634466507a146101425780635000596b146101625780636b35c67c1461019a578063715018a6146101ba57600080fd5b366100cd57005b600080fd5b3480156100de57600080fd5b5061011a6100ed366004611753565b81516020818401810180516005825292820194820194909420919093529091526000908152604090205481565b6040519081526020015b60405180910390f35b61014061013b366004611801565b6102d8565b005b34801561014e57600080fd5b5061014061015d36600461187c565b6104f8565b34801561016e57600080fd5b50600354610182906001600160a01b031681565b6040516001600160a01b039091168152602001610124565b3480156101a657600080fd5b506101406101b5366004611913565b610540565b3480156101c657600080fd5b50610140610a24565b3480156101db57600080fd5b506102256101ea366004611957565b805160208183018101805160048083529383019290940191909120929052600182015460028301546003840154939092015490929060ff1684565b6040805194855260208501939093529183015215156060820152608001610124565b34801561025357600080fd5b506000546001600160a01b0316610182565b34801561027157600080fd5b5061011a610280366004611753565b610a38565b34801561029157600080fd5b506101406102a03660046119b6565b610a78565b6101406102b3366004611801565b610c59565b3480156102c457600080fd5b506101406102d3366004611aa0565b610ca1565b6102e0610cdf565b60025460405162c44a5160e71b81526001600160401b03851660048201526000916001600160a01b031690636225288090602401600060405180830381865afa158015610331573d6000803e3d6000fd5b505050506040513d6000823e601f3d908101601f191682016040526103599190810190611bfe565b9050600080600080600080600087610120015180602001905181019061037f9190611d25565b9650965096509650965096509650833410156103d95760405162461bcd60e51b8152602060048201526014602482015273125b9cdd59999a58da595b9d081c185e5b595b9d60621b60448201526064015b60405180910390fd5b604051671554d15497d0915560c21b602082015260280160405160208183030381529060405280519060200120816040516020016104179190611dca565b6040516020818303038152906040528051906020012003610445576104408d8888888888610d09565b6104e0565b60405164434c41494d60d81b602082015260250160405160208183030381529060405280519060200120816040516020016104809190611dca565b60405160208183030381529060405280519060200120036104a7576104408d888888611217565b60405162461bcd60e51b815260206004820152600e60248201526d24b73b30b634b21030b1ba34b7b760911b60448201526064016103d0565b50505050505050506104f160018055565b5050505050565b60405162461bcd60e51b815260206004820152601a60248201527f455243323020746f6b656e73206e6f7420737570706f7274656400000000000060448201526064016103d0565b6105486114e1565b600060048360405161055a9190611dca565b908152604051908190036020019020600481015490915060ff16156105c15760405162461bcd60e51b815260206004820152601860248201527f426174746c652068617320616c726561647920656e646564000000000000000060448201526064016103d0565b80600301544210156106155760405162461bcd60e51b815260206004820152601760248201527f42657474696e6720706572696f64206e6f74206f76657200000000000000000060448201526064016103d0565b805482118015906106265750600082115b6106725760405162461bcd60e51b815260206004820152601760248201527f496e76616c69642077696e6e696e67206d656d6520494400000000000000000060448201526064016103d0565b600180820183905560048201805460ff191682179055600083815260058301602052604081209091015447915b60008581526007850160205260409020548110156108ff57600085815260078501602052604081208054839081106106d9576106d9611de6565b600091825260208083209091015488835260068801825260408084206001600160a01b039092168085529190925290822054909250908461071a8784611e12565b6107249190611e29565b90508060058a6040516107379190611dca565b9081526040805191829003602090810183206001600160a01b03808916600090815291909252918220939093556003546302754c1360e51b835290921690634ea982609061078b908d908890600401611e77565b602060405180830381865afa1580156107a8573d6000803e3d6000fd5b505050506040513d601f19601f820116820180604052508101906107cc9190611ea1565b600354604051630a35288760e21b81529192506001600160a01b0316906328d4a21c906107ff908d908890600401611e77565b600060405180830381600087803b15801561081957600080fd5b505af115801561082d573d6000803e3d6000fd5b50506003546040516302754c1360e51b8152600093506001600160a01b039091169150634ea9826090610866908e908990600401611e77565b602060405180830381865afa158015610883573d6000803e3d6000fd5b505050506040513d601f19601f820116820180604052508101906108a79190611ea1565b60408051848152602081018390529192506001600160a01b038716917f6b1c32e994893b1cd55314ec36319f13af990a8d79b4db09f57714aa6ef4f26b910160405180910390a250506001909301925061069f915050565b5060015b835481116109e4578481146109d25760005b60008281526007860160205260409020548110156109d0576000828152600786016020526040812080548390811061094f5761094f611de6565b6000918252602090912001546003546040516325f7abb960e01b81526001600160a01b0392831693509116906325f7abb990610991908b908590600401611e77565b600060405180830381600087803b1580156109ab57600080fd5b505af11580156109bf573d6000803e3d6000fd5b505060019093019250610915915050565b505b806109dc81611eba565b915050610903565b50837fd6d1eeba639254bd05e36261ae299af245328ab997fd9b7823d5fff17f1b74a486604051610a159190611ed3565b60405180910390a25050505050565b610a2c6114e1565b610a36600061150e565b565b6000600583604051610a4a9190611dca565b90815260408051602092819003830190206001600160a01b0385166000908152925290205490505b92915050565b610a806114e1565b600483604051610a909190611dca565b908152602001604051809103902060020154600014610ae95760405162461bcd60e51b8152602060048201526015602482015274426174746c6520616c72656164792065786973747360581b60448201526064016103d0565b6001825111610b3a5760405162461bcd60e51b815260206004820152601b60248201527f4174206c656173742074776f206d656d6573207265717569726564000000000060448201526064016103d0565b6000600484604051610b4c9190611dca565b9081526020016040518091039020905082816000019080519060200190610b74929190611595565b504260028201819055610b88908390611ee6565b600382015560005b8351811015610c0d576040518060400160405280858381518110610bb657610bb6611de6565b602002602001015181526020016000815250826005016000836001610bdb9190611ee6565b8152602081019190915260400160002081518190610bf99082611f7f565b506020919091015160019182015501610b90565b507f53afb4af6070b42095973b8681b2d6721a3ff4b1aa0113d0f6112452b9ddf04f848483600201548460030154604051610c4b949392919061203d565b60405180910390a150505050565b60405162461bcd60e51b815260206004820152601a60248201527f426574207265766f636174696f6e206e6f7420616c6c6f77656400000000000060448201526064016103d0565b610ca96114e1565b6001600160a01b038116610cd357604051631e4fbdf760e01b8152600060048201526024016103d0565b610cdc8161150e565b50565b600260015403610d0257604051633ee5aeb560e01b815260040160405180910390fd5b6002600155565b6000600485604051610d1b9190611dca565b90815260200160405180910390209050856001600160a01b0316876001600160a01b031614610d8c5760405162461bcd60e51b815260206004820152601960248201527f4174746573746572206d7573742062652074686520757365720000000000000060448201526064016103d0565b600481015460ff1615610dd45760405162461bcd60e51b815260206004820152601060248201526f10985d1d1b19481a185cc8195b99195960821b60448201526064016103d0565b80600301544210610e275760405162461bcd60e51b815260206004820152601860248201527f42657474696e6720706572696f642068617320656e646564000000000000000060448201526064016103d0565b6000610e33828661155e565b905080600003610e775760405162461bcd60e51b815260206004820152600f60248201526e125b9d985b1a59081b595b59481251608a1b60448201526064016103d0565b60008411610ed15760405162461bcd60e51b815260206004820152602160248201527f42657420616d6f756e74206d7573742062652067726561746572207468616e206044820152600360fc1b60648201526084016103d0565b600081815260068301602090815260408083206001600160a01b038b16845290915290205415610f4d5760405162461bcd60e51b815260206004820152602160248201527f557365722068617320616c726561647920626574206f6e2074686973206d656d6044820152606560f81b60648201526084016103d0565b600081815260068301602090815260408083206001600160a01b038b16845290915281208054869290610f81908490611ee6565b9091555050600081815260078301602090815260408083208054600180820183559185528385200180546001600160a01b0319166001600160a01b038d16179055848452600586019092528220018054869290610fdf908490611ee6565b9250508190555080876001600160a01b03167fceb5bc0fba278ef0ba3d1ddcd12a6cf6425470e33fdf5fa9e6b8858e898e97ae88876040516110229291906120be565b60405180910390a36003546040516302754c1360e51b81526000916001600160a01b031690634ea982609061105d908a908c90600401611e77565b602060405180830381865afa15801561107a573d6000803e3d6000fd5b505050506040513d601f19601f8201168201806040525081019061109e9190611ea1565b6003546040516312329d9b60e11b81529192506001600160a01b0316906324653b36906110d3908a908c908a906004016120e0565b600060405180830381600087803b1580156110ed57600080fd5b505af1158015611101573d6000803e3d6000fd5b50506003546040516302754c1360e51b8152600093506001600160a01b039091169150634ea982609061113a908b908d90600401611e77565b602060405180830381865afa158015611157573d6000803e3d6000fd5b505050506040513d601f19601f8201168201806040525081019061117b9190611ea1565b60408051848152602081018390529192506001600160a01b038b16917f6b1c32e994893b1cd55314ec36319f13af990a8d79b4db09f57714aa6ef4f26b910160405180910390a28534111561120b576001600160a01b0389166108fc6111e1883461210e565b6040518115909202916000818181858888f19350505050158015611209573d6000803e3d6000fd5b505b50505050505050505050565b60006004836040516112299190611dca565b908152604051908190036020019020600481015490915060ff1661128f5760405162461bcd60e51b815260206004820152601860248201527f426174746c6520686173206e6f7420656e64656420796574000000000000000060448201526064016103d0565b60006005846040516112a19190611dca565b90815260408051602092819003830190206001600160a01b038816600090815292529020541161130a5760405162461bcd60e51b81526020600482015260146024820152734e6f2077696e6e696e677320746f20636c61696d60601b60448201526064016103d0565b6000611316828461155e565b9050816001015481146113625760405162461bcd60e51b81526020600482015260146024820152734e6f74207468652077696e6e696e67206d656d6560601b60448201526064016103d0565b600081815260068301602090815260408083206001600160a01b038916845290915290206001015460ff16156113d35760405162461bcd60e51b815260206004820152601660248201527514995dd85c9908185b1c9958591e4818db185a5b595960521b60448201526064016103d0565b60006005856040516113e59190611dca565b9081526040805191829003602090810183206001600160a01b038a1660008181529183528382205487835260068901845284832091835292529182206001908101805460ff19169091179055925090600590611442908890611dca565b9081526040805191829003602090810183206001600160a01b038b166000818152919092529182209390935583156108fc02918491818181858888f19350505050158015611494573d6000803e3d6000fd5b50856001600160a01b03167f6e5596fe4f25c687a26b2421b8816d678eb3615ab1a5a91fb9cb43ed8b92751d86836040516114d09291906120be565b60405180910390a250505050505050565b6000546001600160a01b03163314610a365760405163118cdaa760e01b81523360048201526024016103d0565b600080546001600160a01b038381166001600160a01b0319831681178455604051919092169283917f8be0079c531659141344cd1fd0a4f28419497f9722a3daafe3b4186f6b6457e09190a35050565b600060015b8354811161158b57828103611579579050610a72565b8061158381611eba565b915050611563565b5060009392505050565b8280548282559060005260206000209081019282156115db579160200282015b828111156115db57825182906115cb9082611f7f565b50916020019190600101906115b5565b506115e79291506115eb565b5090565b808211156115e75760006115ff8282611608565b506001016115eb565b50805461161490611ef9565b6000825580601f10611624575050565b601f016020900490600052602060002090810190610cdc91905b808211156115e7576000815560010161163e565b634e487b7160e01b600052604160045260246000fd5b60405161014081016001600160401b038111828210171561168b5761168b611652565b60405290565b604051601f8201601f191681016001600160401b03811182821017156116b9576116b9611652565b604052919050565b60006001600160401b038211156116da576116da611652565b50601f01601f191660200190565b600082601f8301126116f957600080fd5b813561170c611707826116c1565b611691565b81815284602083860101111561172157600080fd5b816020850160208301376000918101602001919091529392505050565b6001600160a01b0381168114610cdc57600080fd5b6000806040838503121561176657600080fd5b82356001600160401b0381111561177c57600080fd5b611788858286016116e8565b92505060208301356117998161173e565b809150509250929050565b6001600160401b0381168114610cdc57600080fd5b60008083601f8401126117cb57600080fd5b5081356001600160401b038111156117e257600080fd5b6020830191508360208285010111156117fa57600080fd5b9250929050565b60008060008060006080868803121561181957600080fd5b85356118248161173e565b94506020860135611834816117a4565b93506040860135611844816117a4565b925060608601356001600160401b0381111561185f57600080fd5b61186b888289016117b9565b969995985093965092949392505050565b600080600080600080600060c0888a03121561189757600080fd5b87356118a28161173e565b965060208801356118b2816117a4565b955060408801356118c2816117a4565b945060608801356118d28161173e565b93506080880135925060a08801356001600160401b038111156118f457600080fd5b6119008a828b016117b9565b989b979a50959850939692959293505050565b6000806040838503121561192657600080fd5b82356001600160401b0381111561193c57600080fd5b611948858286016116e8565b95602094909401359450505050565b60006020828403121561196957600080fd5b81356001600160401b0381111561197f57600080fd5b61198b848285016116e8565b949350505050565b60006001600160401b038211156119ac576119ac611652565b5060051b60200190565b6000806000606084860312156119cb57600080fd5b83356001600160401b038111156119e157600080fd5b6119ed868287016116e8565b93505060208401356001600160401b03811115611a0957600080fd5b8401601f81018613611a1a57600080fd5b8035611a2861170782611993565b8082825260208201915060208360051b850101925088831115611a4a57600080fd5b602084015b83811015611a8b5780356001600160401b03811115611a6d57600080fd5b611a7c8b6020838901016116e8565b84525060209283019201611a4f565b50959895975050505060409390930135925050565b600060208284031215611ab257600080fd5b8135611abd8161173e565b9392505050565b8051611acf816117a4565b919050565b8051611acf8161173e565b805160048110611acf57600080fd5b80518015158114611acf57600080fd5b60005b83811015611b19578181015183820152602001611b01565b50506000910152565b600082601f830112611b3357600080fd5b8151602083016000611b47611707846116c1565b9050828152858383011115611b5b57600080fd5b611b69836020830184611afe565b95945050505050565b600082601f830112611b8357600080fd5b8151611b9161170782611993565b8082825260208201915060208360051b860101925085831115611bb357600080fd5b602085015b83811015611bf45780516001600160401b03811115611bd657600080fd5b611be5886020838a0101611b22565b84525060209283019201611bb8565b5095945050505050565b600060208284031215611c1057600080fd5b81516001600160401b03811115611c2657600080fd5b82016101408185031215611c3957600080fd5b611c41611668565b611c4a82611ac4565b8152611c5860208301611ac4565b6020820152611c6960408301611ac4565b6040820152611c7a60608301611ac4565b6060820152611c8b60808301611ad4565b6080820152611c9c60a08301611ac4565b60a0820152611cad60c08301611adf565b60c0820152611cbe60e08301611aee565b60e08201526101008201516001600160401b03811115611cdd57600080fd5b611ce986828501611b72565b610100830152506101208201516001600160401b03811115611d0a57600080fd5b611d1686828501611b22565b61012083015250949350505050565b600080600080600080600060e0888a031215611d4057600080fd5b8751611d4b8161173e565b60208901519097506001600160401b03811115611d6757600080fd5b611d738a828b01611b22565b60408a015160608b015160808c015160a08d015160c08e0151949b509299509097509550935090506001600160401b03811115611daf57600080fd5b611dbb8a828b01611b22565b91505092959891949750929550565b60008251611ddc818460208701611afe565b9190910192915050565b634e487b7160e01b600052603260045260246000fd5b634e487b7160e01b600052601160045260246000fd5b8082028115828204841417610a7257610a72611dfc565b600082611e4657634e487b7160e01b600052601260045260246000fd5b500490565b60008151808452611e63816020860160208601611afe565b601f01601f19169290920160200192915050565b604081526000611e8a6040830185611e4b565b905060018060a01b03831660208301529392505050565b600060208284031215611eb357600080fd5b5051919050565b600060018201611ecc57611ecc611dfc565b5060010190565b602081526000611abd6020830184611e4b565b80820180821115610a7257610a72611dfc565b600181811c90821680611f0d57607f821691505b602082108103611f2d57634e487b7160e01b600052602260045260246000fd5b50919050565b601f821115611f7a57806000526020600020601f840160051c81016020851015611f5a5750805b601f840160051c820191505b818110156104f15760008155600101611f66565b505050565b81516001600160401b03811115611f9857611f98611652565b611fac81611fa68454611ef9565b84611f33565b6020601f821160018114611fe05760008315611fc85750848201515b600019600385901b1c1916600184901b1784556104f1565b600084815260208120601f198516915b828110156120105787850151825560209485019460019092019101611ff0565b508482101561202e5786840151600019600387901b60f8161c191681555b50505050600190811b01905550565b6080815260006120506080830187611e4b565b828103602084015280865180835260208301915060208160051b8401016020890160005b838110156120a657601f19868403018552612090838351611e4b565b6020958601959093509190910190600101612074565b50506040860197909752505050506060015292915050565b6040815260006120d16040830185611e4b565b90508260208301529392505050565b6060815260006120f36060830186611e4b565b6001600160a01b039490941660208301525060400152919050565b81810381811115610a7257610a72611dfc56fea26469706673582212202123eb9651893210a3048df835cb68fe10fd144f2ea98bff8d5d5efb47967fb164736f6c634300081a0033","linkReferences":{}},"methodIdentifiers":{"battles(string)":"77bb7b78","createBattle(string,string[],uint256)":"be7cb2a6","declareWinner(string,uint256)":"6b35c67c","didReceiveAttestation(address,uint64,uint64,address,uint256,bytes)":"4466507a","didReceiveAttestation(address,uint64,uint64,bytes)":"3398b4ed","didReceiveRevocation(address,uint64,uint64,address,uint256,bytes)":"e830b5c7","didReceiveRevocation(address,uint64,uint64,bytes)":"e33361f4","getWinnings(string,address)":"b308edef","owner()":"8da5cb5b","renounceOwnership()":"715018a6","transferOwnership(address)":"f2fde38b","userContract()":"5000596b","winnings(string,address)":"21cfa9da"},"id":30}