{"abi":[{"type":"constructor","inputs":[{"name":"_memeNames","type":"string[]","internalType":"string[]"},{"name":"_userContractAddress","type":"address","internalType":"address"}],"stateMutability":"nonpayable"},{"type":"receive","stateMutability":"payable"},{"type":"function","name":"battleEnded","inputs":[],"outputs":[{"name":"","type":"bool","internalType":"bool"}],"stateMutability":"view"},{"type":"function","name":"bets","inputs":[{"name":"","type":"uint256","internalType":"uint256"},{"name":"","type":"address","internalType":"address"}],"outputs":[{"name":"amount","type":"uint256","internalType":"uint256"},{"name":"claimed","type":"bool","internalType":"bool"}],"stateMutability":"view"},{"type":"function","name":"betters","inputs":[{"name":"","type":"uint256","internalType":"uint256"},{"name":"","type":"uint256","internalType":"uint256"}],"outputs":[{"name":"","type":"address","internalType":"address"}],"stateMutability":"view"},{"type":"function","name":"didReceiveAttestation","inputs":[{"name":"attester","type":"address","internalType":"address"},{"name":"","type":"uint64","internalType":"uint64"},{"name":"attestationId","type":"uint64","internalType":"uint64"},{"name":"","type":"bytes","internalType":"bytes"}],"outputs":[],"stateMutability":"payable"},{"type":"function","name":"didReceiveAttestation","inputs":[{"name":"","type":"address","internalType":"address"},{"name":"","type":"uint64","internalType":"uint64"},{"name":"","type":"uint64","internalType":"uint64"},{"name":"","type":"address","internalType":"contract IERC20"},{"name":"","type":"uint256","internalType":"uint256"},{"name":"","type":"bytes","internalType":"bytes"}],"outputs":[],"stateMutability":"pure"},{"type":"function","name":"didReceiveRevocation","inputs":[{"name":"","type":"address","internalType":"address"},{"name":"","type":"uint64","internalType":"uint64"},{"name":"","type":"uint64","internalType":"uint64"},{"name":"","type":"bytes","internalType":"bytes"}],"outputs":[],"stateMutability":"payable"},{"type":"function","name":"didReceiveRevocation","inputs":[{"name":"","type":"address","internalType":"address"},{"name":"","type":"uint64","internalType":"uint64"},{"name":"","type":"uint64","internalType":"uint64"},{"name":"","type":"address","internalType":"contract IERC20"},{"name":"","type":"uint256","internalType":"uint256"},{"name":"","type":"bytes","internalType":"bytes"}],"outputs":[],"stateMutability":"pure"},{"type":"function","name":"getUserScore","inputs":[{"name":"user","type":"address","internalType":"address"}],"outputs":[{"name":"","type":"uint256","internalType":"uint256"}],"stateMutability":"view"},{"type":"function","name":"getUserStats","inputs":[{"name":"user","type":"address","internalType":"address"}],"outputs":[{"name":"","type":"tuple","internalType":"struct User.UserStats","components":[{"name":"numberOfBets","type":"uint256","internalType":"uint256"},{"name":"totalAmountBet","type":"uint256","internalType":"uint256"},{"name":"totalWins","type":"uint256","internalType":"uint256"},{"name":"totalLosses","type":"uint256","internalType":"uint256"},{"name":"score","type":"uint256","internalType":"uint256"}]}],"stateMutability":"view"},{"type":"function","name":"memeCount","inputs":[],"outputs":[{"name":"","type":"uint256","internalType":"uint256"}],"stateMutability":"view"},{"type":"function","name":"memes","inputs":[{"name":"","type":"uint256","internalType":"uint256"}],"outputs":[{"name":"name","type":"string","internalType":"string"},{"name":"totalStaked","type":"uint256","internalType":"uint256"}],"stateMutability":"view"},{"type":"function","name":"owner","inputs":[],"outputs":[{"name":"","type":"address","internalType":"address"}],"stateMutability":"view"},{"type":"function","name":"renounceOwnership","inputs":[],"outputs":[],"stateMutability":"nonpayable"},{"type":"function","name":"transferOwnership","inputs":[{"name":"newOwner","type":"address","internalType":"address"}],"outputs":[],"stateMutability":"nonpayable"},{"type":"function","name":"userContract","inputs":[],"outputs":[{"name":"","type":"address","internalType":"contract User"}],"stateMutability":"view"},{"type":"function","name":"winningMemeId","inputs":[],"outputs":[{"name":"","type":"uint256","internalType":"uint256"}],"stateMutability":"view"},{"type":"function","name":"winnings","inputs":[{"name":"","type":"address","internalType":"address"}],"outputs":[{"name":"","type":"uint256","internalType":"uint256"}],"stateMutability":"view"},{"type":"event","name":"BetPlaced","inputs":[{"name":"user","type":"address","indexed":true,"internalType":"address"},{"name":"memeId","type":"uint256","indexed":true,"internalType":"uint256"},{"name":"amount","type":"uint256","indexed":false,"internalType":"uint256"}],"anonymous":false},{"type":"event","name":"OwnershipTransferred","inputs":[{"name":"previousOwner","type":"address","indexed":true,"internalType":"address"},{"name":"newOwner","type":"address","indexed":true,"internalType":"address"}],"anonymous":false},{"type":"event","name":"RewardClaimed","inputs":[{"name":"user","type":"address","indexed":true,"internalType":"address"},{"name":"reward","type":"uint256","indexed":false,"internalType":"uint256"}],"anonymous":false},{"type":"event","name":"UserScoreUpdated","inputs":[{"name":"user","type":"address","indexed":true,"internalType":"address"},{"name":"oldScore","type":"uint256","indexed":false,"internalType":"uint256"},{"name":"newScore","type":"uint256","indexed":false,"internalType":"uint256"}],"anonymous":false},{"type":"event","name":"WinnerDeclared","inputs":[{"name":"memeId","type":"uint256","indexed":true,"internalType":"uint256"}],"anonymous":false},{"type":"error","name":"OwnableInvalidOwner","inputs":[{"name":"owner","type":"address","internalType":"address"}]},{"type":"error","name":"OwnableUnauthorizedAccount","inputs":[{"name":"account","type":"address","internalType":"address"}]},{"type":"error","name":"ReentrancyGuardReentrantCall","inputs":[]}],"bytecode":{"object":"0x608060405234801561001057600080fd5b50604051611ba4380380611ba483398101604081905261002f916101dd565b338061005557604051631e4fbdf760e01b81526000600482015260240160405180910390fd5b61005e8161012b565b506001805560028054734e4af2a21ebf62850fd99eb6253e1efbb56098cd6001600160a01b031991821617909155600380549091166001600160a01b03831617905560005b825181101561012357600980549060006100bc83610337565b919050555060405180604001604052808483815181106100de576100de61035e565b60209081029190910181015182526000918101829052600954825260049052604090208151819061010f90826103fd565b5060209190910151600191820155016100a3565b5050506104bb565b600080546001600160a01b038381166001600160a01b0319831681178455604051919092169283917f8be0079c531659141344cd1fd0a4f28419497f9722a3daafe3b4186f6b6457e09190a35050565b634e487b7160e01b600052604160045260246000fd5b604051601f8201601f191681016001600160401b03811182821017156101b9576101b961017b565b604052919050565b80516001600160a01b03811681146101d857600080fd5b919050565b600080604083850312156101f057600080fd5b82516001600160401b0381111561020657600080fd5b8301601f8101851361021757600080fd5b80516001600160401b038111156102305761023061017b565b8060051b61024060208201610191565b9182526020818401810192908101908884111561025c57600080fd5b6020850192505b8383101561031a5782516001600160401b0381111561028157600080fd5b8501603f81018a1361029257600080fd5b60208101516001600160401b038111156102ae576102ae61017b565b6102c1601f8201601f1916602001610191565b8181526040838301018c10156102d657600080fd5b60005b828110156102f957808401604001516020838301810191909152016102d9565b50600060208383010152808552505050602082019150602083019250610263565b809650505050505061032e602084016101c1565b90509250929050565b60006001820161035757634e487b7160e01b600052601160045260246000fd5b5060010190565b634e487b7160e01b600052603260045260246000fd5b600181811c9082168061038857607f821691505b6020821081036103a857634e487b7160e01b600052602260045260246000fd5b50919050565b601f8211156103f857806000526020600020601f840160051c810160208510156103d55750805b601f840160051c820191505b818110156103f557600081556001016103e1565b50505b505050565b81516001600160401b038111156104165761041661017b565b61042a816104248454610374565b846103ae565b6020601f82116001811461045e57600083156104465750848201515b600019600385901b1c1916600184901b1784556103f5565b600084815260208120601f198516915b8281101561048e578785015182556020948501946001909201910161046e565b50848210156104ac5786840151600019600387901b60f8161c191681555b50505050600190811b01905550565b6116da806104ca6000396000f3fe6080604052600436106101025760003560e01c8063715018a611610095578063e33361f411610064578063e33361f4146102e7578063e830b5c7146101b8578063ea3a1499146102fa578063f2fde38b14610327578063f644b3bb1461034757600080fd5b8063715018a61461027e5780637b2124d2146102935780638da5cb5b146102a9578063b34e0c47146102c757600080fd5b80634466507a116100d15780634466507a146101b85780634e43603a146101d85780635000596b1461023a5780635378c9061461025a57600080fd5b80631d72dc4e1461010e5780633398b4ed1461014b578063388f6064146101605780633f52cee61461018e57600080fd5b3661010957005b600080fd5b34801561011a57600080fd5b5061012e610129366004610f8f565b61039e565b6040516001600160a01b0390911681526020015b60405180910390f35b61015e610159366004611023565b6103d6565b005b34801561016c57600080fd5b5061018061017b36600461109e565b6105f4565b6040516101429291906110db565b34801561019a57600080fd5b506008546101a89060ff1681565b6040519015158152602001610142565b3480156101c457600080fd5b5061015e6101d3366004611116565b610698565b3480156101e457600080fd5b506101f86101f33660046111ad565b6106e0565b6040516101429190600060a082019050825182526020830151602083015260408301516040830152606083015160608301526080830151608083015292915050565b34801561024657600080fd5b5060035461012e906001600160a01b031681565b34801561026657600080fd5b5061027060075481565b604051908152602001610142565b34801561028a57600080fd5b5061015e610786565b34801561029f57600080fd5b5061027060095481565b3480156102b557600080fd5b506000546001600160a01b031661012e565b3480156102d357600080fd5b506102706102e23660046111ad565b61079a565b61015e6102f5366004611023565b610809565b34801561030657600080fd5b506102706103153660046111ad565b600a6020526000908152604090205481565b34801561033357600080fd5b5061015e6103423660046111ad565b610851565b34801561035357600080fd5b506103896103623660046111d1565b60056020908152600092835260408084209091529082529020805460019091015460ff1682565b60408051928352901515602083015201610142565b600660205281600052604060002081815481106103ba57600080fd5b6000918252602090912001546001600160a01b03169150829050565b6103de61088f565b60025460405162c44a5160e71b81526001600160401b03851660048201526000916001600160a01b031690636225288090602401600060405180830381865afa15801561042f573d6000803e3d6000fd5b505050506040513d6000823e601f3d908101601f1916820160405261045791908101906113c2565b9050600080600080600080600087610120015180602001905181019061047d91906114e9565b9650965096509650965096509650843410156104d75760405162461bcd60e51b8152602060048201526014602482015273125b9cdd59999a58da595b9d081c185e5b595b9d60621b60448201526064015b60405180910390fd5b604051671554d15497d0915560c21b602082015260280160405160208183030381529060405280519060200120816040516020016105159190611586565b60405160208183030381529060405280519060200120036105425761053d8d888888886108b9565b6105dc565b60405164434c41494d60d81b6020820152602501604051602081830303815290604052805190602001208160405160200161057d9190611586565b60405160208183030381529060405280519060200120036105a35761053d8d8888610d35565b60405162461bcd60e51b815260206004820152600e60248201526d24b73b30b634b21030b1ba34b7b760911b60448201526064016104ce565b50505050505050506105ed60018055565b5050505050565b60046020526000908152604090208054819061060f906115a2565b80601f016020809104026020016040519081016040528092919081815260200182805461063b906115a2565b80156106885780601f1061065d57610100808354040283529160200191610688565b820191906000526020600020905b81548152906001019060200180831161066b57829003601f168201915b5050505050908060010154905082565b60405162461bcd60e51b815260206004820152601a60248201527f455243323020746f6b656e73206e6f7420737570706f7274656400000000000060448201526064016104ce565b6107126040518060a0016040528060008152602001600081526020016000815260200160008152602001600081525090565b600354604051632721b01d60e11b81526001600160a01b03848116600483015290911690634e43603a9060240160a060405180830381865afa15801561075c573d6000803e3d6000fd5b505050506040513d601f19601f8201168201806040525081019061078091906115dc565b92915050565b61078e610f12565b6107986000610f3f565b565b60035460405163b34e0c4760e01b81526001600160a01b038381166004830152600092169063b34e0c4790602401602060405180830381865afa1580156107e5573d6000803e3d6000fd5b505050506040513d601f19601f82011682018060405250810190610780919061164f565b60405162461bcd60e51b815260206004820152601a60248201527f426574207265766f636174696f6e206e6f7420616c6c6f77656400000000000060448201526064016104ce565b610859610f12565b6001600160a01b03811661088357604051631e4fbdf760e01b8152600060048201526024016104ce565b61088c81610f3f565b50565b6002600154036108b257604051633ee5aeb560e01b815260040160405180910390fd5b6002600155565b836001600160a01b0316856001600160a01b03161461091a5760405162461bcd60e51b815260206004820152601960248201527f4174746573746572206d7573742062652074686520757365720000000000000060448201526064016104ce565b60085460ff16156109605760405162461bcd60e51b815260206004820152601060248201526f10985d1d1b19481a185cc8195b99195960821b60448201526064016104ce565b60095483111580156109725750600083115b6109b05760405162461bcd60e51b815260206004820152600f60248201526e125b9d985b1a59081b595b59481251608a1b60448201526064016104ce565b60008211610a0a5760405162461bcd60e51b815260206004820152602160248201527f42657420616d6f756e74206d7573742062652067726561746572207468616e206044820152600360fc1b60648201526084016104ce565b60008381526005602090815260408083206001600160a01b038816845290915290205415610a845760405162461bcd60e51b815260206004820152602160248201527f557365722068617320616c726561647920626574206f6e2074686973206d656d6044820152606560f81b60648201526084016104ce565b60008381526005602090815260408083206001600160a01b038816845290915281208054849290610ab690849061167e565b909155505060008381526006602090815260408083208054600180820183559185528385200180546001600160a01b0319166001600160a01b038a1617905586845260049092528220018054849290610b1090849061167e565b909155505060405182815283906001600160a01b038616907e1ecf1d0c4d22f324b3ecb9cdf0e5f772bc74ac104e6626f4b3845433d031059060200160405180910390a360035460405163b34e0c4760e01b81526001600160a01b038681166004830152600092169063b34e0c4790602401602060405180830381865afa158015610b9f573d6000803e3d6000fd5b505050506040513d601f19601f82011682018060405250810190610bc3919061164f565b600354604051633b253f5f60e01b81526001600160a01b03888116600483015260248201879052929350911690633b253f5f90604401600060405180830381600087803b158015610c1357600080fd5b505af1158015610c27573d6000803e3d6000fd5b505060035460405163b34e0c4760e01b81526001600160a01b03898116600483015260009450909116915063b34e0c4790602401602060405180830381865afa158015610c78573d6000803e3d6000fd5b505050506040513d601f19601f82011682018060405250810190610c9c919061164f565b60408051848152602081018390529192506001600160a01b038816917f6b1c32e994893b1cd55314ec36319f13af990a8d79b4db09f57714aa6ef4f26b910160405180910390a283341115610d2c576001600160a01b0386166108fc610d028634611691565b6040518115909202916000818181858888f19350505050158015610d2a573d6000803e3d6000fd5b505b50505050505050565b60085460ff16610d875760405162461bcd60e51b815260206004820152601860248201527f426174746c6520686173206e6f7420656e64656420796574000000000000000060448201526064016104ce565b6001600160a01b0382166000908152600a6020526040902054610de35760405162461bcd60e51b81526020600482015260146024820152734e6f2077696e6e696e677320746f20636c61696d60601b60448201526064016104ce565b60075460009081526005602090815260408083206001600160a01b038616845290915290206001015460ff1615610e555760405162461bcd60e51b815260206004820152601660248201527514995dd85c9908185b1c9958591e4818db185a5b595960521b60448201526064016104ce565b6001600160a01b0382166000818152600a60208181526040808420805460075486526005845282862087875284528286206001908101805460ff1916909117905593909252908390555190929183156108fc02918491818181858888f19350505050158015610ec8573d6000803e3d6000fd5b50826001600160a01b03167f106f923f993c2149d49b4255ff723acafa1f2d94393f561d3eda32ae348f724182604051610f0491815260200190565b60405180910390a250505050565b6000546001600160a01b031633146107985760405163118cdaa760e01b81523360048201526024016104ce565b600080546001600160a01b038381166001600160a01b0319831681178455604051919092169283917f8be0079c531659141344cd1fd0a4f28419497f9722a3daafe3b4186f6b6457e09190a35050565b60008060408385031215610fa257600080fd5b50508035926020909101359150565b6001600160a01b038116811461088c57600080fd5b6001600160401b038116811461088c57600080fd5b60008083601f840112610fed57600080fd5b5081356001600160401b0381111561100457600080fd5b60208301915083602082850101111561101c57600080fd5b9250929050565b60008060008060006080868803121561103b57600080fd5b853561104681610fb1565b9450602086013561105681610fc6565b9350604086013561106681610fc6565b925060608601356001600160401b0381111561108157600080fd5b61108d88828901610fdb565b969995985093965092949392505050565b6000602082840312156110b057600080fd5b5035919050565b60005b838110156110d25781810151838201526020016110ba565b50506000910152565b60408152600083518060408401526110fa8160608501602088016110b7565b602083019390935250601f91909101601f191601606001919050565b600080600080600080600060c0888a03121561113157600080fd5b873561113c81610fb1565b9650602088013561114c81610fc6565b9550604088013561115c81610fc6565b9450606088013561116c81610fb1565b93506080880135925060a08801356001600160401b0381111561118e57600080fd5b61119a8a828b01610fdb565b989b979a50959850939692959293505050565b6000602082840312156111bf57600080fd5b81356111ca81610fb1565b9392505050565b600080604083850312156111e457600080fd5b8235915060208301356111f681610fb1565b809150509250929050565b634e487b7160e01b600052604160045260246000fd5b60405161014081016001600160401b038111828210171561123a5761123a611201565b60405290565b604051601f8201601f191681016001600160401b038111828210171561126857611268611201565b604052919050565b805161127b81610fc6565b919050565b805161127b81610fb1565b80516004811061127b57600080fd5b8051801515811461127b57600080fd5b6000806001600160401b038411156112c4576112c4611201565b50601f8301601f19166020016112d981611240565b9150508281528383830111156112ee57600080fd5b6111ca8360208301846110b7565b600082601f83011261130d57600080fd5b6111ca838351602085016112aa565b600082601f83011261132d57600080fd5b81516001600160401b0381111561134657611346611201565b8060051b61135660208201611240565b9182526020818501810192908101908684111561137257600080fd5b6020860192505b838310156113b85782516001600160401b0381111561139757600080fd5b6113a6886020838a01016112fc565b83525060209283019290910190611379565b9695505050505050565b6000602082840312156113d457600080fd5b81516001600160401b038111156113ea57600080fd5b820161014081850312156113fd57600080fd5b611405611217565b61140e82611270565b815261141c60208301611270565b602082015261142d60408301611270565b604082015261143e60608301611270565b606082015261144f60808301611280565b608082015261146060a08301611270565b60a082015261147160c0830161128b565b60c082015261148260e0830161129a565b60e08201526101008201516001600160401b038111156114a157600080fd5b6114ad8682850161131c565b610100830152506101208201516001600160401b038111156114ce57600080fd5b6114da868285016112fc565b61012083015250949350505050565b600080600080600080600060e0888a03121561150457600080fd5b875161150f81610fb1565b602089015160408a015160608b0151929950909750955093506115346080890161129a565b60a089015160c08a015191945092506001600160401b0381111561155757600080fd5b8801601f81018a1361156857600080fd5b6115778a8251602084016112aa565b91505092959891949750929550565b600082516115988184602087016110b7565b9190910192915050565b600181811c908216806115b657607f821691505b6020821081036115d657634e487b7160e01b600052602260045260246000fd5b50919050565b600060a08284031280156115ef57600080fd5b5060405160009060a081016001600160401b038111828210171561161557611615611201565b6040908152845182526020808601519083015284810151908201526060808501519082015260809384015193810193909352509092915050565b60006020828403121561166157600080fd5b5051919050565b634e487b7160e01b600052601160045260246000fd5b8082018082111561078057610780611668565b818103818111156107805761078061166856fea2646970667358221220edb36a23f7e5c55a8adf84cc071f5a0d8f45116bdf1fbdc34a179170d0fecba364736f6c634300081a0033","linkReferences":{}},"methodIdentifiers":{"battleEnded()":"3f52cee6","bets(uint256,address)":"f644b3bb","betters(uint256,uint256)":"1d72dc4e","didReceiveAttestation(address,uint64,uint64,address,uint256,bytes)":"4466507a","didReceiveAttestation(address,uint64,uint64,bytes)":"3398b4ed","didReceiveRevocation(address,uint64,uint64,address,uint256,bytes)":"e830b5c7","didReceiveRevocation(address,uint64,uint64,bytes)":"e33361f4","getUserScore(address)":"b34e0c47","getUserStats(address)":"4e43603a","memeCount()":"7b2124d2","memes(uint256)":"388f6064","owner()":"8da5cb5b","renounceOwnership()":"715018a6","transferOwnership(address)":"f2fde38b","userContract()":"5000596b","winningMemeId()":"5378c906","winnings(address)":"ea3a1499"},"id":34}