{"abi":[{"type":"constructor","inputs":[{"name":"_memeNames","type":"string[]","internalType":"string[]"},{"name":"_memeTokenAddresses","type":"address[]","internalType":"address[]"},{"name":"_creator","type":"address","internalType":"address"}],"stateMutability":"nonpayable"},{"type":"receive","stateMutability":"payable"},{"type":"function","name":"battleEnded","inputs":[],"outputs":[{"name":"","type":"bool","internalType":"bool"}],"stateMutability":"view"},{"type":"function","name":"creator","inputs":[],"outputs":[{"name":"","type":"address","internalType":"address"}],"stateMutability":"view"},{"type":"function","name":"didReceiveAttestation","inputs":[{"name":"attester","type":"address","internalType":"address"},{"name":"schemaId","type":"uint64","internalType":"uint64"},{"name":"attestationId","type":"uint64","internalType":"uint64"},{"name":"extraData","type":"bytes","internalType":"bytes"}],"outputs":[],"stateMutability":"payable"},{"type":"function","name":"didReceiveAttestation","inputs":[{"name":"attester","type":"address","internalType":"address"},{"name":"schemaId","type":"uint64","internalType":"uint64"},{"name":"attestationId","type":"uint64","internalType":"uint64"},{"name":"resolverFeeERC20Token","type":"address","internalType":"contract IERC20"},{"name":"resolverFeeERC20Amount","type":"uint256","internalType":"uint256"},{"name":"extraData","type":"bytes","internalType":"bytes"}],"outputs":[],"stateMutability":"nonpayable"},{"type":"function","name":"didReceiveRevocation","inputs":[{"name":"attester","type":"address","internalType":"address"},{"name":"schemaId","type":"uint64","internalType":"uint64"},{"name":"attestationId","type":"uint64","internalType":"uint64"},{"name":"extraData","type":"bytes","internalType":"bytes"}],"outputs":[],"stateMutability":"payable"},{"type":"function","name":"didReceiveRevocation","inputs":[{"name":"attester","type":"address","internalType":"address"},{"name":"schemaId","type":"uint64","internalType":"uint64"},{"name":"attestationId","type":"uint64","internalType":"uint64"},{"name":"resolverFeeERC20Token","type":"address","internalType":"contract IERC20"},{"name":"resolverFeeERC20Amount","type":"uint256","internalType":"uint256"},{"name":"extraData","type":"bytes","internalType":"bytes"}],"outputs":[],"stateMutability":"nonpayable"},{"type":"function","name":"endBattle","inputs":[{"name":"_winningMemeToken","type":"address","internalType":"address"}],"outputs":[],"stateMutability":"nonpayable"},{"type":"function","name":"memeNames","inputs":[{"name":"","type":"uint256","internalType":"uint256"}],"outputs":[{"name":"","type":"string","internalType":"string"}],"stateMutability":"view"},{"type":"function","name":"memeTokenAddresses","inputs":[{"name":"","type":"uint256","internalType":"uint256"}],"outputs":[{"name":"","type":"address","internalType":"address"}],"stateMutability":"view"},{"type":"function","name":"sendMessage","inputs":[{"name":"message","type":"string","internalType":"string"}],"outputs":[],"stateMutability":"nonpayable"},{"type":"function","name":"stakers","inputs":[{"name":"","type":"address","internalType":"address"},{"name":"","type":"address","internalType":"address"}],"outputs":[{"name":"amount","type":"uint256","internalType":"uint256"},{"name":"hasStaked","type":"bool","internalType":"bool"}],"stateMutability":"view"},{"type":"function","name":"totalStakedPerMeme","inputs":[{"name":"","type":"address","internalType":"address"}],"outputs":[{"name":"","type":"uint256","internalType":"uint256"}],"stateMutability":"view"},{"type":"function","name":"unstake","inputs":[{"name":"memeToken","type":"address","internalType":"address"}],"outputs":[],"stateMutability":"nonpayable"},{"type":"function","name":"winningMemeToken","inputs":[],"outputs":[{"name":"","type":"address","internalType":"address"}],"stateMutability":"view"},{"type":"event","name":"MemeBattleEnded","inputs":[{"name":"winningMemeToken","type":"address","indexed":true,"internalType":"address"}],"anonymous":false},{"type":"event","name":"MessageSent","inputs":[{"name":"user","type":"address","indexed":true,"internalType":"address"},{"name":"message","type":"string","indexed":false,"internalType":"string"}],"anonymous":false},{"type":"event","name":"RewardDistributed","inputs":[{"name":"user","type":"address","indexed":true,"internalType":"address"},{"name":"memeToken","type":"address","indexed":true,"internalType":"address"},{"name":"reward","type":"uint256","indexed":false,"internalType":"uint256"}],"anonymous":false},{"type":"event","name":"Staked","inputs":[{"name":"user","type":"address","indexed":true,"internalType":"address"},{"name":"memeToken","type":"address","indexed":true,"internalType":"address"},{"name":"amount","type":"uint256","indexed":false,"internalType":"uint256"}],"anonymous":false},{"type":"event","name":"Unstaked","inputs":[{"name":"user","type":"address","indexed":true,"internalType":"address"},{"name":"memeToken","type":"address","indexed":true,"internalType":"address"},{"name":"amount","type":"uint256","indexed":false,"internalType":"uint256"}],"anonymous":false}],"bytecode":{"object":"0x608060405234801561001057600080fd5b5060405161198838038061198883398101604081905261002f9161030f565b81518351146100925760405162461bcd60e51b815260206004820152602560248201527f4d656d65206e616d657320616e6420746f6b656e73206c656e677468206d69736044820152640dac2e8c6d60db1b606482015260840160405180910390fd5b82516100a59060009060208601906100ee565b5081516100b9906001906020850190610144565b50600280546001600160a01b0319166001600160a01b039290921691909117905550506005805460ff60a01b191690556105ab565b828054828255906000526020600020908101928215610134579160200282015b82811115610134578251829061012490826104ec565b509160200191906001019061010e565b506101409291506101a5565b5090565b828054828255906000526020600020908101928215610199579160200282015b8281111561019957825182546001600160a01b0319166001600160a01b03909116178255602090920191600190910190610164565b506101409291506101c2565b808211156101405760006101b982826101d7565b506001016101a5565b5b8082111561014057600081556001016101c3565b5080546101e390610461565b6000825580601f106101f3575050565b601f01602090049060005260206000209081019061021191906101c2565b50565b634e487b7160e01b600052604160045260246000fd5b604051601f8201601f191681016001600160401b038111828210171561025257610252610214565b604052919050565b60006001600160401b0382111561027357610273610214565b5060051b60200190565b80516001600160a01b038116811461029457600080fd5b919050565b600082601f8301126102aa57600080fd5b815160206102bf6102ba8361025a565b61022a565b8083825260208201915060208460051b8701019350868411156102e157600080fd5b602086015b84811015610304576102f78161027d565b83529183019183016102e6565b509695505050505050565b60008060006060848603121561032457600080fd5b83516001600160401b038082111561033b57600080fd5b818601915086601f83011261034f57600080fd5b8151602061035f6102ba8361025a565b82815260059290921b8401810191818101908a84111561037e57600080fd5b8286015b848110156104225780518681111561039a5760008081fd5b8701603f81018d136103ac5760008081fd5b84810151878111156103c0576103c0610214565b6103d2601f8201601f1916870161022a565b81815260408f818486010111156103e95760008081fd5b60005b83811015610407578481018201518382018a015288016103ec565b50506000918101870191909152845250918301918301610382565b509189015191975090935050508082111561043c57600080fd5b5061044986828701610299565b9250506104586040850161027d565b90509250925092565b600181811c9082168061047557607f821691505b60208210810361049557634e487b7160e01b600052602260045260246000fd5b50919050565b601f8211156104e7576000816000526020600020601f850160051c810160208610156104c45750805b601f850160051c820191505b818110156104e3578281556001016104d0565b5050505b505050565b81516001600160401b0381111561050557610505610214565b610519816105138454610461565b8461049b565b602080601f83116001811461054e57600084156105365750858301515b600019600386901b1c1916600185901b1785556104e3565b600085815260208120601f198616915b8281101561057d5788860151825594840194600190910190840161055e565b508582101561059b5787850151600019600388901b60f8161c191681555b5050505050600190811b01905550565b6113ce806105ba6000396000f3fe6080604052600436106100e15760003560e01c8063644729a11161007f578063e33361f411610059578063e33361f414610278578063e830b5c71461028d578063e8f50633146102b1578063f2888dbb1461030857600080fd5b8063644729a1146101f0578063b7572ec41461022b578063c4e2b34e1461024b57600080fd5b80633398b4ed116100bb5780633398b4ed1461016c5780633f52cee61461017f5780634466507a146101b0578063469c8110146101d057600080fd5b806302d05d3f146100ed57806313cb5ad61461012a5780632ee027181461014a57600080fd5b366100e857005b600080fd5b3480156100f957600080fd5b5060025461010d906001600160a01b031681565b6040516001600160a01b0390911681526020015b60405180910390f35b34801561013657600080fd5b5061010d610145366004610fc2565b610328565b34801561015657600080fd5b5061016a610165366004610ff0565b610352565b005b61016a61017a36600461107a565b6104bb565b34801561018b57600080fd5b506005546101a090600160a01b900460ff1681565b6040519015158152602001610121565b3480156101bc57600080fd5b5061016a6101cb3660046110f2565b6106d2565b3480156101dc57600080fd5b5061016a6101eb366004611186565b610911565b3480156101fc57600080fd5b5061021d61020b366004610ff0565b60046020526000908152604090205481565b604051908152602001610121565b34801561023757600080fd5b5060055461010d906001600160a01b031681565b34801561025757600080fd5b5061026b610266366004610fc2565b610958565b60405161012191906111c8565b61016a61028636600461107a565b5050505050565b34801561029957600080fd5b5061016a6102a83660046110f2565b50505050505050565b3480156102bd57600080fd5b506102f36102cc366004611217565b60036020908152600092835260408084209091529082529020805460019091015460ff1682565b60408051928352901515602083015201610121565b34801561031457600080fd5b5061016a610323366004610ff0565b610a04565b6001818154811061033857600080fd5b6000918252602090912001546001600160a01b0316905081565b6002546001600160a01b031633146103bd5760405162461bcd60e51b815260206004820152602360248201527f4f6e6c79207468652063726561746f722063616e20656e642074686520626174604482015262746c6560e81b60648201526084015b60405180910390fd5b6103c681610bc8565b6104125760405162461bcd60e51b815260206004820152601a60248201527f496e76616c69642077696e6e696e67206d656d6520746f6b656e00000000000060448201526064016103b4565b600554600160a01b900460ff16156104635760405162461bcd60e51b815260206004820152601460248201527310985d1d1b1948185b1c9958591e48195b99195960621b60448201526064016103b4565b600580546001600160a81b0319166001600160a01b038316908117600160a01b179091556040517f73a3eb719dd7f8906596de2344f14302dea1dc656e0e6f21de39a65a8cdcb75690600090a26104b8610c27565b50565b600554600160a01b900460ff16156105085760405162461bcd60e51b815260206004820152601060248201526f10985d1d1b19481a185cc8195b99195960821b60448201526064016103b4565b600034116105585760405162461bcd60e51b815260206004820152601d60248201527f416d6f756e74206d7573742062652067726561746572207468616e203000000060448201526064016103b4565b60008061056783850185611250565b9150915061057482610bc8565b6105b55760405162461bcd60e51b815260206004820152601260248201527124b73b30b634b21036b2b6b2903a37b5b2b760711b60448201526064016103b4565b803410156105fc5760405162461bcd60e51b8152602060048201526014602482015273125b9cdd59999a58da595b9d081c185e5b595b9d60621b60448201526064016103b4565b6001600160a01b038083166000908152600360209081526040808320938b168352929052908120805490918391839190610637908490611292565b90915550506001818101805460ff191690911790556001600160a01b03831660009081526004602052604081208054849290610674908490611292565b92505081905550826001600160a01b0316886001600160a01b03167f5dac0c1b1112564a045ba943c9d50270893e8e826c49be8e7073adc713ab7bd7846040516106c091815260200190565b60405180910390a35050505050505050565b600554600160a01b900460ff161561071f5760405162461bcd60e51b815260206004820152601060248201526f10985d1d1b19481a185cc8195b99195960821b60448201526064016103b4565b60008061072e83850185611250565b9150915061073b82610bc8565b61077c5760405162461bcd60e51b815260206004820152601260248201527124b73b30b634b21036b2b6b2903a37b5b2b760711b60448201526064016103b4565b6040516323b872dd60e01b81526001600160a01b038a81166004830152306024830152604482018790528716906323b872dd906064016020604051808303816000875af11580156107d1573d6000803e3d6000fd5b505050506040513d601f19601f820116820180604052508101906107f591906112ab565b6108395760405162461bcd60e51b8152602060048201526015602482015274115490cc8c081d1c985b9cd9995c8819985a5b1959605a1b60448201526064016103b4565b6001600160a01b038083166000908152600360209081526040808320938d168352929052908120805490918391839190610874908490611292565b90915550506001818101805460ff191690911790556001600160a01b038316600090815260046020526040812080548492906108b1908490611292565b92505081905550826001600160a01b03168a6001600160a01b03167f5dac0c1b1112564a045ba943c9d50270893e8e826c49be8e7073adc713ab7bd7846040516108fd91815260200190565b60405180910390a350505050505050505050565b336001600160a01b03167f0d7fccda06d6eb51c23cbd16d49b9b3f3ebafb002dba1b074895cbb35d0e8130838360405161094c9291906112cd565b60405180910390a25050565b6000818154811061096857600080fd5b906000526020600020016000915090508054610983906112fc565b80601f01602080910402602001604051908101604052809291908181526020018280546109af906112fc565b80156109fc5780601f106109d1576101008083540402835291602001916109fc565b820191906000526020600020905b8154815290600101906020018083116109df57829003601f168201915b505050505081565b6001600160a01b038116600090815260036020908152604080832033845290915290206001015460ff16610a735760405162461bcd60e51b8152602060048201526016602482015275139bc81cdd185ad959081d1bdad95b9cc8199bdd5b9960521b60448201526064016103b4565b6001600160a01b0381166000908152600360209081526040808320338452909152902054610ae35760405162461bcd60e51b815260206004820152601b60248201527f4e6f207374616b656420746f6b656e7320746f20756e7374616b65000000000060448201526064016103b4565b6001600160a01b0381166000908152600360209081526040808320338085529252808320549051909283156108fc02918491818181858888f19350505050158015610b32573d6000803e3d6000fd5b506001600160a01b03821660009081526004602052604081208054839290610b5b908490611336565b90915550506001600160a01b0382166000818152600360209081526040808320338085529083528184209384556001909301805460ff19169055518481527fd8654fcc8cf5b36d30b3f5e4688fc78118e6d68de60b9994e09902268b57c3e3910160405180910390a35050565b6000805b600154811015610c1e57826001600160a01b031660018281548110610bf357610bf3611349565b6000918252602090912001546001600160a01b031603610c165750600192915050565b600101610bcc565b50600092915050565b6000805b600154811015610cc357600554600180546001600160a01b039092169183908110610c5857610c58611349565b6000918252602090912001546001600160a01b031614610cbb576004600060018381548110610c8957610c89611349565b60009182526020808320909101546001600160a01b03168352820192909252604001902054610cb89083611292565b91505b600101610c2b565b506005546001600160a01b0316600090815260046020526040812054610cea908390611292565b905060005b600154811015610fbd57600554600180546001600160a01b039092169183908110610d1c57610d1c611349565b6000918252602090912001546001600160a01b031603610ea65760005b600154811015610ea05760006003600060018581548110610d5c57610d5c611349565b60009182526020808320909101546001600160a01b0316835282810193909352604091820181203382529092529020541115610e985760006003600060018581548110610dab57610dab611349565b60009182526020808320909101546001600160a01b03908116845283820194909452604092830182203383528152828220546005549094168252600490529081205491925090610dfb868461135f565b610e059190611376565b604051909150339082156108fc029083906000818181858888f19350505050158015610e35573d6000803e3d6000fd5b5060018481548110610e4957610e49611349565b600091825260209182902001546040518381526001600160a01b039091169133917f5303cb8fc2ab504b092b4799d2c00f2209ee4eee6b03a168171dc140ed7403ee910160405180910390a350505b600101610d39565b50610fb5565b600060646004600060018581548110610ec157610ec1611349565b60009182526020808320909101546001600160a01b03168352820192909252604001902054610ef190601461135f565b610efb9190611376565b90506000816004600060018681548110610f1757610f17611349565b60009182526020808320909101546001600160a01b03168352820192909252604001902054610f469190611336565b604051909150309083156108fc029084906000818181858888f19350505050158015610f76573d6000803e3d6000fd5b506005546040516001600160a01b039091169082156108fc029083906000818181858888f19350505050158015610fb1573d6000803e3d6000fd5b5050505b600101610cef565b505050565b600060208284031215610fd457600080fd5b5035919050565b6001600160a01b03811681146104b857600080fd5b60006020828403121561100257600080fd5b813561100d81610fdb565b9392505050565b803567ffffffffffffffff8116811461102c57600080fd5b919050565b60008083601f84011261104357600080fd5b50813567ffffffffffffffff81111561105b57600080fd5b60208301915083602082850101111561107357600080fd5b9250929050565b60008060008060006080868803121561109257600080fd5b853561109d81610fdb565b94506110ab60208701611014565b93506110b960408701611014565b9250606086013567ffffffffffffffff8111156110d557600080fd5b6110e188828901611031565b969995985093965092949392505050565b600080600080600080600060c0888a03121561110d57600080fd5b873561111881610fdb565b965061112660208901611014565b955061113460408901611014565b9450606088013561114481610fdb565b93506080880135925060a088013567ffffffffffffffff81111561116757600080fd5b6111738a828b01611031565b989b979a50959850939692959293505050565b6000806020838503121561119957600080fd5b823567ffffffffffffffff8111156111b057600080fd5b6111bc85828601611031565b90969095509350505050565b60006020808352835180602085015260005b818110156111f6578581018301518582016040015282016111da565b506000604082860101526040601f19601f8301168501019250505092915050565b6000806040838503121561122a57600080fd5b823561123581610fdb565b9150602083013561124581610fdb565b809150509250929050565b6000806040838503121561126357600080fd5b823561126e81610fdb565b946020939093013593505050565b634e487b7160e01b600052601160045260246000fd5b808201808211156112a5576112a561127c565b92915050565b6000602082840312156112bd57600080fd5b8151801515811461100d57600080fd5b60208152816020820152818360408301376000818301604090810191909152601f909201601f19160101919050565b600181811c9082168061131057607f821691505b60208210810361133057634e487b7160e01b600052602260045260246000fd5b50919050565b818103818111156112a5576112a561127c565b634e487b7160e01b600052603260045260246000fd5b80820281158282048414176112a5576112a561127c565b60008261139357634e487b7160e01b600052601260045260246000fd5b50049056fea264697066735822122013e128db5768f21e07d0f0b900dc7c11be237187d55e8914ff86b8718d88179164736f6c63430008190033","linkReferences":{}},"methodIdentifiers":{"battleEnded()":"3f52cee6","creator()":"02d05d3f","didReceiveAttestation(address,uint64,uint64,address,uint256,bytes)":"4466507a","didReceiveAttestation(address,uint64,uint64,bytes)":"3398b4ed","didReceiveRevocation(address,uint64,uint64,address,uint256,bytes)":"e830b5c7","didReceiveRevocation(address,uint64,uint64,bytes)":"e33361f4","endBattle(address)":"2ee02718","memeNames(uint256)":"c4e2b34e","memeTokenAddresses(uint256)":"13cb5ad6","sendMessage(string)":"469c8110","stakers(address,address)":"e8f50633","totalStakedPerMeme(address)":"644729a1","unstake(address)":"f2888dbb","winningMemeToken()":"b7572ec4"},"id":8}