{"abi":[{"type":"constructor","inputs":[{"name":"_userContractAddress","type":"address","internalType":"address"}],"stateMutability":"nonpayable"},{"type":"receive","stateMutability":"payable"},{"type":"function","name":"battles","inputs":[{"name":"","type":"string","internalType":"string"}],"outputs":[{"name":"winningMemeId","type":"uint256","internalType":"uint256"},{"name":"startTime","type":"uint256","internalType":"uint256"},{"name":"deadline","type":"uint256","internalType":"uint256"},{"name":"ended","type":"bool","internalType":"bool"}],"stateMutability":"view"},{"type":"function","name":"createBattle","inputs":[{"name":"battleId","type":"string","internalType":"string"},{"name":"memeNames","type":"string[]","internalType":"string[]"},{"name":"duration","type":"uint256","internalType":"uint256"}],"outputs":[],"stateMutability":"nonpayable"},{"type":"function","name":"declareWinner","inputs":[{"name":"battleId","type":"string","internalType":"string"},{"name":"winningMemeId","type":"uint256","internalType":"uint256"}],"outputs":[],"stateMutability":"nonpayable"},{"type":"function","name":"didReceiveAttestation","inputs":[{"name":"attester","type":"address","internalType":"address"},{"name":"","type":"uint64","internalType":"uint64"},{"name":"attestationId","type":"uint64","internalType":"uint64"},{"name":"","type":"bytes","internalType":"bytes"}],"outputs":[],"stateMutability":"payable"},{"type":"function","name":"didReceiveAttestation","inputs":[{"name":"","type":"address","internalType":"address"},{"name":"","type":"uint64","internalType":"uint64"},{"name":"","type":"uint64","internalType":"uint64"},{"name":"","type":"address","internalType":"contract IERC20"},{"name":"","type":"uint256","internalType":"uint256"},{"name":"","type":"bytes","internalType":"bytes"}],"outputs":[],"stateMutability":"pure"},{"type":"function","name":"didReceiveRevocation","inputs":[{"name":"","type":"address","internalType":"address"},{"name":"","type":"uint64","internalType":"uint64"},{"name":"","type":"uint64","internalType":"uint64"},{"name":"","type":"bytes","internalType":"bytes"}],"outputs":[],"stateMutability":"payable"},{"type":"function","name":"didReceiveRevocation","inputs":[{"name":"","type":"address","internalType":"address"},{"name":"","type":"uint64","internalType":"uint64"},{"name":"","type":"uint64","internalType":"uint64"},{"name":"","type":"address","internalType":"contract IERC20"},{"name":"","type":"uint256","internalType":"uint256"},{"name":"","type":"bytes","internalType":"bytes"}],"outputs":[],"stateMutability":"pure"},{"type":"function","name":"getWinnings","inputs":[{"name":"battleId","type":"string","internalType":"string"},{"name":"user","type":"address","internalType":"address"}],"outputs":[{"name":"","type":"uint256","internalType":"uint256"}],"stateMutability":"view"},{"type":"function","name":"owner","inputs":[],"outputs":[{"name":"","type":"address","internalType":"address"}],"stateMutability":"view"},{"type":"function","name":"renounceOwnership","inputs":[],"outputs":[],"stateMutability":"nonpayable"},{"type":"function","name":"transferOwnership","inputs":[{"name":"newOwner","type":"address","internalType":"address"}],"outputs":[],"stateMutability":"nonpayable"},{"type":"function","name":"userContract","inputs":[],"outputs":[{"name":"","type":"address","internalType":"contract User"}],"stateMutability":"view"},{"type":"function","name":"winnings","inputs":[{"name":"","type":"string","internalType":"string"},{"name":"","type":"address","internalType":"address"}],"outputs":[{"name":"","type":"uint256","internalType":"uint256"}],"stateMutability":"view"},{"type":"event","name":"BattleCreated","inputs":[{"name":"battleId","type":"string","indexed":false,"internalType":"string"},{"name":"memes","type":"string[]","indexed":false,"internalType":"string[]"},{"name":"startTime","type":"uint256","indexed":false,"internalType":"uint256"},{"name":"deadline","type":"uint256","indexed":false,"internalType":"uint256"}],"anonymous":false},{"type":"event","name":"BetPlaced","inputs":[{"name":"battleId","type":"string","indexed":false,"internalType":"string"},{"name":"user","type":"address","indexed":true,"internalType":"address"},{"name":"memeId","type":"uint256","indexed":true,"internalType":"uint256"},{"name":"amount","type":"uint256","indexed":false,"internalType":"uint256"}],"anonymous":false},{"type":"event","name":"OwnershipTransferred","inputs":[{"name":"previousOwner","type":"address","indexed":true,"internalType":"address"},{"name":"newOwner","type":"address","indexed":true,"internalType":"address"}],"anonymous":false},{"type":"event","name":"RewardClaimed","inputs":[{"name":"battleId","type":"string","indexed":false,"internalType":"string"},{"name":"user","type":"address","indexed":true,"internalType":"address"},{"name":"reward","type":"uint256","indexed":false,"internalType":"uint256"}],"anonymous":false},{"type":"event","name":"UserScoreUpdated","inputs":[{"name":"user","type":"address","indexed":true,"internalType":"address"},{"name":"oldScore","type":"uint256","indexed":false,"internalType":"uint256"},{"name":"newScore","type":"uint256","indexed":false,"internalType":"uint256"}],"anonymous":false},{"type":"event","name":"WinnerDeclared","inputs":[{"name":"battleId","type":"string","indexed":false,"internalType":"string"},{"name":"memeId","type":"uint256","indexed":true,"internalType":"uint256"}],"anonymous":false},{"type":"error","name":"OwnableInvalidOwner","inputs":[{"name":"owner","type":"address","internalType":"address"}]},{"type":"error","name":"OwnableUnauthorizedAccount","inputs":[{"name":"account","type":"address","internalType":"address"}]},{"type":"error","name":"ReentrancyGuardReentrantCall","inputs":[]}],"bytecode":{"object":"0x608060405234801561001057600080fd5b5060405161228838038061228883398101604081905261002f916100fa565b338061005557604051631e4fbdf760e01b81526000600482015260240160405180910390fd5b61005e816100aa565b506001805560028054734e4af2a21ebf62850fd99eb6253e1efbb56098cd6001600160a01b031991821617909155600380549091166001600160a01b039290921691909117905561012a565b600080546001600160a01b038381166001600160a01b0319831681178455604051919092169283917f8be0079c531659141344cd1fd0a4f28419497f9722a3daafe3b4186f6b6457e09190a35050565b60006020828403121561010c57600080fd5b81516001600160a01b038116811461012357600080fd5b9392505050565b61214f806101396000396000f3fe6080604052600436106100c65760003560e01c806377bb7b781161007f578063be7cb2a611610059578063be7cb2a614610285578063e33361f4146102a5578063e830b5c714610142578063f2fde38b146102b857600080fd5b806377bb7b78146101cf5780638da5cb5b14610247578063b308edef1461026557600080fd5b806321cfa9da146100d25780633398b4ed1461012d5780634466507a146101425780635000596b146101625780636b35c67c1461019a578063715018a6146101ba57600080fd5b366100cd57005b600080fd5b3480156100de57600080fd5b5061011a6100ed36600461174b565b81516020818401810180516005825292820194820194909420919093529091526000908152604090205481565b6040519081526020015b60405180910390f35b61014061013b3660046117f9565b6102d8565b005b34801561014e57600080fd5b5061014061015d366004611874565b6104f8565b34801561016e57600080fd5b50600354610182906001600160a01b031681565b6040516001600160a01b039091168152602001610124565b3480156101a657600080fd5b506101406101b536600461190b565b610540565b3480156101c657600080fd5b50610140610a24565b3480156101db57600080fd5b506102256101ea36600461194f565b805160208183018101805160048083529383019290940191909120929052600182015460028301546003840154939092015490929060ff1684565b6040805194855260208501939093529183015215156060820152608001610124565b34801561025357600080fd5b506000546001600160a01b0316610182565b34801561027157600080fd5b5061011a61028036600461174b565b610a38565b34801561029157600080fd5b506101406102a03660046119ae565b610a78565b6101406102b33660046117f9565b610c51565b3480156102c457600080fd5b506101406102d3366004611a98565b610c99565b6102e0610cd7565b60025460405162c44a5160e71b81526001600160401b03851660048201526000916001600160a01b031690636225288090602401600060405180830381865afa158015610331573d6000803e3d6000fd5b505050506040513d6000823e601f3d908101601f191682016040526103599190810190611bf6565b9050600080600080600080600087610120015180602001905181019061037f9190611d1d565b9650965096509650965096509650833410156103d95760405162461bcd60e51b8152602060048201526014602482015273125b9cdd59999a58da595b9d081c185e5b595b9d60621b60448201526064015b60405180910390fd5b604051671554d15497d0915560c21b602082015260280160405160208183030381529060405280519060200120816040516020016104179190611dc2565b6040516020818303038152906040528051906020012003610445576104408d8888888888610d01565b6104e0565b60405164434c41494d60d81b602082015260250160405160208183030381529060405280519060200120816040516020016104809190611dc2565b60405160208183030381529060405280519060200120036104a7576104408d88888861120f565b60405162461bcd60e51b815260206004820152600e60248201526d24b73b30b634b21030b1ba34b7b760911b60448201526064016103d0565b50505050505050506104f160018055565b5050505050565b60405162461bcd60e51b815260206004820152601a60248201527f455243323020746f6b656e73206e6f7420737570706f7274656400000000000060448201526064016103d0565b6105486114d9565b600060048360405161055a9190611dc2565b908152604051908190036020019020600481015490915060ff16156105c15760405162461bcd60e51b815260206004820152601860248201527f426174746c652068617320616c726561647920656e646564000000000000000060448201526064016103d0565b80600301544210156106155760405162461bcd60e51b815260206004820152601760248201527f42657474696e6720706572696f64206e6f74206f76657200000000000000000060448201526064016103d0565b805482118015906106265750600082115b6106725760405162461bcd60e51b815260206004820152601760248201527f496e76616c69642077696e6e696e67206d656d6520494400000000000000000060448201526064016103d0565b600180820183905560048201805460ff191682179055600083815260058301602052604081209091015447915b60008581526007850160205260409020548110156108ff57600085815260078501602052604081208054839081106106d9576106d9611dde565b600091825260208083209091015488835260068801825260408084206001600160a01b039092168085529190925290822054909250908461071a8784611e0a565b6107249190611e21565b90508060058a6040516107379190611dc2565b9081526040805191829003602090810183206001600160a01b03808916600090815291909252918220939093556003546302754c1360e51b835290921690634ea982609061078b908d908890600401611e6f565b602060405180830381865afa1580156107a8573d6000803e3d6000fd5b505050506040513d601f19601f820116820180604052508101906107cc9190611e99565b600354604051630a35288760e21b81529192506001600160a01b0316906328d4a21c906107ff908d908890600401611e6f565b600060405180830381600087803b15801561081957600080fd5b505af115801561082d573d6000803e3d6000fd5b50506003546040516302754c1360e51b8152600093506001600160a01b039091169150634ea9826090610866908e908990600401611e6f565b602060405180830381865afa158015610883573d6000803e3d6000fd5b505050506040513d601f19601f820116820180604052508101906108a79190611e99565b60408051848152602081018390529192506001600160a01b038716917f6b1c32e994893b1cd55314ec36319f13af990a8d79b4db09f57714aa6ef4f26b910160405180910390a250506001909301925061069f915050565b5060015b835481116109e4578481146109d25760005b60008281526007860160205260409020548110156109d0576000828152600786016020526040812080548390811061094f5761094f611dde565b6000918252602090912001546003546040516325f7abb960e01b81526001600160a01b0392831693509116906325f7abb990610991908b908590600401611e6f565b600060405180830381600087803b1580156109ab57600080fd5b505af11580156109bf573d6000803e3d6000fd5b505060019093019250610915915050565b505b806109dc81611eb2565b915050610903565b50837fd6d1eeba639254bd05e36261ae299af245328ab997fd9b7823d5fff17f1b74a486604051610a159190611ecb565b60405180910390a25050505050565b610a2c6114d9565b610a366000611506565b565b6000600583604051610a4a9190611dc2565b90815260408051602092819003830190206001600160a01b0385166000908152925290205490505b92915050565b600483604051610a889190611dc2565b908152602001604051809103902060020154600014610ae15760405162461bcd60e51b8152602060048201526015602482015274426174746c6520616c72656164792065786973747360581b60448201526064016103d0565b6001825111610b325760405162461bcd60e51b815260206004820152601b60248201527f4174206c656173742074776f206d656d6573207265717569726564000000000060448201526064016103d0565b6000600484604051610b449190611dc2565b9081526020016040518091039020905082816000019080519060200190610b6c92919061158d565b504260028201819055610b80908390611ede565b600382015560005b8351811015610c05576040518060400160405280858381518110610bae57610bae611dde565b602002602001015181526020016000815250826005016000836001610bd39190611ede565b8152602081019190915260400160002081518190610bf19082611f77565b506020919091015160019182015501610b88565b507f53afb4af6070b42095973b8681b2d6721a3ff4b1aa0113d0f6112452b9ddf04f848483600201548460030154604051610c439493929190612035565b60405180910390a150505050565b60405162461bcd60e51b815260206004820152601a60248201527f426574207265766f636174696f6e206e6f7420616c6c6f77656400000000000060448201526064016103d0565b610ca16114d9565b6001600160a01b038116610ccb57604051631e4fbdf760e01b8152600060048201526024016103d0565b610cd481611506565b50565b600260015403610cfa57604051633ee5aeb560e01b815260040160405180910390fd5b6002600155565b6000600485604051610d139190611dc2565b90815260200160405180910390209050856001600160a01b0316876001600160a01b031614610d845760405162461bcd60e51b815260206004820152601960248201527f4174746573746572206d7573742062652074686520757365720000000000000060448201526064016103d0565b600481015460ff1615610dcc5760405162461bcd60e51b815260206004820152601060248201526f10985d1d1b19481a185cc8195b99195960821b60448201526064016103d0565b80600301544210610e1f5760405162461bcd60e51b815260206004820152601860248201527f42657474696e6720706572696f642068617320656e646564000000000000000060448201526064016103d0565b6000610e2b8286611556565b905080600003610e6f5760405162461bcd60e51b815260206004820152600f60248201526e125b9d985b1a59081b595b59481251608a1b60448201526064016103d0565b60008411610ec95760405162461bcd60e51b815260206004820152602160248201527f42657420616d6f756e74206d7573742062652067726561746572207468616e206044820152600360fc1b60648201526084016103d0565b600081815260068301602090815260408083206001600160a01b038b16845290915290205415610f455760405162461bcd60e51b815260206004820152602160248201527f557365722068617320616c726561647920626574206f6e2074686973206d656d6044820152606560f81b60648201526084016103d0565b600081815260068301602090815260408083206001600160a01b038b16845290915281208054869290610f79908490611ede565b9091555050600081815260078301602090815260408083208054600180820183559185528385200180546001600160a01b0319166001600160a01b038d16179055848452600586019092528220018054869290610fd7908490611ede565b9250508190555080876001600160a01b03167fceb5bc0fba278ef0ba3d1ddcd12a6cf6425470e33fdf5fa9e6b8858e898e97ae888760405161101a9291906120b6565b60405180910390a36003546040516302754c1360e51b81526000916001600160a01b031690634ea9826090611055908a908c90600401611e6f565b602060405180830381865afa158015611072573d6000803e3d6000fd5b505050506040513d601f19601f820116820180604052508101906110969190611e99565b6003546040516312329d9b60e11b81529192506001600160a01b0316906324653b36906110cb908a908c908a906004016120d8565b600060405180830381600087803b1580156110e557600080fd5b505af11580156110f9573d6000803e3d6000fd5b50506003546040516302754c1360e51b8152600093506001600160a01b039091169150634ea9826090611132908b908d90600401611e6f565b602060405180830381865afa15801561114f573d6000803e3d6000fd5b505050506040513d601f19601f820116820180604052508101906111739190611e99565b60408051848152602081018390529192506001600160a01b038b16917f6b1c32e994893b1cd55314ec36319f13af990a8d79b4db09f57714aa6ef4f26b910160405180910390a285341115611203576001600160a01b0389166108fc6111d98834612106565b6040518115909202916000818181858888f19350505050158015611201573d6000803e3d6000fd5b505b50505050505050505050565b60006004836040516112219190611dc2565b908152604051908190036020019020600481015490915060ff166112875760405162461bcd60e51b815260206004820152601860248201527f426174746c6520686173206e6f7420656e64656420796574000000000000000060448201526064016103d0565b60006005846040516112999190611dc2565b90815260408051602092819003830190206001600160a01b03881660009081529252902054116113025760405162461bcd60e51b81526020600482015260146024820152734e6f2077696e6e696e677320746f20636c61696d60601b60448201526064016103d0565b600061130e8284611556565b90508160010154811461135a5760405162461bcd60e51b81526020600482015260146024820152734e6f74207468652077696e6e696e67206d656d6560601b60448201526064016103d0565b600081815260068301602090815260408083206001600160a01b038916845290915290206001015460ff16156113cb5760405162461bcd60e51b815260206004820152601660248201527514995dd85c9908185b1c9958591e4818db185a5b595960521b60448201526064016103d0565b60006005856040516113dd9190611dc2565b9081526040805191829003602090810183206001600160a01b038a1660008181529183528382205487835260068901845284832091835292529182206001908101805460ff1916909117905592509060059061143a908890611dc2565b9081526040805191829003602090810183206001600160a01b038b166000818152919092529182209390935583156108fc02918491818181858888f1935050505015801561148c573d6000803e3d6000fd5b50856001600160a01b03167f6e5596fe4f25c687a26b2421b8816d678eb3615ab1a5a91fb9cb43ed8b92751d86836040516114c89291906120b6565b60405180910390a250505050505050565b6000546001600160a01b03163314610a365760405163118cdaa760e01b81523360048201526024016103d0565b600080546001600160a01b038381166001600160a01b0319831681178455604051919092169283917f8be0079c531659141344cd1fd0a4f28419497f9722a3daafe3b4186f6b6457e09190a35050565b600060015b8354811161158357828103611571579050610a72565b8061157b81611eb2565b91505061155b565b5060009392505050565b8280548282559060005260206000209081019282156115d3579160200282015b828111156115d357825182906115c39082611f77565b50916020019190600101906115ad565b506115df9291506115e3565b5090565b808211156115df5760006115f78282611600565b506001016115e3565b50805461160c90611ef1565b6000825580601f1061161c575050565b601f016020900490600052602060002090810190610cd491905b808211156115df5760008155600101611636565b634e487b7160e01b600052604160045260246000fd5b60405161014081016001600160401b03811182821017156116835761168361164a565b60405290565b604051601f8201601f191681016001600160401b03811182821017156116b1576116b161164a565b604052919050565b60006001600160401b038211156116d2576116d261164a565b50601f01601f191660200190565b600082601f8301126116f157600080fd5b81356117046116ff826116b9565b611689565b81815284602083860101111561171957600080fd5b816020850160208301376000918101602001919091529392505050565b6001600160a01b0381168114610cd457600080fd5b6000806040838503121561175e57600080fd5b82356001600160401b0381111561177457600080fd5b611780858286016116e0565b925050602083013561179181611736565b809150509250929050565b6001600160401b0381168114610cd457600080fd5b60008083601f8401126117c357600080fd5b5081356001600160401b038111156117da57600080fd5b6020830191508360208285010111156117f257600080fd5b9250929050565b60008060008060006080868803121561181157600080fd5b853561181c81611736565b9450602086013561182c8161179c565b9350604086013561183c8161179c565b925060608601356001600160401b0381111561185757600080fd5b611863888289016117b1565b969995985093965092949392505050565b600080600080600080600060c0888a03121561188f57600080fd5b873561189a81611736565b965060208801356118aa8161179c565b955060408801356118ba8161179c565b945060608801356118ca81611736565b93506080880135925060a08801356001600160401b038111156118ec57600080fd5b6118f88a828b016117b1565b989b979a50959850939692959293505050565b6000806040838503121561191e57600080fd5b82356001600160401b0381111561193457600080fd5b611940858286016116e0565b95602094909401359450505050565b60006020828403121561196157600080fd5b81356001600160401b0381111561197757600080fd5b611983848285016116e0565b949350505050565b60006001600160401b038211156119a4576119a461164a565b5060051b60200190565b6000806000606084860312156119c357600080fd5b83356001600160401b038111156119d957600080fd5b6119e5868287016116e0565b93505060208401356001600160401b03811115611a0157600080fd5b8401601f81018613611a1257600080fd5b8035611a206116ff8261198b565b8082825260208201915060208360051b850101925088831115611a4257600080fd5b602084015b83811015611a835780356001600160401b03811115611a6557600080fd5b611a748b6020838901016116e0565b84525060209283019201611a47565b50959895975050505060409390930135925050565b600060208284031215611aaa57600080fd5b8135611ab581611736565b9392505050565b8051611ac78161179c565b919050565b8051611ac781611736565b805160048110611ac757600080fd5b80518015158114611ac757600080fd5b60005b83811015611b11578181015183820152602001611af9565b50506000910152565b600082601f830112611b2b57600080fd5b8151602083016000611b3f6116ff846116b9565b9050828152858383011115611b5357600080fd5b611b61836020830184611af6565b95945050505050565b600082601f830112611b7b57600080fd5b8151611b896116ff8261198b565b8082825260208201915060208360051b860101925085831115611bab57600080fd5b602085015b83811015611bec5780516001600160401b03811115611bce57600080fd5b611bdd886020838a0101611b1a565b84525060209283019201611bb0565b5095945050505050565b600060208284031215611c0857600080fd5b81516001600160401b03811115611c1e57600080fd5b82016101408185031215611c3157600080fd5b611c39611660565b611c4282611abc565b8152611c5060208301611abc565b6020820152611c6160408301611abc565b6040820152611c7260608301611abc565b6060820152611c8360808301611acc565b6080820152611c9460a08301611abc565b60a0820152611ca560c08301611ad7565b60c0820152611cb660e08301611ae6565b60e08201526101008201516001600160401b03811115611cd557600080fd5b611ce186828501611b6a565b610100830152506101208201516001600160401b03811115611d0257600080fd5b611d0e86828501611b1a565b61012083015250949350505050565b600080600080600080600060e0888a031215611d3857600080fd5b8751611d4381611736565b60208901519097506001600160401b03811115611d5f57600080fd5b611d6b8a828b01611b1a565b60408a015160608b015160808c015160a08d015160c08e0151949b509299509097509550935090506001600160401b03811115611da757600080fd5b611db38a828b01611b1a565b91505092959891949750929550565b60008251611dd4818460208701611af6565b9190910192915050565b634e487b7160e01b600052603260045260246000fd5b634e487b7160e01b600052601160045260246000fd5b8082028115828204841417610a7257610a72611df4565b600082611e3e57634e487b7160e01b600052601260045260246000fd5b500490565b60008151808452611e5b816020860160208601611af6565b601f01601f19169290920160200192915050565b604081526000611e826040830185611e43565b905060018060a01b03831660208301529392505050565b600060208284031215611eab57600080fd5b5051919050565b600060018201611ec457611ec4611df4565b5060010190565b602081526000611ab56020830184611e43565b80820180821115610a7257610a72611df4565b600181811c90821680611f0557607f821691505b602082108103611f2557634e487b7160e01b600052602260045260246000fd5b50919050565b601f821115611f7257806000526020600020601f840160051c81016020851015611f525750805b601f840160051c820191505b818110156104f15760008155600101611f5e565b505050565b81516001600160401b03811115611f9057611f9061164a565b611fa481611f9e8454611ef1565b84611f2b565b6020601f821160018114611fd85760008315611fc05750848201515b600019600385901b1c1916600184901b1784556104f1565b600084815260208120601f198516915b828110156120085787850151825560209485019460019092019101611fe8565b50848210156120265786840151600019600387901b60f8161c191681555b50505050600190811b01905550565b6080815260006120486080830187611e43565b828103602084015280865180835260208301915060208160051b8401016020890160005b8381101561209e57601f19868403018552612088838351611e43565b602095860195909350919091019060010161206c565b50506040860197909752505050506060015292915050565b6040815260006120c96040830185611e43565b90508260208301529392505050565b6060815260006120eb6060830186611e43565b6001600160a01b039490941660208301525060400152919050565b81810381811115610a7257610a72611df456fea264697066735822122093effc3cc791cd2050ec35e27783334a7fae322f99ce52f116c87ce44cedd7da64736f6c634300081a0033","linkReferences":{}},"methodIdentifiers":{"battles(string)":"77bb7b78","createBattle(string,string[],uint256)":"be7cb2a6","declareWinner(string,uint256)":"6b35c67c","didReceiveAttestation(address,uint64,uint64,address,uint256,bytes)":"4466507a","didReceiveAttestation(address,uint64,uint64,bytes)":"3398b4ed","didReceiveRevocation(address,uint64,uint64,address,uint256,bytes)":"e830b5c7","didReceiveRevocation(address,uint64,uint64,bytes)":"e33361f4","getWinnings(string,address)":"b308edef","owner()":"8da5cb5b","renounceOwnership()":"715018a6","transferOwnership(address)":"f2fde38b","userContract()":"5000596b","winnings(string,address)":"21cfa9da"},"id":30}