{"abi":[{"type":"function","name":"battles","inputs":[{"name":"","type":"uint256","internalType":"uint256"}],"outputs":[{"name":"battleAddress","type":"address","internalType":"address"}],"stateMutability":"view"},{"type":"function","name":"deployBattle","inputs":[{"name":"memeNames","type":"string[]","internalType":"string[]"}],"outputs":[{"name":"","type":"address","internalType":"address"}],"stateMutability":"nonpayable"},{"type":"function","name":"getBattle","inputs":[{"name":"index","type":"uint256","internalType":"uint256"}],"outputs":[{"name":"battleAddress","type":"address","internalType":"address"},{"name":"memeNames","type":"string[]","internalType":"string[]"},{"name":"memeTokenAddresses","type":"address[]","internalType":"address[]"}],"stateMutability":"view"},{"type":"function","name":"getBattleCount","inputs":[],"outputs":[{"name":"","type":"uint256","internalType":"uint256"}],"stateMutability":"view"},{"type":"event","name":"BattleCreated","inputs":[{"name":"battleAddress","type":"address","indexed":true,"internalType":"address"},{"name":"memeNames","type":"string[]","indexed":false,"internalType":"string[]"},{"name":"memeTokenAddresses","type":"address[]","indexed":false,"internalType":"address[]"}],"anonymous":false}],"bytecode":{"object":"0x6080604052348015600f57600080fd5b50612e658061001f6000396000f3fe608060405234801561001057600080fd5b506004361061004c5760003560e01c8063606d2e96146100515780636dd0ce7a14610081578063acddeb89146100a3578063f470d5ec146100b6575b600080fd5b61006461005f366004610657565b6100c7565b6040516001600160a01b0390911681526020015b60405180910390f35b61009461008f366004610657565b6100f6565b60405161007893929190610757565b6100646100b13660046107de565b6102d2565b600054604051908152602001610078565b600081815481106100d757600080fd5b60009182526020909120600390910201546001600160a01b0316905081565b60008054606090819084106101515760405162461bcd60e51b815260206004820152601960248201527f426174746c6520696e646578206f7574206f662072616e676500000000000000604482015260640160405180910390fd5b60008085815481106101655761016561090f565b906000526020600020906003020190508060000160009054906101000a90046001600160a01b0316816001018260020181805480602002602001604051908101604052809291908181526020016000905b828210156102625783829060005260206000200180546101d590610925565b80601f016020809104026020016040519081016040528092919081815260200182805461020190610925565b801561024e5780601f106102235761010080835404028352916020019161024e565b820191906000526020600020905b81548152906001019060200180831161023157829003601f168201915b5050505050815260200190600101906101b6565b505050509150808054806020026020016040519081016040528092919081815260200182805480156102bd57602002820191906000526020600020905b81546001600160a01b0316815260019091019060200180831161029f575b50505050509050935093509350509193909250565b600080825167ffffffffffffffff8111156102ef576102ef610797565b604051908082528060200260200182016040528015610318578160200160208202803683370190505b50905060005b83518110156103c757600084828151811061033b5761033b61090f565b60200260200101518583815181106103555761035561090f565b602002602001015160405161036990610517565b61037492919061095f565b604051809103906000f080158015610390573d6000803e3d6000fd5b509050808383815181106103a6576103a661090f565b6001600160a01b03909216602092830291909101909101525060010161031e565b5060008382336040516103d990610524565b6103e59392919061098d565b604051809103906000f080158015610401573d6000803e3d6000fd5b50604080516060810182526001600160a01b03838116825260208083018981529383018790526000805460018101825590805283517f290decd9548b62a8d60345a988386fc84ba6bc95484008f6362f93160ef3e563600390920291820180546001600160a01b0319169190941617835593518051959650929491936104ae937f290decd9548b62a8d60345a988386fc84ba6bc95484008f6362f93160ef3e56490910192910190610531565b50604082015180516104ca916002840191602090910190610587565b505050806001600160a01b03167febb17cd8dc63741e30080fb7910a03b28e0a5347c8905912e4b03efff481045385846040516105089291906109cb565b60405180910390a29392505050565b610cc980610aff83390190565b611668806117c883390190565b828054828255906000526020600020908101928215610577579160200282015b8281111561057757825182906105679082610a3f565b5091602001919060010190610551565b506105839291506105e8565b5090565b8280548282559060005260206000209081019282156105dc579160200282015b828111156105dc57825182546001600160a01b0319166001600160a01b039091161782556020909201916001909101906105a7565b50610583929150610605565b808211156105835760006105fc828261061a565b506001016105e8565b5b808211156105835760008155600101610606565b50805461062690610925565b6000825580601f10610636575050565b601f0160209004906000526020600020908101906106549190610605565b50565b60006020828403121561066957600080fd5b5035919050565b6000815180845260005b818110156106965760208185018101518683018201520161067a565b506000602082860101526020601f19601f83011685010191505092915050565b600082825180855260208501945060208160051b8301016020850160005b8381101561070657601f198584030188526106f0838351610670565b60209889019890935091909101906001016106d4565b50909695505050505050565b600081518084526020840193506020830160005b8281101561074d5781516001600160a01b0316865260209586019590910190600101610726565b5093949350505050565b6001600160a01b038416815260606020820181905260009061077b908301856106b6565b828103604084015261078d8185610712565b9695505050505050565b634e487b7160e01b600052604160045260246000fd5b604051601f8201601f1916810167ffffffffffffffff811182821017156107d6576107d6610797565b604052919050565b6000602082840312156107f057600080fd5b813567ffffffffffffffff81111561080757600080fd5b8201601f8101841361081857600080fd5b803567ffffffffffffffff81111561083257610832610797565b8060051b610842602082016107ad565b9182526020818401810192908101908784111561085e57600080fd5b6020850192505b8383101561090457823567ffffffffffffffff81111561088457600080fd5b8501603f8101891361089557600080fd5b602081013567ffffffffffffffff8111156108b2576108b2610797565b6108c5601f8201601f19166020016107ad565b8181526040838301018b10156108da57600080fd5b81604084016020830137600060208383010152808552505050602082019150602083019250610865565b979650505050505050565b634e487b7160e01b600052603260045260246000fd5b600181811c9082168061093957607f821691505b60208210810361095957634e487b7160e01b600052602260045260246000fd5b50919050565b6040815260006109726040830185610670565b82810360208401526109848185610670565b95945050505050565b6060815260006109a060608301866106b6565b82810360208401526109b28186610712565b91505060018060a01b0383166040830152949350505050565b6040815260006109de60408301856106b6565b82810360208401526109848185610712565b601f821115610a3a57806000526020600020601f840160051c81016020851015610a175750805b601f840160051c820191505b81811015610a375760008155600101610a23565b50505b505050565b815167ffffffffffffffff811115610a5957610a59610797565b610a6d81610a678454610925565b846109f0565b6020601f821160018114610aa15760008315610a895750848201515b600019600385901b1c1916600184901b178455610a37565b600084815260208120601f198516915b82811015610ad15787850151825560209485019460019092019101610ab1565b5084821015610aef5786840151600019600387901b60f8161c191681555b50505050600190811b0190555056fe608060405234801561001057600080fd5b50604051610cc9380380610cc983398101604081905261002f916102ad565b8181600361003d838261039f565b50600461004a828261039f565b50505061007f3361005f61008660201b60201c565b61006d9060ff16600a61055c565b61007a90620f424061056f565b61008b565b5050610599565b601290565b6001600160a01b0382166100ba5760405163ec442f0560e01b8152600060048201526024015b60405180910390fd5b6100c6600083836100ca565b5050565b6001600160a01b0383166100f55780600260008282546100ea9190610586565b909155506101679050565b6001600160a01b038316600090815260208190526040902054818110156101485760405163391434e360e21b81526001600160a01b038516600482015260248101829052604481018390526064016100b1565b6001600160a01b03841660009081526020819052604090209082900390555b6001600160a01b038216610183576002805482900390556101a2565b6001600160a01b03821660009081526020819052604090208054820190555b816001600160a01b0316836001600160a01b03167fddf252ad1be2c89b69c2b068fc378daa952ba7f163c4a11628f55a4df523b3ef836040516101e791815260200190565b60405180910390a3505050565b634e487b7160e01b600052604160045260246000fd5b600082601f83011261021b57600080fd5b81516001600160401b03811115610234576102346101f4565b604051601f8201601f19908116603f011681016001600160401b0381118282101715610262576102626101f4565b60405281815283820160200185101561027a57600080fd5b60005b828110156102995760208186018101518383018201520161027d565b506000918101602001919091529392505050565b600080604083850312156102c057600080fd5b82516001600160401b038111156102d657600080fd5b6102e28582860161020a565b602085015190935090506001600160401b0381111561030057600080fd5b61030c8582860161020a565b9150509250929050565b600181811c9082168061032a57607f821691505b60208210810361034a57634e487b7160e01b600052602260045260246000fd5b50919050565b601f82111561039a57806000526020600020601f840160051c810160208510156103775750805b601f840160051c820191505b818110156103975760008155600101610383565b50505b505050565b81516001600160401b038111156103b8576103b86101f4565b6103cc816103c68454610316565b84610350565b6020601f82116001811461040057600083156103e85750848201515b600019600385901b1c1916600184901b178455610397565b600084815260208120601f198516915b828110156104305787850151825560209485019460019092019101610410565b508482101561044e5786840151600019600387901b60f8161c191681555b50505050600190811b01905550565b634e487b7160e01b600052601160045260246000fd5b6001815b60018411156104ae578085048111156104925761049261045d565b60018416156104a057908102905b60019390931c928002610477565b935093915050565b6000826104c557506001610556565b816104d257506000610556565b81600181146104e857600281146104f25761050e565b6001915050610556565b60ff8411156105035761050361045d565b50506001821b610556565b5060208310610133831016604e8410600b8410161715610531575081810a610556565b61053e6000198484610473565b80600019048211156105525761055261045d565b0290505b92915050565b600061056883836104b6565b9392505050565b80820281158282048414176105565761055661045d565b808201808211156105565761055661045d565b610721806105a86000396000f3fe608060405234801561001057600080fd5b50600436106100935760003560e01c8063313ce56711610066578063313ce567146100fe57806370a082311461010d57806395d89b4114610136578063a9059cbb1461013e578063dd62ed3e1461015157600080fd5b806306fdde0314610098578063095ea7b3146100b657806318160ddd146100d957806323b872dd146100eb575b600080fd5b6100a061018a565b6040516100ad919061056a565b60405180910390f35b6100c96100c43660046105d4565b61021c565b60405190151581526020016100ad565b6002545b6040519081526020016100ad565b6100c96100f93660046105fe565b610236565b604051601281526020016100ad565b6100dd61011b36600461063b565b6001600160a01b031660009081526020819052604090205490565b6100a061025a565b6100c961014c3660046105d4565b610269565b6100dd61015f36600461065d565b6001600160a01b03918216600090815260016020908152604080832093909416825291909152205490565b60606003805461019990610690565b80601f01602080910402602001604051908101604052809291908181526020018280546101c590610690565b80156102125780601f106101e757610100808354040283529160200191610212565b820191906000526020600020905b8154815290600101906020018083116101f557829003601f168201915b5050505050905090565b60003361022a818585610277565b60019150505b92915050565b600033610244858285610289565b61024f85858561030c565b506001949350505050565b60606004805461019990610690565b60003361022a81858561030c565b610284838383600161036b565b505050565b6001600160a01b03838116600090815260016020908152604080832093861683529290522054600019811461030657818110156102f757604051637dc7a0d960e11b81526001600160a01b038416600482015260248101829052604481018390526064015b60405180910390fd5b6103068484848403600061036b565b50505050565b6001600160a01b03831661033657604051634b637e8f60e11b8152600060048201526024016102ee565b6001600160a01b0382166103605760405163ec442f0560e01b8152600060048201526024016102ee565b610284838383610440565b6001600160a01b0384166103955760405163e602df0560e01b8152600060048201526024016102ee565b6001600160a01b0383166103bf57604051634a1406b160e11b8152600060048201526024016102ee565b6001600160a01b038085166000908152600160209081526040808320938716835292905220829055801561030657826001600160a01b0316846001600160a01b03167f8c5be1e5ebec7d5bd14f71427d1e84f3dd0314c0f7b2291e5b200ac8c7c3b9258460405161043291815260200190565b60405180910390a350505050565b6001600160a01b03831661046b57806002600082825461046091906106ca565b909155506104dd9050565b6001600160a01b038316600090815260208190526040902054818110156104be5760405163391434e360e21b81526001600160a01b038516600482015260248101829052604481018390526064016102ee565b6001600160a01b03841660009081526020819052604090209082900390555b6001600160a01b0382166104f957600280548290039055610518565b6001600160a01b03821660009081526020819052604090208054820190555b816001600160a01b0316836001600160a01b03167fddf252ad1be2c89b69c2b068fc378daa952ba7f163c4a11628f55a4df523b3ef8360405161055d91815260200190565b60405180910390a3505050565b602081526000825180602084015260005b81811015610598576020818601810151604086840101520161057b565b506000604082850101526040601f19601f83011684010191505092915050565b80356001600160a01b03811681146105cf57600080fd5b919050565b600080604083850312156105e757600080fd5b6105f0836105b8565b946020939093013593505050565b60008060006060848603121561061357600080fd5b61061c846105b8565b925061062a602085016105b8565b929592945050506040919091013590565b60006020828403121561064d57600080fd5b610656826105b8565b9392505050565b6000806040838503121561067057600080fd5b610679836105b8565b9150610687602084016105b8565b90509250929050565b600181811c908216806106a457607f821691505b6020821081036106c457634e487b7160e01b600052602260045260246000fd5b50919050565b8082018082111561023057634e487b7160e01b600052601160045260246000fdfea26469706673582212205664ac0bd3e22bfc5c918729f75dd5531bc2f45bfbf88dc8df3a4ffc88d2f6e864736f6c634300081a0033608060405234801561001057600080fd5b5060405161166838038061166883398101604081905261002f9161030d565b81518351146100925760405162461bcd60e51b815260206004820152602560248201527f4d656d65206e616d657320616e6420746f6b656e73206c656e677468206d69736044820152640dac2e8c6d60db1b606482015260840160405180910390fd5b82516100a59060009060208601906100ee565b5081516100b9906001906020850190610144565b50600280546001600160a01b0319166001600160a01b039290921691909117905550506005805460ff60a01b191690556105c1565b828054828255906000526020600020908101928215610134579160200282015b8281111561013457825182906101249082610503565b509160200191906001019061010e565b506101409291506101a5565b5090565b828054828255906000526020600020908101928215610199579160200282015b8281111561019957825182546001600160a01b0319166001600160a01b03909116178255602090920191600190910190610164565b506101409291506101c2565b808211156101405760006101b982826101d7565b506001016101a5565b5b8082111561014057600081556001016101c3565b5080546101e39061047a565b6000825580601f106101f3575050565b601f01602090049060005260206000209081019061021191906101c2565b50565b634e487b7160e01b600052604160045260246000fd5b604051601f8201601f191681016001600160401b038111828210171561025257610252610214565b604052919050565b60006001600160401b0382111561027357610273610214565b5060051b60200190565b80516001600160a01b038116811461029457600080fd5b919050565b600082601f8301126102aa57600080fd5b81516102bd6102b88261025a565b61022a565b8082825260208201915060208360051b8601019250858311156102df57600080fd5b602085015b83811015610303576102f58161027d565b8352602092830192016102e4565b5095945050505050565b60008060006060848603121561032257600080fd5b83516001600160401b0381111561033857600080fd5b8401601f8101861361034957600080fd5b80516103576102b88261025a565b8082825260208201915060208360051b85010192508883111561037957600080fd5b602084015b838110156104355780516001600160401b0381111561039c57600080fd5b8501603f81018b136103ad57600080fd5b60208101516001600160401b038111156103c9576103c9610214565b6103dc601f8201601f191660200161022a565b8181526040838301018d10156103f157600080fd5b60005b8281101561041457808401604001516020838301810191909152016103f4565b5060006020838301015280865250505060208301925060208101905061037e565b506020880151909650925050506001600160401b0381111561045657600080fd5b61046286828701610299565b9250506104716040850161027d565b90509250925092565b600181811c9082168061048e57607f821691505b6020821081036104ae57634e487b7160e01b600052602260045260246000fd5b50919050565b601f8211156104fe57806000526020600020601f840160051c810160208510156104db5750805b601f840160051c820191505b818110156104fb57600081556001016104e7565b50505b505050565b81516001600160401b0381111561051c5761051c610214565b6105308161052a845461047a565b846104b4565b6020601f821160018114610564576000831561054c5750848201515b600019600385901b1c1916600184901b1784556104fb565b600084815260208120601f198516915b828110156105945787850151825560209485019460019092019101610574565b50848210156105b25786840151600019600387901b60f8161c191681555b50505050600190811b01905550565b611098806105d06000396000f3fe608060405234801561001057600080fd5b50600436106100a95760003560e01c8063644729a111610071578063644729a11461013d578063adc9772e1461016b578063b7572ec41461017e578063c4e2b34e14610191578063e8f50633146101b1578063f2888dbb146101fb57600080fd5b806302d05d3f146100ae57806313cb5ad6146100de5780632ee02718146100f15780633f52cee614610106578063469c81101461012a575b600080fd5b6002546100c1906001600160a01b031681565b6040516001600160a01b0390911681526020015b60405180910390f35b6100c16100ec366004610dd0565b61020e565b6101046100ff366004610e05565b610238565b005b60055461011a90600160a01b900460ff1681565b60405190151581526020016100d5565b610104610138366004610e27565b6103a1565b61015d61014b366004610e05565b60046020526000908152604090205481565b6040519081526020016100d5565b610104610179366004610e9b565b6103e8565b6005546100c1906001600160a01b031681565b6101a461019f366004610dd0565b610605565b6040516100d59190610ec5565b6101e66101bf366004610f13565b60036020908152600092835260408084209091529082529020805460019091015460ff1682565b604080519283529015156020830152016100d5565b610104610209366004610e05565b6106b1565b6001818154811061021e57600080fd5b6000918252602090912001546001600160a01b0316905081565b6002546001600160a01b031633146102a35760405162461bcd60e51b815260206004820152602360248201527f4f6e6c79207468652063726561746f722063616e20656e642074686520626174604482015262746c6560e81b60648201526084015b60405180910390fd5b6102ac816108b6565b6102f85760405162461bcd60e51b815260206004820152601a60248201527f496e76616c69642077696e6e696e67206d656d6520746f6b656e000000000000604482015260640161029a565b600554600160a01b900460ff16156103495760405162461bcd60e51b815260206004820152601460248201527310985d1d1b1948185b1c9958591e48195b99195960621b604482015260640161029a565b600580546001600160a81b0319166001600160a01b038316908117600160a01b179091556040517f73a3eb719dd7f8906596de2344f14302dea1dc656e0e6f21de39a65a8cdcb75690600090a261039e610915565b50565b336001600160a01b03167f0d7fccda06d6eb51c23cbd16d49b9b3f3ebafb002dba1b074895cbb35d0e813083836040516103dc929190610f46565b60405180910390a25050565b600554600160a01b900460ff16156104355760405162461bcd60e51b815260206004820152601060248201526f10985d1d1b19481a185cc8195b99195960821b604482015260640161029a565b61043e826108b6565b61047f5760405162461bcd60e51b815260206004820152601260248201527124b73b30b634b21036b2b6b2903a37b5b2b760711b604482015260640161029a565b600081116104cf5760405162461bcd60e51b815260206004820152601d60248201527f416d6f756e74206d7573742062652067726561746572207468616e2030000000604482015260640161029a565b6040516323b872dd60e01b8152336004820152306024820152604481018290526001600160a01b038316906323b872dd906064016020604051808303816000875af1158015610522573d6000803e3d6000fd5b505050506040513d601f19601f820116820180604052508101906105469190610f75565b506001600160a01b0382166000908152600360209081526040808320338452909152812080549091839183919061057e908490610fad565b90915550506001818101805460ff191690911790556001600160a01b038316600090815260046020526040812080548492906105bb908490610fad565b90915550506040518281526001600160a01b0384169033907f5dac0c1b1112564a045ba943c9d50270893e8e826c49be8e7073adc713ab7bd79060200160405180910390a3505050565b6000818154811061061557600080fd5b90600052602060002001600091509050805461063090610fc6565b80601f016020809104026020016040519081016040528092919081815260200182805461065c90610fc6565b80156106a95780601f1061067e576101008083540402835291602001916106a9565b820191906000526020600020905b81548152906001019060200180831161068c57829003601f168201915b505050505081565b6001600160a01b038116600090815260036020908152604080832033845290915290206001015460ff166107205760405162461bcd60e51b8152602060048201526016602482015275139bc81cdd185ad959081d1bdad95b9cc8199bdd5b9960521b604482015260640161029a565b6001600160a01b03811660009081526003602090815260408083203384529091529020546107905760405162461bcd60e51b815260206004820152601b60248201527f4e6f207374616b656420746f6b656e7320746f20756e7374616b650000000000604482015260640161029a565b6001600160a01b03811660008181526003602090815260408083203380855292529182902054915163a9059cbb60e01b815260048101919091526024810182905290919063a9059cbb906044016020604051808303816000875af11580156107fc573d6000803e3d6000fd5b505050506040513d601f19601f820116820180604052508101906108209190610f75565b506001600160a01b03821660009081526004602052604081208054839290610849908490611000565b90915550506001600160a01b0382166000818152600360209081526040808320338085529083528184209384556001909301805460ff19169055518481527fd8654fcc8cf5b36d30b3f5e4688fc78118e6d68de60b9994e09902268b57c3e3910160405180910390a35050565b6000805b60015481101561090c57826001600160a01b0316600182815481106108e1576108e1611013565b6000918252602090912001546001600160a01b0316036109045750600192915050565b6001016108ba565b50600092915050565b6000805b6001548110156109b157600554600180546001600160a01b03909216918390811061094657610946611013565b6000918252602090912001546001600160a01b0316146109a957600460006001838154811061097757610977611013565b60009182526020808320909101546001600160a01b031683528201929092526040019020546109a69083610fad565b91505b600101610919565b506005546001600160a01b03166000908152600460205260408120546109d8908390610fad565b905060005b600154811015610dcb57600554600180546001600160a01b039092169183908110610a0a57610a0a611013565b6000918252602090912001546001600160a01b031603610bf75760005b600154811015610bf15760006003600060018581548110610a4a57610a4a611013565b60009182526020808320909101546001600160a01b0316835282810193909352604091820181203382529092529020541115610be95760006003600060018581548110610a9957610a99611013565b60009182526020808320909101546001600160a01b03908116845283820194909452604092830182203383528152828220546005549094168252600490529081205491925090610ae98684611029565b610af39190611040565b905060018481548110610b0857610b08611013565b60009182526020909120015460405163a9059cbb60e01b8152336004820152602481018390526001600160a01b039091169063a9059cbb906044016020604051808303816000875af1158015610b62573d6000803e3d6000fd5b505050506040513d601f19601f82011682018060405250810190610b869190610f75565b5060018481548110610b9a57610b9a611013565b600091825260209182902001546040518381526001600160a01b039091169133917f5303cb8fc2ab504b092b4799d2c00f2209ee4eee6b03a168171dc140ed7403ee910160405180910390a350505b600101610a27565b50610dc3565b600060646004600060018581548110610c1257610c12611013565b60009182526020808320909101546001600160a01b03168352820192909252604001902054610c42906014611029565b610c4c9190611040565b90506000816004600060018681548110610c6857610c68611013565b60009182526020808320909101546001600160a01b03168352820192909252604001902054610c979190611000565b905060018381548110610cac57610cac611013565b600091825260208220015460405163a9059cbb60e01b81526004810192909252602482018490526001600160a01b03169063a9059cbb906044016020604051808303816000875af1158015610d05573d6000803e3d6000fd5b505050506040513d601f19601f82011682018060405250810190610d299190610f75565b5060018381548110610d3d57610d3d611013565b60009182526020909120015460055460405163a9059cbb60e01b81526001600160a01b0391821660048201526024810184905291169063a9059cbb906044016020604051808303816000875af1158015610d9b573d6000803e3d6000fd5b505050506040513d601f19601f82011682018060405250810190610dbf9190610f75565b5050505b6001016109dd565b505050565b600060208284031215610de257600080fd5b5035919050565b80356001600160a01b0381168114610e0057600080fd5b919050565b600060208284031215610e1757600080fd5b610e2082610de9565b9392505050565b60008060208385031215610e3a57600080fd5b823567ffffffffffffffff811115610e5157600080fd5b8301601f81018513610e6257600080fd5b803567ffffffffffffffff811115610e7957600080fd5b856020828401011115610e8b57600080fd5b6020919091019590945092505050565b60008060408385031215610eae57600080fd5b610eb783610de9565b946020939093013593505050565b602081526000825180602084015260005b81811015610ef35760208186018101516040868401015201610ed6565b506000604082850101526040601f19601f83011684010191505092915050565b60008060408385031215610f2657600080fd5b610f2f83610de9565b9150610f3d60208401610de9565b90509250929050565b60208152816020820152818360408301376000818301604090810191909152601f909201601f19160101919050565b600060208284031215610f8757600080fd5b81518015158114610e2057600080fd5b634e487b7160e01b600052601160045260246000fd5b80820180821115610fc057610fc0610f97565b92915050565b600181811c90821680610fda57607f821691505b602082108103610ffa57634e487b7160e01b600052602260045260246000fd5b50919050565b81810381811115610fc057610fc0610f97565b634e487b7160e01b600052603260045260246000fd5b8082028115828204841417610fc057610fc0610f97565b60008261105d57634e487b7160e01b600052601260045260246000fd5b50049056fea2646970667358221220cc17ae712a49353aa75b292882ccebaa98a777735320a030c78a372db419faac64736f6c634300081a0033a26469706673582212208107f8314a323859aad55312d9d7a3964d18c3f2c51b04e62e70c830d6bb2b8464736f6c634300081a0033","linkReferences":{}},"methodIdentifiers":{"battles(uint256)":"606d2e96","deployBattle(string[])":"acddeb89","getBattle(uint256)":"6dd0ce7a","getBattleCount()":"f470d5ec"},"id":6}