{"abi":[{"type":"function","name":"battles","inputs":[{"name":"","type":"uint256","internalType":"uint256"}],"outputs":[{"name":"battleAddress","type":"address","internalType":"address"},{"name":"_userContractAddress","type":"address","internalType":"address"}],"stateMutability":"view"},{"type":"function","name":"deployBattle","inputs":[{"name":"memeNames","type":"string[]","internalType":"string[]"},{"name":"_userContractAddress","type":"address","internalType":"address"}],"outputs":[{"name":"","type":"address","internalType":"address"}],"stateMutability":"nonpayable"},{"type":"function","name":"getBattle","inputs":[{"name":"index","type":"uint256","internalType":"uint256"}],"outputs":[{"name":"battleAddress","type":"address","internalType":"address"},{"name":"memeNames","type":"string[]","internalType":"string[]"},{"name":"_userContractAddress","type":"address","internalType":"address"}],"stateMutability":"view"},{"type":"function","name":"getBattleCount","inputs":[],"outputs":[{"name":"","type":"uint256","internalType":"uint256"}],"stateMutability":"view"},{"type":"event","name":"BattleCreated","inputs":[{"name":"battleAddress","type":"address","indexed":true,"internalType":"address"},{"name":"memeNames","type":"string[]","indexed":false,"internalType":"string[]"},{"name":"userContarctAddress","type":"address","indexed":true,"internalType":"address"}],"anonymous":false}],"bytecode":{"object":"0x6080604052348015600f57600080fd5b506123308061001f6000396000f3fe608060405234801561001057600080fd5b506004361061004c5760003560e01c8063606d2e96146100515780636dd0ce7a146100895780638fa1d4a0146100ab578063f470d5ec146100d6575b600080fd5b61006461005f3660046104c7565b6100e7565b604080516001600160a01b039384168152929091166020830152015b60405180910390f35b61009c6100973660046104c7565b610120565b60405161008093929190610573565b6100be6100b9366004610612565b61029e565b6040516001600160a01b039091168152602001610080565b600054604051908152602001610080565b600081815481106100f757600080fd5b6000918252602090912060039091020180546002909101546001600160a01b0391821692501682565b600080546060908290841061017b5760405162461bcd60e51b815260206004820152601960248201527f426174746c6520696e646578206f7574206f662072616e676500000000000000604482015260640160405180910390fd5b600080858154811061018f5761018f610756565b6000918252602080832060039092029091018054600282015460018301805460408051828802810188019091528181529497506001600160a01b03938416969195929093169392859290919084015b8282101561028a5783829060005260206000200180546101fd9061076c565b80601f01602080910402602001604051908101604052809291908181526020018280546102299061076c565b80156102765780601f1061024b57610100808354040283529160200191610276565b820191906000526020600020905b81548152906001019060200180831161025957829003601f168201915b5050505050815260200190600101906101de565b505050509150935093509350509193909250565b6000808333846040516102b0906103f5565b6102bc939291906107a6565b604051809103906000f0801580156102d8573d6000803e3d6000fd5b50604080516060810182526001600160a01b0383811682526020808301898152888316948401949094526000805460018101825590805283517f290decd9548b62a8d60345a988386fc84ba6bc95484008f6362f93160ef3e563600390920291820180546001600160a01b031916919094161783559351805195965092949193610389937f290decd9548b62a8d60345a988386fc84ba6bc95484008f6362f93160ef3e56490910192910190610402565b5060409182015160029190910180546001600160a01b0319166001600160a01b039283161790559051848216918316907f188fdd35a673fd6087e09967a20f8a01e6315494c52ed4d70cc8dcfa4edbb797906103e69088906107d9565b60405180910390a39392505050565b6119f98061090283390190565b828054828255906000526020600020908101928215610448579160200282015b8281111561044857825182906104389082610842565b5091602001919060010190610422565b50610454929150610458565b5090565b8082111561045457600061046c8282610475565b50600101610458565b5080546104819061076c565b6000825580601f10610491575050565b601f0160209004906000526020600020908101906104af91906104b2565b50565b5b8082111561045457600081556001016104b3565b6000602082840312156104d957600080fd5b5035919050565b600082825180855260208501945060208160051b8301016020850160005b8381101561056757848303601f190188528151805180855260005b8181101561053557602081840181015187830182015201610519565b506000602082870101526020601f19601f830116860101945050506020820191506020880197506001810190506104fe565b50909695505050505050565b6001600160a01b0384168152606060208201819052600090610597908301856104e0565b905060018060a01b0383166040830152949350505050565b634e487b7160e01b600052604160045260246000fd5b604051601f8201601f1916810167ffffffffffffffff811182821017156105ee576105ee6105af565b604052919050565b80356001600160a01b038116811461060d57600080fd5b919050565b6000806040838503121561062557600080fd5b823567ffffffffffffffff81111561063c57600080fd5b8301601f8101851361064d57600080fd5b803567ffffffffffffffff811115610667576106676105af565b8060051b610677602082016105c5565b9182526020818401810192908101908884111561069357600080fd5b6020850192505b8383101561073957823567ffffffffffffffff8111156106b957600080fd5b8501603f81018a136106ca57600080fd5b602081013567ffffffffffffffff8111156106e7576106e76105af565b6106fa601f8201601f19166020016105c5565b8181526040838301018c101561070f57600080fd5b8160408401602083013760006020838301015280855250505060208201915060208301925061069a565b809650505050505061074d602084016105f6565b90509250929050565b634e487b7160e01b600052603260045260246000fd5b600181811c9082168061078057607f821691505b6020821081036107a057634e487b7160e01b600052602260045260246000fd5b50919050565b6060815260006107b960608301866104e0565b6001600160a01b0394851660208401529290931660409091015292915050565b6020815260006107ec60208301846104e0565b9392505050565b601f82111561083d57806000526020600020601f840160051c8101602085101561081a5750805b601f840160051c820191505b8181101561083a5760008155600101610826565b50505b505050565b815167ffffffffffffffff81111561085c5761085c6105af565b6108708161086a845461076c565b846107f3565b6020601f8211600181146108a4576000831561088c5750848201515b600019600385901b1c1916600184901b17845561083a565b600084815260208120601f198516915b828110156108d457878501518255602094850194600190920191016108b4565b50848210156108f25786840151600019600387901b60f8161c191681555b50505050600190811b0190555056fe608060405234801561001057600080fd5b506040516119f93803806119f983398101604081905261002f916101a6565b825161004290600190602086019061007f565b50600280546001600160a01b039384166001600160a01b03199182161790915560008054929093169116179055506007805460ff19169055610457565b8280548282559060005260206000209081019282156100c5579160200282015b828111156100c557825182906100b59082610399565b509160200191906001019061009f565b506100d19291506100d5565b5090565b808211156100d15760006100e982826100f2565b506001016100d5565b5080546100fe90610310565b6000825580601f1061010e575050565b601f01602090049060005260206000209081019061012c919061012f565b50565b5b808211156100d15760008155600101610130565b634e487b7160e01b600052604160045260246000fd5b604051601f8201601f191681016001600160401b038111828210171561018257610182610144565b604052919050565b80516001600160a01b03811681146101a157600080fd5b919050565b6000806000606084860312156101bb57600080fd5b83516001600160401b038111156101d157600080fd5b8401601f810186136101e257600080fd5b80516001600160401b038111156101fb576101fb610144565b8060051b61020b6020820161015a565b9182526020818401810192908101908984111561022757600080fd5b6020850192505b838310156102e55782516001600160401b0381111561024c57600080fd5b8501603f81018b1361025d57600080fd5b60208101516001600160401b0381111561027957610279610144565b61028c601f8201601f191660200161015a565b8181526040838301018d10156102a157600080fd5b60005b828110156102c457808401604001516020838301810191909152016102a4565b5060006020838301015280855250505060208201915060208301925061022e565b80975050505050506102f96020850161018a565b91506103076040850161018a565b90509250925092565b600181811c9082168061032457607f821691505b60208210810361034457634e487b7160e01b600052602260045260246000fd5b50919050565b601f82111561039457806000526020600020601f840160051c810160208510156103715750805b601f840160051c820191505b81811015610391576000815560010161037d565b50505b505050565b81516001600160401b038111156103b2576103b2610144565b6103c6816103c08454610310565b8461034a565b6020601f8211600181146103fa57600083156103e25750848201515b600019600385901b1c1916600184901b178455610391565b600084815260208120601f198516915b8281101561042a578785015182556020948501946001909201910161040a565b50848210156104485786840151600019600387901b60f8161c191681555b50505050600190811b01905550565b611593806104666000396000f3fe6080604052600436106100ec5760003560e01c80635aadc5dc1161008a578063bbf135de11610059578063bbf135de14610302578063c4e2b34e14610322578063e33361f41461034f578063e830b5c71461019457600080fd5b80635aadc5dc1461023a5780635e2256211461025e5780639e3fcd1a146102b5578063b34e0c47146102e257600080fd5b80633f52cee6116100c65780633f52cee61461016a5780634466507a146101945780634e43603a146101b85780635000596b1461021a57600080fd5b806302d05d3f146100f85780632e17de78146101355780633398b4ed1461015757600080fd5b366100f357005b600080fd5b34801561010457600080fd5b50600254610118906001600160a01b031681565b6040516001600160a01b0390911681526020015b60405180910390f35b34801561014157600080fd5b50610155610150366004611149565b610364565b005b6101556101653660046111e0565b6105a8565b34801561017657600080fd5b506007546101849060ff1681565b604051901515815260200161012c565b3480156101a057600080fd5b506101556101af366004611258565b50505050505050565b3480156101c457600080fd5b506101d86101d33660046112ec565b610ae8565b60405161012c9190600060a082019050825182526020830151602083015260408301516040830152606083015160608301526080830151608083015292915050565b34801561022657600080fd5b50600054610118906001600160a01b031681565b34801561024657600080fd5b5061025060065481565b60405190815260200161012c565b34801561026a57600080fd5b506102a0610279366004611310565b60036020908152600092835260408084209091529082529020805460019091015460ff1682565b6040805192835290151560208301520161012c565b3480156102c157600080fd5b506102506102d0366004611149565b60046020526000908152604090205481565b3480156102ee57600080fd5b506102506102fd3660046112ec565b610b8e565b34801561030e57600080fd5b5061011861031d366004611340565b610bfd565b34801561032e57600080fd5b5061034261033d366004611149565b610c35565b60405161012c9190611362565b61015561035d3660046111e0565b5050505050565b60075460ff16156103af5760405162461bcd60e51b815260206004820152601060248201526f10985d1d1b19481a185cc8195b99195960821b60448201526064015b60405180910390fd5b600081815260036020908152604080832033845290915290206001015460ff166104145760405162461bcd60e51b8152602060048201526016602482015275139bc81cdd185ad959081d1bdad95b9cc8199bdd5b9960521b60448201526064016103a6565b600081815260036020908152604080832033845290915290205461047a5760405162461bcd60e51b815260206004820152601b60248201527f4e6f207374616b656420746f6b656e7320746f20756e7374616b65000000000060448201526064016103a6565b6000818152600360209081526040808320338085529252808320549051909283156108fc02918491818181858888f193505050501580156104bf573d6000803e3d6000fd5b50600082815260046020526040812080548392906104de9084906113c6565b90915550506000828152600360209081526040808320338085529083528184209384556001909301805460ff19169055518381528492917f7fc4727e062e336010f2c282598ef5f14facb3de68cf8195c2f23e1454b2b74e910160405180910390a360008054604051633b253f5f60e01b815233600482015260248101929092526001600160a01b031690633b253f5f90604401600060405180830381600087803b15801561058c57600080fd5b505af11580156105a0573d6000803e3d6000fd5b505050505050565b60075460ff16156105ee5760405162461bcd60e51b815260206004820152601060248201526f10985d1d1b19481a185cc8195b99195960821b60448201526064016103a6565b600080806105fe848601866113d9565b6001549295509093509150821061064c5760405162461bcd60e51b8152602060048201526012602482015271092dcecc2d8d2c840dacadaca40d2dcc8caf60731b60448201526064016103a6565b600083600181111561066057610660611412565b036109cb57803410156106ac5760405162461bcd60e51b8152602060048201526014602482015273125b9cdd59999a58da595b9d081c185e5b595b9d60621b60448201526064016103a6565b600081116107065760405162461bcd60e51b815260206004820152602160248201527f42657420616d6f756e74206d7573742062652067726561746572207468616e206044820152600360fc1b60648201526084016103a6565b60008281526003602090815260408083206001600160a01b038c168452909152812080549091839183919061073c908490611428565b90915550506001818101805460ff191690911790556000838152600460205260408120805484929061076f908490611428565b9091555050600083815260056020908152604080832080546001810182559084529282902090920180546001600160a01b0319166001600160a01b038d1690811790915591518481528592917f1449c6dd7851abc30abf37f57715f492010519147cc2652fbc38202c18a6ee90910160405180910390a36000805460405163b34e0c4760e01b81526001600160a01b038c811660048301529091169063b34e0c4790602401602060405180830381865afa158015610831573d6000803e3d6000fd5b505050506040513d601f19601f82011682018060405250810190610855919061143b565b600054604051633b253f5f60e01b81526001600160a01b038d8116600483015260248201879052929350911690633b253f5f90604401600060405180830381600087803b1580156108a557600080fd5b505af11580156108b9573d6000803e3d6000fd5b50506000805460405163b34e0c4760e01b81526001600160a01b038f811660048301529294509116915063b34e0c4790602401602060405180830381865afa158015610909573d6000803e3d6000fd5b505050506040513d601f19601f8201168201806040525081019061092d919061143b565b604080516001600160a01b038e168152602081018590529081018290529091507f6b1c32e994893b1cd55314ec36319f13af990a8d79b4db09f57714aa6ef4f26b9060600160405180910390a1833411156109c3576001600160a01b038b166108fc61099986346113c6565b6040518115909202916000818181858888f193505050501580156109c1573d6000803e3d6000fd5b505b505050610ade565b60018360018111156109df576109df611412565b03610ade576002546001600160a01b03898116911614610a4f5760405162461bcd60e51b815260206004820152602560248201527f4f6e6c79207468652063726561746f722063616e206465636c6172652061207760448201526434b73732b960d91b60648201526084016103a6565b60075460ff1615610a995760405162461bcd60e51b815260206004820152601460248201527310985d1d1b1948185b1c9958591e48195b99195960621b60448201526064016103a6565b60068290556007805460ff1916600117905560405182907fadb721ce7cda3ba2c3f968d059d10a99a42d2718d8c09b8b5ade0a8d3172630d90600090a2610ade610ce1565b5050505050505050565b610b1a6040518060a0016040528060008152602001600081526020016000815260200160008152602001600081525090565b600054604051632721b01d60e11b81526001600160a01b03848116600483015290911690634e43603a9060240160a060405180830381865afa158015610b64573d6000803e3d6000fd5b505050506040513d601f19601f82011682018060405250810190610b889190611454565b92915050565b6000805460405163b34e0c4760e01b81526001600160a01b0384811660048301529091169063b34e0c4790602401602060405180830381865afa158015610bd9573d6000803e3d6000fd5b505050506040513d601f19601f82011682018060405250810190610b88919061143b565b60056020528160005260406000208181548110610c1957600080fd5b6000918252602090912001546001600160a01b03169150829050565b60018181548110610c4557600080fd5b906000526020600020016000915090508054610c60906114d4565b80601f0160208091040260200160405190810160405280929190818152602001828054610c8c906114d4565b8015610cd95780601f10610cae57610100808354040283529160200191610cd9565b820191906000526020600020905b815481529060010190602001808311610cbc57829003601f168201915b505050505081565b6000805b600154811015610d1257600081815260046020526040902054610d089083611428565b9150600101610ce5565b5060065460009081526004602052604090205480610d725760405162461bcd60e51b815260206004820152601960248201527f4e6f207374616b6573206f6e2077696e6e696e67206d656d650000000000000060448201526064016103a6565b60005b6001548110156110f657600654811460005b6000838152600560205260409020548110156110dd576000838152600560205260408120805483908110610dbd57610dbd61150e565b60009182526020808320909101548683526003825260408084206001600160a01b0390921680855291909252912054909150156110d45760008481526003602090815260408083206001600160a01b0385811680865291909352818420548454925163b34e0c4760e01b815260048101929092529392919091169063b34e0c4790602401602060405180830381865afa158015610e5e573d6000803e3d6000fd5b505050506040513d601f19601f82011682018060405250810190610e82919061143b565b90508415610f8457600087610e978a85611524565b610ea1919061153b565b6040519091506001600160a01b0385169082156108fc029083906000818181858888f19350505050158015610eda573d6000803e3d6000fd5b5086846001600160a01b03167f53118bff2fb56701752f5bf54053d24fb83cec92f9f6ce664b90c38a2991caa483604051610f1791815260200190565b60405180910390a3600054604051631c7b451b60e21b81526001600160a01b038681166004830152909116906371ed146c90602401600060405180830381600087803b158015610f6657600080fd5b505af1158015610f7a573d6000803e3d6000fd5b5050505050610fe4565b600054604051636f0a7d7760e01b81526001600160a01b03858116600483015290911690636f0a7d7790602401600060405180830381600087803b158015610fcb57600080fd5b505af1158015610fdf573d6000803e3d6000fd5b505050505b6000805460405163b34e0c4760e01b81526001600160a01b0386811660048301529091169063b34e0c4790602401602060405180830381865afa15801561102f573d6000803e3d6000fd5b505050506040513d601f19601f82011682018060405250810190611053919061143b565b604080516001600160a01b0387168152602081018590529081018290529091507f6b1c32e994893b1cd55314ec36319f13af990a8d79b4db09f57714aa6ef4f26b9060600160405180910390a150505060008481526003602090815260408083206001600160a01b03851684529091528120908155600101805460ff191690555b50600101610d87565b5050600081815260046020526040812055600101610d75565b5047156111455760405162461bcd60e51b815260206004820152601960248201527f4e6f7420616c6c2066756e64732064697374726962757465640000000000000060448201526064016103a6565b5050565b60006020828403121561115b57600080fd5b5035919050565b6001600160a01b038116811461117757600080fd5b50565b803567ffffffffffffffff8116811461119257600080fd5b919050565b60008083601f8401126111a957600080fd5b50813567ffffffffffffffff8111156111c157600080fd5b6020830191508360208285010111156111d957600080fd5b9250929050565b6000806000806000608086880312156111f857600080fd5b853561120381611162565b94506112116020870161117a565b935061121f6040870161117a565b9250606086013567ffffffffffffffff81111561123b57600080fd5b61124788828901611197565b969995985093965092949392505050565b600080600080600080600060c0888a03121561127357600080fd5b873561127e81611162565b965061128c6020890161117a565b955061129a6040890161117a565b945060608801356112aa81611162565b93506080880135925060a088013567ffffffffffffffff8111156112cd57600080fd5b6112d98a828b01611197565b989b979a50959850939692959293505050565b6000602082840312156112fe57600080fd5b813561130981611162565b9392505050565b6000806040838503121561132357600080fd5b82359150602083013561133581611162565b809150509250929050565b6000806040838503121561135357600080fd5b50508035926020909101359150565b602081526000825180602084015260005b818110156113905760208186018101516040868401015201611373565b506000604082850101526040601f19601f83011684010191505092915050565b634e487b7160e01b600052601160045260246000fd5b81810381811115610b8857610b886113b0565b6000806000606084860312156113ee57600080fd5b8335600281106113fd57600080fd5b95602085013595506040909401359392505050565b634e487b7160e01b600052602160045260246000fd5b80820180821115610b8857610b886113b0565b60006020828403121561144d57600080fd5b5051919050565b600060a082840312801561146757600080fd5b6000905060405160a0810181811067ffffffffffffffff8211171561149a57634e487b7160e01b83526041600452602483fd5b6040908152845182526020808601519083015284810151908201526060808501519082015260809384015193810193909352509092915050565b600181811c908216806114e857607f821691505b60208210810361150857634e487b7160e01b600052602260045260246000fd5b50919050565b634e487b7160e01b600052603260045260246000fd5b8082028115828204841417610b8857610b886113b0565b60008261155857634e487b7160e01b600052601260045260246000fd5b50049056fea2646970667358221220d053b351edb7ca4db67a05df7b7b5b05fa3e6be1e9ba0ee3ea6a5c9d755d3c7564736f6c634300081a0033a2646970667358221220a1d40fd1626cd08e7deb152c7a588bc17073adfbb6485e1204e04a8a4f42134d64736f6c634300081a0033","linkReferences":{}},"methodIdentifiers":{"battles(uint256)":"606d2e96","deployBattle(string[],address)":"8fa1d4a0","getBattle(uint256)":"6dd0ce7a","getBattleCount()":"f470d5ec"},"id":26}