{"abi":[{"type":"function","name":"battles","inputs":[{"name":"","type":"uint256","internalType":"uint256"}],"outputs":[{"name":"battleAddress","type":"address","internalType":"address"}],"stateMutability":"view"},{"type":"function","name":"deployBattle","inputs":[{"name":"memeNames","type":"string[]","internalType":"string[]"}],"outputs":[{"name":"","type":"address","internalType":"address"}],"stateMutability":"nonpayable"},{"type":"function","name":"getBattle","inputs":[{"name":"index","type":"uint256","internalType":"uint256"}],"outputs":[{"name":"battleAddress","type":"address","internalType":"address"},{"name":"memeNames","type":"string[]","internalType":"string[]"},{"name":"memeTokenAddresses","type":"address[]","internalType":"address[]"}],"stateMutability":"view"},{"type":"function","name":"getBattleCount","inputs":[],"outputs":[{"name":"","type":"uint256","internalType":"uint256"}],"stateMutability":"view"},{"type":"event","name":"BattleCreated","inputs":[{"name":"battleAddress","type":"address","indexed":true,"internalType":"address"},{"name":"memeNames","type":"string[]","indexed":false,"internalType":"string[]"},{"name":"memeTokenAddresses","type":"address[]","indexed":false,"internalType":"address[]"}],"anonymous":false}],"bytecode":{"object":"0x6080604052348015600f57600080fd5b506131708061001f6000396000f3fe608060405234801561001057600080fd5b506004361061004c5760003560e01c8063606d2e96146100515780636dd0ce7a14610081578063acddeb89146100a3578063f470d5ec146100b6575b600080fd5b61006461005f366004610657565b6100c7565b6040516001600160a01b0390911681526020015b60405180910390f35b61009461008f366004610657565b6100f6565b60405161007893929190610757565b6100646100b13660046107de565b6102d2565b600054604051908152602001610078565b600081815481106100d757600080fd5b60009182526020909120600390910201546001600160a01b0316905081565b60008054606090819084106101515760405162461bcd60e51b815260206004820152601960248201527f426174746c6520696e646578206f7574206f662072616e676500000000000000604482015260640160405180910390fd5b6000808581548110610165576101656108f8565b906000526020600020906003020190508060000160009054906101000a90046001600160a01b0316816001018260020181805480602002602001604051908101604052809291908181526020016000905b828210156102625783829060005260206000200180546101d59061090e565b80601f01602080910402602001604051908101604052809291908181526020018280546102019061090e565b801561024e5780601f106102235761010080835404028352916020019161024e565b820191906000526020600020905b81548152906001019060200180831161023157829003601f168201915b5050505050815260200190600101906101b6565b505050509150808054806020026020016040519081016040528092919081815260200182805480156102bd57602002820191906000526020600020905b81546001600160a01b0316815260019091019060200180831161029f575b50505050509050935093509350509193909250565b600080825167ffffffffffffffff8111156102ef576102ef610797565b604051908082528060200260200182016040528015610318578160200160208202803683370190505b50905060005b83518110156103c757600084828151811061033b5761033b6108f8565b6020026020010151858381518110610355576103556108f8565b602002602001015160405161036990610517565b610374929190610948565b604051809103906000f080158015610390573d6000803e3d6000fd5b509050808383815181106103a6576103a66108f8565b6001600160a01b03909216602092830291909101909101525060010161031e565b5060008382336040516103d990610524565b6103e593929190610976565b604051809103906000f080158015610401573d6000803e3d6000fd5b50604080516060810182526001600160a01b03838116825260208083018981529383018790526000805460018101825590805283517f290decd9548b62a8d60345a988386fc84ba6bc95484008f6362f93160ef3e563600390920291820180546001600160a01b0319169190941617835593518051959650929491936104ae937f290decd9548b62a8d60345a988386fc84ba6bc95484008f6362f93160ef3e56490910192910190610531565b50604082015180516104ca916002840191602090910190610587565b505050806001600160a01b03167febb17cd8dc63741e30080fb7910a03b28e0a5347c8905912e4b03efff481045385846040516105089291906109b4565b60405180910390a29392505050565b610cc880610aeb83390190565b611988806117b383390190565b828054828255906000526020600020908101928215610577579160200282015b8281111561057757825182906105679082610a2a565b5091602001919060010190610551565b506105839291506105e8565b5090565b8280548282559060005260206000209081019282156105dc579160200282015b828111156105dc57825182546001600160a01b0319166001600160a01b039091161782556020909201916001909101906105a7565b50610583929150610605565b808211156105835760006105fc828261061a565b506001016105e8565b5b808211156105835760008155600101610606565b5080546106269061090e565b6000825580601f10610636575050565b601f0160209004906000526020600020908101906106549190610605565b50565b60006020828403121561066957600080fd5b5035919050565b60008151808452602060005b8281101561069757848101820151868201830152810161067c565b50506000602082860101526020601f19601f83011685010191505092915050565b60008282518085526020808601955060208260051b8401016020860160005b8481101561070557601f198684030189526106f3838351610670565b988401989250908301906001016106d7565b5090979650505050505050565b60008151808452602080850194506020840160005b8381101561074c5781516001600160a01b031687529582019590820190600101610727565b509495945050505050565b6001600160a01b038416815260606020820181905260009061077b908301856106b8565b828103604084015261078d8185610712565b9695505050505050565b634e487b7160e01b600052604160045260246000fd5b604051601f8201601f1916810167ffffffffffffffff811182821017156107d6576107d6610797565b604052919050565b600060208083850312156107f157600080fd5b823567ffffffffffffffff8082111561080957600080fd5b8185019150601f86601f84011261081f57600080fd5b82358281111561083157610831610797565b8060051b6108408682016107ad565b918252848101860191868101908a84111561085a57600080fd5b87870192505b838310156108ea578235868111156108785760008081fd5b8701603f81018c1361088a5760008081fd5b888101356040888211156108a0576108a0610797565b6108b1828901601f19168c016107ad565b8281528e828486010111156108c65760008081fd5b828285018d83013760009281018c0192909252508352509187019190870190610860565b9a9950505050505050505050565b634e487b7160e01b600052603260045260246000fd5b600181811c9082168061092257607f821691505b60208210810361094257634e487b7160e01b600052602260045260246000fd5b50919050565b60408152600061095b6040830185610670565b828103602084015261096d8185610670565b95945050505050565b60608152600061098960608301866106b8565b828103602084015261099b8186610712565b91505060018060a01b0383166040830152949350505050565b6040815260006109c760408301856106b8565b828103602084015261096d8185610712565b601f821115610a25576000816000526020600020601f850160051c81016020861015610a025750805b601f850160051c820191505b81811015610a2157828155600101610a0e565b5050505b505050565b815167ffffffffffffffff811115610a4457610a44610797565b610a5881610a52845461090e565b846109d9565b602080601f831160018114610a8d5760008415610a755750858301515b600019600386901b1c1916600185901b178555610a21565b600085815260208120601f198616915b82811015610abc57888601518255948401946001909101908401610a9d565b5085821015610ada5787850151600019600388901b60f8161c191681555b5050505050600190811b0190555056fe608060405234801561001057600080fd5b50604051610cc8380380610cc883398101604081905261002f916102b2565b8181600361003d83826103a0565b50600461004a82826103a0565b50505061007f3361005f61008660201b60201c565b61006d9060ff16600a61055b565b61007a90620f424061056e565b61008b565b5050610598565b601290565b6001600160a01b0382166100ba5760405163ec442f0560e01b8152600060048201526024015b60405180910390fd5b6100c6600083836100ca565b5050565b6001600160a01b0383166100f55780600260008282546100ea9190610585565b909155506101679050565b6001600160a01b038316600090815260208190526040902054818110156101485760405163391434e360e21b81526001600160a01b038516600482015260248101829052604481018390526064016100b1565b6001600160a01b03841660009081526020819052604090209082900390555b6001600160a01b038216610183576002805482900390556101a2565b6001600160a01b03821660009081526020819052604090208054820190555b816001600160a01b0316836001600160a01b03167fddf252ad1be2c89b69c2b068fc378daa952ba7f163c4a11628f55a4df523b3ef836040516101e791815260200190565b60405180910390a3505050565b634e487b7160e01b600052604160045260246000fd5b600082601f83011261021b57600080fd5b81516001600160401b0380821115610235576102356101f4565b604051601f8301601f19908116603f0116810190828211818310171561025d5761025d6101f4565b816040528381526020925086602085880101111561027a57600080fd5b600091505b8382101561029c578582018301518183018401529082019061027f565b6000602085830101528094505050505092915050565b600080604083850312156102c557600080fd5b82516001600160401b03808211156102dc57600080fd5b6102e88683870161020a565b935060208501519150808211156102fe57600080fd5b5061030b8582860161020a565b9150509250929050565b600181811c9082168061032957607f821691505b60208210810361034957634e487b7160e01b600052602260045260246000fd5b50919050565b601f82111561039b576000816000526020600020601f850160051c810160208610156103785750805b601f850160051c820191505b8181101561039757828155600101610384565b5050505b505050565b81516001600160401b038111156103b9576103b96101f4565b6103cd816103c78454610315565b8461034f565b602080601f83116001811461040257600084156103ea5750858301515b600019600386901b1c1916600185901b178555610397565b600085815260208120601f198616915b8281101561043157888601518255948401946001909101908401610412565b508582101561044f5787850151600019600388901b60f8161c191681555b5050505050600190811b01905550565b634e487b7160e01b600052601160045260246000fd5b600181815b808511156104b05781600019048211156104965761049661045f565b808516156104a357918102915b93841c939080029061047a565b509250929050565b6000826104c757506001610555565b816104d457506000610555565b81600181146104ea57600281146104f457610510565b6001915050610555565b60ff8411156105055761050561045f565b50506001821b610555565b5060208310610133831016604e8410600b8410161715610533575081810a610555565b61053d8383610475565b80600019048211156105515761055161045f565b0290505b92915050565b600061056783836104b8565b9392505050565b80820281158282048414176105555761055561045f565b808201808211156105555761055561045f565b610721806105a76000396000f3fe608060405234801561001057600080fd5b50600436106100935760003560e01c8063313ce56711610066578063313ce567146100fe57806370a082311461010d57806395d89b4114610136578063a9059cbb1461013e578063dd62ed3e1461015157600080fd5b806306fdde0314610098578063095ea7b3146100b657806318160ddd146100d957806323b872dd146100eb575b600080fd5b6100a061018a565b6040516100ad919061056a565b60405180910390f35b6100c96100c43660046105d5565b61021c565b60405190151581526020016100ad565b6002545b6040519081526020016100ad565b6100c96100f93660046105ff565b610236565b604051601281526020016100ad565b6100dd61011b36600461063b565b6001600160a01b031660009081526020819052604090205490565b6100a061025a565b6100c961014c3660046105d5565b610269565b6100dd61015f36600461065d565b6001600160a01b03918216600090815260016020908152604080832093909416825291909152205490565b60606003805461019990610690565b80601f01602080910402602001604051908101604052809291908181526020018280546101c590610690565b80156102125780601f106101e757610100808354040283529160200191610212565b820191906000526020600020905b8154815290600101906020018083116101f557829003601f168201915b5050505050905090565b60003361022a818585610277565b60019150505b92915050565b600033610244858285610289565b61024f85858561030c565b506001949350505050565b60606004805461019990610690565b60003361022a81858561030c565b610284838383600161036b565b505050565b6001600160a01b03838116600090815260016020908152604080832093861683529290522054600019811461030657818110156102f757604051637dc7a0d960e11b81526001600160a01b038416600482015260248101829052604481018390526064015b60405180910390fd5b6103068484848403600061036b565b50505050565b6001600160a01b03831661033657604051634b637e8f60e11b8152600060048201526024016102ee565b6001600160a01b0382166103605760405163ec442f0560e01b8152600060048201526024016102ee565b610284838383610440565b6001600160a01b0384166103955760405163e602df0560e01b8152600060048201526024016102ee565b6001600160a01b0383166103bf57604051634a1406b160e11b8152600060048201526024016102ee565b6001600160a01b038085166000908152600160209081526040808320938716835292905220829055801561030657826001600160a01b0316846001600160a01b03167f8c5be1e5ebec7d5bd14f71427d1e84f3dd0314c0f7b2291e5b200ac8c7c3b9258460405161043291815260200190565b60405180910390a350505050565b6001600160a01b03831661046b57806002600082825461046091906106ca565b909155506104dd9050565b6001600160a01b038316600090815260208190526040902054818110156104be5760405163391434e360e21b81526001600160a01b038516600482015260248101829052604481018390526064016102ee565b6001600160a01b03841660009081526020819052604090209082900390555b6001600160a01b0382166104f957600280548290039055610518565b6001600160a01b03821660009081526020819052604090208054820190555b816001600160a01b0316836001600160a01b03167fddf252ad1be2c89b69c2b068fc378daa952ba7f163c4a11628f55a4df523b3ef8360405161055d91815260200190565b60405180910390a3505050565b60006020808352835180602085015260005b818110156105985785810183015185820160400152820161057c565b506000604082860101526040601f19601f8301168501019250505092915050565b80356001600160a01b03811681146105d057600080fd5b919050565b600080604083850312156105e857600080fd5b6105f1836105b9565b946020939093013593505050565b60008060006060848603121561061457600080fd5b61061d846105b9565b925061062b602085016105b9565b9150604084013590509250925092565b60006020828403121561064d57600080fd5b610656826105b9565b9392505050565b6000806040838503121561067057600080fd5b610679836105b9565b9150610687602084016105b9565b90509250929050565b600181811c908216806106a457607f821691505b6020821081036106c457634e487b7160e01b600052602260045260246000fd5b50919050565b8082018082111561023057634e487b7160e01b600052601160045260246000fdfea2646970667358221220e35002761e43d8587b6c4ae5ac4bd257b69d95654a719739797e9098aa76f1fb64736f6c63430008190033608060405234801561001057600080fd5b5060405161198838038061198883398101604081905261002f9161030f565b81518351146100925760405162461bcd60e51b815260206004820152602560248201527f4d656d65206e616d657320616e6420746f6b656e73206c656e677468206d69736044820152640dac2e8c6d60db1b606482015260840160405180910390fd5b82516100a59060009060208601906100ee565b5081516100b9906001906020850190610144565b50600280546001600160a01b0319166001600160a01b039290921691909117905550506005805460ff60a01b191690556105ab565b828054828255906000526020600020908101928215610134579160200282015b82811115610134578251829061012490826104ec565b509160200191906001019061010e565b506101409291506101a5565b5090565b828054828255906000526020600020908101928215610199579160200282015b8281111561019957825182546001600160a01b0319166001600160a01b03909116178255602090920191600190910190610164565b506101409291506101c2565b808211156101405760006101b982826101d7565b506001016101a5565b5b8082111561014057600081556001016101c3565b5080546101e390610461565b6000825580601f106101f3575050565b601f01602090049060005260206000209081019061021191906101c2565b50565b634e487b7160e01b600052604160045260246000fd5b604051601f8201601f191681016001600160401b038111828210171561025257610252610214565b604052919050565b60006001600160401b0382111561027357610273610214565b5060051b60200190565b80516001600160a01b038116811461029457600080fd5b919050565b600082601f8301126102aa57600080fd5b815160206102bf6102ba8361025a565b61022a565b8083825260208201915060208460051b8701019350868411156102e157600080fd5b602086015b84811015610304576102f78161027d565b83529183019183016102e6565b509695505050505050565b60008060006060848603121561032457600080fd5b83516001600160401b038082111561033b57600080fd5b818601915086601f83011261034f57600080fd5b8151602061035f6102ba8361025a565b82815260059290921b8401810191818101908a84111561037e57600080fd5b8286015b848110156104225780518681111561039a5760008081fd5b8701603f81018d136103ac5760008081fd5b84810151878111156103c0576103c0610214565b6103d2601f8201601f1916870161022a565b81815260408f818486010111156103e95760008081fd5b60005b83811015610407578481018201518382018a015288016103ec565b50506000918101870191909152845250918301918301610382565b509189015191975090935050508082111561043c57600080fd5b5061044986828701610299565b9250506104586040850161027d565b90509250925092565b600181811c9082168061047557607f821691505b60208210810361049557634e487b7160e01b600052602260045260246000fd5b50919050565b601f8211156104e7576000816000526020600020601f850160051c810160208610156104c45750805b601f850160051c820191505b818110156104e3578281556001016104d0565b5050505b505050565b81516001600160401b0381111561050557610505610214565b610519816105138454610461565b8461049b565b602080601f83116001811461054e57600084156105365750858301515b600019600386901b1c1916600185901b1785556104e3565b600085815260208120601f198616915b8281101561057d5788860151825594840194600190910190840161055e565b508582101561059b5787850151600019600388901b60f8161c191681555b5050505050600190811b01905550565b6113ce806105ba6000396000f3fe6080604052600436106100e15760003560e01c8063644729a11161007f578063e33361f411610059578063e33361f414610278578063e830b5c71461028d578063e8f50633146102b1578063f2888dbb1461030857600080fd5b8063644729a1146101f0578063b7572ec41461022b578063c4e2b34e1461024b57600080fd5b80633398b4ed116100bb5780633398b4ed1461016c5780633f52cee61461017f5780634466507a146101b0578063469c8110146101d057600080fd5b806302d05d3f146100ed57806313cb5ad61461012a5780632ee027181461014a57600080fd5b366100e857005b600080fd5b3480156100f957600080fd5b5060025461010d906001600160a01b031681565b6040516001600160a01b0390911681526020015b60405180910390f35b34801561013657600080fd5b5061010d610145366004610fc2565b610328565b34801561015657600080fd5b5061016a610165366004610ff0565b610352565b005b61016a61017a36600461107a565b6104bb565b34801561018b57600080fd5b506005546101a090600160a01b900460ff1681565b6040519015158152602001610121565b3480156101bc57600080fd5b5061016a6101cb3660046110f2565b6106d2565b3480156101dc57600080fd5b5061016a6101eb366004611186565b610911565b3480156101fc57600080fd5b5061021d61020b366004610ff0565b60046020526000908152604090205481565b604051908152602001610121565b34801561023757600080fd5b5060055461010d906001600160a01b031681565b34801561025757600080fd5b5061026b610266366004610fc2565b610958565b60405161012191906111c8565b61016a61028636600461107a565b5050505050565b34801561029957600080fd5b5061016a6102a83660046110f2565b50505050505050565b3480156102bd57600080fd5b506102f36102cc366004611217565b60036020908152600092835260408084209091529082529020805460019091015460ff1682565b60408051928352901515602083015201610121565b34801561031457600080fd5b5061016a610323366004610ff0565b610a04565b6001818154811061033857600080fd5b6000918252602090912001546001600160a01b0316905081565b6002546001600160a01b031633146103bd5760405162461bcd60e51b815260206004820152602360248201527f4f6e6c79207468652063726561746f722063616e20656e642074686520626174604482015262746c6560e81b60648201526084015b60405180910390fd5b6103c681610bc8565b6104125760405162461bcd60e51b815260206004820152601a60248201527f496e76616c69642077696e6e696e67206d656d6520746f6b656e00000000000060448201526064016103b4565b600554600160a01b900460ff16156104635760405162461bcd60e51b815260206004820152601460248201527310985d1d1b1948185b1c9958591e48195b99195960621b60448201526064016103b4565b600580546001600160a81b0319166001600160a01b038316908117600160a01b179091556040517f73a3eb719dd7f8906596de2344f14302dea1dc656e0e6f21de39a65a8cdcb75690600090a26104b8610c27565b50565b600554600160a01b900460ff16156105085760405162461bcd60e51b815260206004820152601060248201526f10985d1d1b19481a185cc8195b99195960821b60448201526064016103b4565b600034116105585760405162461bcd60e51b815260206004820152601d60248201527f416d6f756e74206d7573742062652067726561746572207468616e203000000060448201526064016103b4565b60008061056783850185611250565b9150915061057482610bc8565b6105b55760405162461bcd60e51b815260206004820152601260248201527124b73b30b634b21036b2b6b2903a37b5b2b760711b60448201526064016103b4565b803410156105fc5760405162461bcd60e51b8152602060048201526014602482015273125b9cdd59999a58da595b9d081c185e5b595b9d60621b60448201526064016103b4565b6001600160a01b038083166000908152600360209081526040808320938b168352929052908120805490918391839190610637908490611292565b90915550506001818101805460ff191690911790556001600160a01b03831660009081526004602052604081208054849290610674908490611292565b92505081905550826001600160a01b0316886001600160a01b03167f5dac0c1b1112564a045ba943c9d50270893e8e826c49be8e7073adc713ab7bd7846040516106c091815260200190565b60405180910390a35050505050505050565b600554600160a01b900460ff161561071f5760405162461bcd60e51b815260206004820152601060248201526f10985d1d1b19481a185cc8195b99195960821b60448201526064016103b4565b60008061072e83850185611250565b9150915061073b82610bc8565b61077c5760405162461bcd60e51b815260206004820152601260248201527124b73b30b634b21036b2b6b2903a37b5b2b760711b60448201526064016103b4565b6040516323b872dd60e01b81526001600160a01b038a81166004830152306024830152604482018790528716906323b872dd906064016020604051808303816000875af11580156107d1573d6000803e3d6000fd5b505050506040513d601f19601f820116820180604052508101906107f591906112ab565b6108395760405162461bcd60e51b8152602060048201526015602482015274115490cc8c081d1c985b9cd9995c8819985a5b1959605a1b60448201526064016103b4565b6001600160a01b038083166000908152600360209081526040808320938d168352929052908120805490918391839190610874908490611292565b90915550506001818101805460ff191690911790556001600160a01b038316600090815260046020526040812080548492906108b1908490611292565b92505081905550826001600160a01b03168a6001600160a01b03167f5dac0c1b1112564a045ba943c9d50270893e8e826c49be8e7073adc713ab7bd7846040516108fd91815260200190565b60405180910390a350505050505050505050565b336001600160a01b03167f0d7fccda06d6eb51c23cbd16d49b9b3f3ebafb002dba1b074895cbb35d0e8130838360405161094c9291906112cd565b60405180910390a25050565b6000818154811061096857600080fd5b906000526020600020016000915090508054610983906112fc565b80601f01602080910402602001604051908101604052809291908181526020018280546109af906112fc565b80156109fc5780601f106109d1576101008083540402835291602001916109fc565b820191906000526020600020905b8154815290600101906020018083116109df57829003601f168201915b505050505081565b6001600160a01b038116600090815260036020908152604080832033845290915290206001015460ff16610a735760405162461bcd60e51b8152602060048201526016602482015275139bc81cdd185ad959081d1bdad95b9cc8199bdd5b9960521b60448201526064016103b4565b6001600160a01b0381166000908152600360209081526040808320338452909152902054610ae35760405162461bcd60e51b815260206004820152601b60248201527f4e6f207374616b656420746f6b656e7320746f20756e7374616b65000000000060448201526064016103b4565b6001600160a01b0381166000908152600360209081526040808320338085529252808320549051909283156108fc02918491818181858888f19350505050158015610b32573d6000803e3d6000fd5b506001600160a01b03821660009081526004602052604081208054839290610b5b908490611336565b90915550506001600160a01b0382166000818152600360209081526040808320338085529083528184209384556001909301805460ff19169055518481527fd8654fcc8cf5b36d30b3f5e4688fc78118e6d68de60b9994e09902268b57c3e3910160405180910390a35050565b6000805b600154811015610c1e57826001600160a01b031660018281548110610bf357610bf3611349565b6000918252602090912001546001600160a01b031603610c165750600192915050565b600101610bcc565b50600092915050565b6000805b600154811015610cc357600554600180546001600160a01b039092169183908110610c5857610c58611349565b6000918252602090912001546001600160a01b031614610cbb576004600060018381548110610c8957610c89611349565b60009182526020808320909101546001600160a01b03168352820192909252604001902054610cb89083611292565b91505b600101610c2b565b506005546001600160a01b0316600090815260046020526040812054610cea908390611292565b905060005b600154811015610fbd57600554600180546001600160a01b039092169183908110610d1c57610d1c611349565b6000918252602090912001546001600160a01b031603610ea65760005b600154811015610ea05760006003600060018581548110610d5c57610d5c611349565b60009182526020808320909101546001600160a01b0316835282810193909352604091820181203382529092529020541115610e985760006003600060018581548110610dab57610dab611349565b60009182526020808320909101546001600160a01b03908116845283820194909452604092830182203383528152828220546005549094168252600490529081205491925090610dfb868461135f565b610e059190611376565b604051909150339082156108fc029083906000818181858888f19350505050158015610e35573d6000803e3d6000fd5b5060018481548110610e4957610e49611349565b600091825260209182902001546040518381526001600160a01b039091169133917f5303cb8fc2ab504b092b4799d2c00f2209ee4eee6b03a168171dc140ed7403ee910160405180910390a350505b600101610d39565b50610fb5565b600060646004600060018581548110610ec157610ec1611349565b60009182526020808320909101546001600160a01b03168352820192909252604001902054610ef190601461135f565b610efb9190611376565b90506000816004600060018681548110610f1757610f17611349565b60009182526020808320909101546001600160a01b03168352820192909252604001902054610f469190611336565b604051909150309083156108fc029084906000818181858888f19350505050158015610f76573d6000803e3d6000fd5b506005546040516001600160a01b039091169082156108fc029083906000818181858888f19350505050158015610fb1573d6000803e3d6000fd5b5050505b600101610cef565b505050565b600060208284031215610fd457600080fd5b5035919050565b6001600160a01b03811681146104b857600080fd5b60006020828403121561100257600080fd5b813561100d81610fdb565b9392505050565b803567ffffffffffffffff8116811461102c57600080fd5b919050565b60008083601f84011261104357600080fd5b50813567ffffffffffffffff81111561105b57600080fd5b60208301915083602082850101111561107357600080fd5b9250929050565b60008060008060006080868803121561109257600080fd5b853561109d81610fdb565b94506110ab60208701611014565b93506110b960408701611014565b9250606086013567ffffffffffffffff8111156110d557600080fd5b6110e188828901611031565b969995985093965092949392505050565b600080600080600080600060c0888a03121561110d57600080fd5b873561111881610fdb565b965061112660208901611014565b955061113460408901611014565b9450606088013561114481610fdb565b93506080880135925060a088013567ffffffffffffffff81111561116757600080fd5b6111738a828b01611031565b989b979a50959850939692959293505050565b6000806020838503121561119957600080fd5b823567ffffffffffffffff8111156111b057600080fd5b6111bc85828601611031565b90969095509350505050565b60006020808352835180602085015260005b818110156111f6578581018301518582016040015282016111da565b506000604082860101526040601f19601f8301168501019250505092915050565b6000806040838503121561122a57600080fd5b823561123581610fdb565b9150602083013561124581610fdb565b809150509250929050565b6000806040838503121561126357600080fd5b823561126e81610fdb565b946020939093013593505050565b634e487b7160e01b600052601160045260246000fd5b808201808211156112a5576112a561127c565b92915050565b6000602082840312156112bd57600080fd5b8151801515811461100d57600080fd5b60208152816020820152818360408301376000818301604090810191909152601f909201601f19160101919050565b600181811c9082168061131057607f821691505b60208210810361133057634e487b7160e01b600052602260045260246000fd5b50919050565b818103818111156112a5576112a561127c565b634e487b7160e01b600052603260045260246000fd5b80820281158282048414176112a5576112a561127c565b60008261139357634e487b7160e01b600052601260045260246000fd5b50049056fea264697066735822122013e128db5768f21e07d0f0b900dc7c11be237187d55e8914ff86b8718d88179164736f6c63430008190033a2646970667358221220c41306d6d5dda129d369e1fc9f1491cb70ef36f38ad1bc283a98f3d527637d6a64736f6c63430008190033","linkReferences":{}},"methodIdentifiers":{"battles(uint256)":"606d2e96","deployBattle(string[])":"acddeb89","getBattle(uint256)":"6dd0ce7a","getBattleCount()":"f470d5ec"},"id":7}